:020000040800F2
:10000000C0090020B12B0008312A0008332A00085B
:10001000352A0008372A0008392A000800000000A5
:100020000000000000000000000000003B2A000863
:100030003D2A0008000000003F2A0008412A00086D
:10004000E12B0008E52B0008E92B0008ED2B000848
:10005000F12B0008F52B0008F92B0008FD2B0008F8
:10006000012C0008052C0008092C00080D2C0008A4
:10007000112C0008152C0008192C00081D2C000854
:10008000212C0008252C0008292C00082D2C000804
:10009000312C0008352C0008392C00083D2C0008B4
:1000A000412C0008452C0008492C00084D2C000864
:1000B000512C00080000000000000000552C000832
:1000C000592C00085D2C0008612C0008652C0008E4
:1000D000692C0008492A0008532A00086D2C0008E2
:1000E000712C0008752C00080000000000000000C2
:1000F0000000000000000000000000000000000000
:1001000000000000792C0008000000007D2C000891
:1001100000000000000000005D2A0008812C00089B
:10012000852C0008892C00088D2C0008912C0008D3
:10013000952C0008000000000000000000000000F6
:10014000992C00089D2C0008A12C0008000000003C
:10015000A52C0008A92C0008AD2C0008B12C000823
:10016000B52C0008B92C0008BD2C000800000000C8
:10017000C12C0008C52C0008000000000000000091
:10018000C92C0008CD2C0008D12C00082DE9FE4F09
:100190000500002D01D1012043E3DFF8E898D9F8EC
:1001A000004014F00C04DFF8E888D8F8007017F06D
:1001B00003072878C00640F1C680002C03D00C2C21
:1001C0007AD1012F78D1DFF8B8A8DAF800008007DB
:1001D00004D5A869002801D1012022E3DAF8000043
:1001E000000704D5DAF8000010F0F00005E0DFF8B1
:1001F00030090068000910F0F000296A88421ED218
:10020000286A00F047FC002801D0012009E3DAF851
:10021000000050F00800CAF80000DAF8001031F0D1
:10022000F001286A0143CAF80010DFF8F8080168F5
:1002300031F47F41EA6951EA022101601FE0DAF8F6
:10024000000050F00800CAF80000DAF8001031F0A1
:10025000F001286A0143CAF80010DFF8C8080168F5
:1002600031F47F41EA6951EA02210160002C06D194
:10027000286A00F00FFC002801D00120D1E200F034
:1002800078FBDFF8A418D9F80020C2F30312895CC8
:1002900011F01F01C840DFF8F0170860DFF8EC0725
:1002A000006800F059FC8DF800009DF8000000285F
:1002B00049D09DF80000B4E2A86900282DD0DFF8ED
:1002C000C097D9F8000050F00100C9F8000000F014
:1002D00073FC0600D9F80000800706D400F06CFC1F
:1002E000801B0328F6D303209BE2D9F8000050F0CE
:1002F0000800C9F80000D9F8001031F0F001286AB0
:100300000143C9F80010DFF81C08016831F47F418F
:10031000EA6951EA0221016015E0DFF86497D9F833
:10032000000040084000C9F8000000F045FC06004D
:10033000D9F80000800706D500F03EFC801B03289A
:10034000F6D303206DE22878C00754D5082C03D0DB
:100350000C2C0BD1032F09D1DFF824070068800390
:1003600049D56868002846D101205AE26868B0F58E
:10037000803F06D1DFF80807016851F48031016041
:1003800018E06868B0F5A02F0AD1DFF8F40601681C
:1003900051F480210160016851F48031016009E06D
:1003A000DFF8DC06016831F480310160016831F466
:1003B00080210160686800280ED000F0FDFB060077
:1003C000DFF8BC060068800315D400F0F5FB801B45
:1003D0006528F5D3032024E200F0EEFB0600DFF8E9
:1003E000A0060068800306D500F0E6FB801B6528A8
:1003F000F5D3032015E22878800752D5042C03D0CA
:100400000C2C15D1022F13D1DFF8740600684005BB
:1004100004D5E868002801D1012002E2DFF80407D2
:10042000016831F0FE412A6951EA0261016038E059
:10043000E86800281FD0DFF84896D9F8000050F48B
:100440008070C9F8000000F0B7FB0600D9F8000082
:10045000400506D400F0B0FB801B0328F6D3032030
:10046000DFE1DFF8C006016831F0FE412A6951EA98
:100470000261016015E0DFF80896D9F8000030F459
:100480008070C9F8000000F097FB0600D9F8000062
:10049000400506D500F090FB801B0328F6D303200F
:1004A000BFE1287800072ED56869002815D0DFF84D
:1004B0007096D9F8000050F00100C9F8000000F073
:1004C0007BFB0600D9F8000080071CD400F074FB09
:1004D000801B0328F6D30320A3E1DFF84496D9F864
:1004E000000040084000C9F8000000F065FB06006D
:1004F000D9F80000800706D500F05EFB801B0328BA
:10050000F6D303208DE12878400740F181805FF029
:100510000009DFF818A6DAF80000C0000DD4DAF8F8
:10052000000050F08050CAF80000DAF8000010F027
:1005300080500190019801208146DFF8F4B5DBF886
:100540000000C00513D4DBF8000050F48070CBF835
:10055000000000F031FB0600DBF80000C00506D407
:1005600000F02AFB801B0328F6D3032059E1A8687A
:10057000012806D1DFF8BC05016851F001010160D6
:1005800017E0A86805280AD1DFF8A805016851F02E
:1005900004010160016851F00101016009E0DFF828
:1005A00094050168490849000160016831F00401BF
:1005B0000160A868002810D000F0FEFA0600DFF8FD
:1005C00074050068800719D400F0F6FA801B41F228
:1005D00089318842F3D3032023E100F0EDFA0600CD
:1005E000DFF850050068800708D500F0E5FA801BA9
:1005F00041F289318842F3D3032012E14846C0B268
:10060000012805D1DAF8000030F08050CAF8000067
:10061000287880062ED5686A002815D0DFF818954E
:10062000D9F8000050F00100C9F8000000F0C4FA49
:100630000600D9F8000080071CD400F0BDFA801B2A
:100640000328F6D30320ECE0DFF8EC94D9F800009F
:1006500040084000C9F8000000F0AEFA0600D9F8E2
:100660000000800706D500F0A7FA801B0328F6D308
:100670000320D6E0A86A002800F0D280A86A0228E9
:1006800040F0A380D8F80000070017F00300E96AE3
:10069000884222D117F07000296B491EB0EB011F70
:1006A0001BD117F4FE40696BB0EB012F15D117F089
:1006B0007840A96BB0EBC16F0FD117F4C000E96BA4
:1006C0004908491EB0EB415F07D117F0C060296CA3
:1006D0004908491EB0EB416F57D00C2C53D0DFF8BE
:1006E000A0A3DAF80000400101D5012099E0DAF872
:1006F000000030F08070CAF8000000F05DFA81461A
:10070000DAF80000800107D500F056FAB0EB0900D6
:100710000328F5D3032084E0D8F80010DFF81C0488
:100720000140E86A0143286B401E51EA0011686BE2
:1007300051EA0021E86B4008401E51EA4051286C04
:100740004008401E51EA4061A86B51EAC061C8F8F8
:100750000010DAF8000050F08070CAF80000D8F8F5
:10076000000050F08070C8F8000000F025FA060084
:10077000DAF80000800153D400F01EFA801B032831
:10078000F6D303204DE001204BE0DFF8F492D9F8D6
:100790000000800144D4D9F8000050F08070C9F8FE
:1007A0000000D8F8000050F08070C8F8000000F099
:1007B00003FA0600D9F80000800131D400F0FCF9FA
:1007C000801B0328F6D303202BE00C2C26D0DFF867
:1007D000B092D9F8000030F08070C9F80000D9F864
:1007E0000000000105D4D8F8000080088000C8F897
:1007F0000000D8F80010DFF848030140C8F80010E6
:1008000000F0DAF90600D9F80000800108D500F000
:10081000D3F9801B0328F6D3032002E0012000E077
:100820000020BDE8FE8F2DE9F04104000D00002CF2
:1008300001D101209BE0DFF80C73386810F007004D
:10084000A8420BD23868C008C00028433860386816
:1008500010F00700A84201D0012088E02078C007EE
:1008600042D56068032806D1DFF8140200688001D1
:100870001CD401207BE06068022806D1DFF800026A
:100880000068800312D4012071E06068002806D15E
:10089000DFF8EC010068800708D4012067E0DFF88A
:1008A000E0010068400501D4012060E0DFF8D48158
:1008B000D8F800108908890060680143C8F8001062
:1008C00000F07AF90600D8F8000010F00C0061681A
:1008D000B0EB810F08D000F06FF9801B41F2893135
:1008E0008842F0D3032042E02078800706D565498E
:1008F0000A6832F0F002A06802430A60386810F01B
:10090000070085420BD23868C008C0002843386011
:10091000386810F00700A84201D0012027E02078B5
:10092000400706D557490A6832F4E062E06802439E
:100930000A602078000707D55248016831F46051F9
:10094000226951EAC201016000F013F8DFF8D81102
:100950004C4A1268C2F30312895C11F01F01C840AF
:10096000494908604948006800F0F6F8C0B2BDE89F
:10097000F0812DE9F041002600204249096811F07C
:100980000C01DFF80CC1DCF8007017F00307002938
:1009900003D00C291AD1012F18D1DFF8E4E0DEF8DA
:1009A00000805FEA087806D4DFF874E1DEF800E042
:1009B000CEF3032E03E0DEF800E0CEF3031E624E1A
:1009C00056F82E6000290CD130000AE0042903D12A
:1009D000DFF878E1704604E0082902D1DFF870E121
:1009E00070460C292DD1DCF800E01EF0030E734692
:1009F0009E46BEF1020F03D0BEF1030F03D005E007
:100A0000DFF848E103E0DFF848E100E0B646DCF853
:100A10000020C2F30212521C1500DCF80020C2F3C1
:100A2000062202FB0EFEBEFBF5F2DCF800C0CCF3A2
:100A3000416C1CF1010C5FEA4C0C6446B2FBF4FC07
:100A40006046BDE8F08110480068704780B5FFF748
:100A5000FAFF40490B4A1268C2F30222895C11F086
:100A60001F01C84002BD80B5FFF7EDFF3949054AB7
:100A70001268C2F3C222895C11F01F01C84002BD96
:100A80000010024008100240040000200000002076
:100A90000C1002407CB504000025244E3068C000D4
:100AA00003D500F08FF801000FE0306850F080505F
:100AB0003060306810F080500090009800F082F8AC
:100AC0000100306830F080503060B1F5007F09D10E
:100AD000812C15D3A12C02D30220050010E00120A7
:100AE00005000DE0812C02D30320050008E0802CD6
:100AF00002D10220050003E0702C01D10120050085
:100B000010480268D208D2002A430260006810F040
:100B10000700A84201D0012000E0002076BD0000BF
:100B20009410024004100240A02B0008581002400C
:100B30000070004090100240981002408C809D018F
:100B4000FFFFEEFE002002408C2A00080024F40083
:100B500000127A00D82B000838B50400002513498C
:100B6000087800281DD04FF47A700978B0FBF1F0B6
:100B70000F490968B1FBF0F000F005F900280DD12C
:100B8000102C08D2002221005FF0FF3000F0DFF8C7
:100B90000848046007E00120050004E0012005008A
:100BA00001E0012005002800C0B232BD080000208D
:100BB000040000200000002001480068704700BFCA
:100BC000B0050020DFF88000006810F4C0607047B6
:100BD0000200B2F5007F26D1DFF86C00036813F441
:100BE000C063B3F5007F2CD0036833F4C06353F4C3
:100BF00000730360DFF85400036832204343DFF8DA
:100C00005000B3FBF0F0401C0100DFF8480003681F
:100C10005B0503D5002901D0491EF6E700684005B1
:100C20000FD503200EE0DFF82000036813F4C06343
:100C3000B3F5806F05D0036833F4C06353F4806369
:100C40000360002070470000007000400400002096
:100C500040420F001470004010B410F00703DFF89A
:100C6000344122684FF6FF010A40DFF82C1151EAA7
:100C700003210A43226010BC7047DFF818010068A6
:100C8000C0F3022070470000010049B2002909D4D6
:100C9000012210F01F018A40404903005BB25B094A
:100CA00041F82320704710B4020052B2002A05D444
:100CB0000A013B4B040064B21A5508E00A01394BA3
:100CC000040064B214F00F04234403F8042C10BC95
:100CD000704770B4030013F00704D4F1070005282F
:100CE00001D3042001E0D4F10700251D072D01D216
:100CF000002500E0E51E012616FA00F0401E014026
:100D0000A94016FA05F56D1E2A401143080070BC73
:100D1000704710B50400601EB0F1807F01D3012040
:100D20000EE0601E204908600F215FF0FF30FFF7E2
:100D3000BAFF00201D49086007201D4908600020F7
:100D400010BD10B504002000FFF786FF10BD2DE98F
:100D5000F04104000D0016000027FFF78EFF8046CB
:100D6000320029004046FFF7B4FF0100200040B2E6
:100D7000FFF799FFBDE8F08110B50400200040B2F4
:100D8000FFF782FF10BD10B504002000FFF7C1FF80
:100D900010BD00000CED00E00000FA0500E100E0ED
:100DA00000E400E018ED00E014E000E018E000E0EE
:100DB00010E000E010B50400002C01D1012035E066
:100DC000A0690028FFD1606F002805D1002084F8B9
:100DD0007000200000F0E6FC2420606720680068B6
:100DE0004008400021680860200000F06FF90128E9
:100DF00001D101201AE0606A002802D0200000F032
:100E0000E5FA2068406830F4904021684860206826
:100E1000806830F02A00216888602068006850F0FF
:100E2000010021680860200000F03DFB10BD10B4F7
:100E30000300986F20286AD1002903D0100080B2E7
:100E4000002801D1012063E093F87000012801D14E
:100E500002205DE0012083F870005965A3F8582056
:100E6000A3F85A20002018669868B0F5805F0BD16F
:100E70001869002804D140F2FF10A3F85C0023E0B9
:100E8000FF20A3F85C001FE0986800280AD11869C9
:100E9000002803D1FF20A3F85C0015E07F20A3F811
:100EA0005C0011E09868B0F1805F0AD118690028F1
:100EB00003D17F20A3F85C0006E03F20A3F85C008C
:100EC00002E00020A3F85C000020D8672220986789
:100ED0001868806850F001001C68A0609868B0F540
:100EE000805F06D11869002803D1DFF8D8011866A1
:100EF00002E0DFF8D4011866002083F8700018685B
:100F0000006850F490701C682060002000E002200F
:100F100010BC70472DE9F84306003068C769306897
:100F2000D0F800803068D0F8089040F60F043C40BC
:100F3000002C0BD1B80609D55FEA886006D5306E63
:100F4000002802D03000316E8847B9E0002C00F054
:100F500095805FEAC97005D4DFF8500418EA000FE5
:100F600000F08C8017F00100C0B2002809D05FEAC1
:100F7000C85006D5012031680862F06F50F00100BA
:100F8000F067B8070BD519F00100C0B2002806D0F1
:100F9000022031680862F06F50F00400F0677807B3
:100FA0000BD519F00100C0B2002806D0042031682A
:100FB0000862F06F50F00200F06738070ED55FEA64
:100FC000886004D419F00100C0B2002806D00820BF
:100FD00031680862F06F50F00800F06738050AD5F4
:100FE0005FEA481007D54FF4006031680862F06F7F
:100FF00050F02000F067F06F00283ED0B80608D50A
:101000005FEA886005D5306E002802D03000316E6E
:101010008847F06F050030688068400602D415F0FC
:10102000280F25D0300000F0CAFA306880684006EA
:101030001AD53068806830F0400031688860F06E02
:1010400000280DD00FF29950F16E8863F06E00F019
:1010500021FC002811D0F06EF16E896B88470CE0FE
:10106000300000F046FC08E0300000F042FC04E0F4
:10107000300000F03EFC0020F06721E0F8020AD5C5
:101080005FEA492007D55FF48010316808623000BC
:1010900000F030FC14E0380609D55FEA086006D598
:1010A000706E002802D03000716E884708E0780624
:1010B00006D55FEA486003D5300000F09FFAFFE7ED
:1010C000BDE8F183871600081D1600082DE9F047DA
:1010D00004000026DFF8D81220688842FFD0A268FA
:1010E0002069024360690243E069024320680368A3
:1010F000DFF8C002034013432068036020684368A0
:1011000033F44053E068034320684360D4F8188008
:101110002068884202D0206A50EA08082068806867
:1011200030F4306058EA0000226890602068A24ADB
:10113000904215D1A148006810F00300002805D0A6
:10114000022805D006D3032806D007E001275BE07C
:10115000022759E0042757E0082755E0102753E0FD
:101160002068974A904216D19448006810F00C000D
:10117000002806D0042808D0082804D00C2806D05F
:1011800007E0002740E002273EE004273CE0082774
:101190003AE0102738E020688A4A904216D1874802
:1011A000006810F03000002806D0102808D0202851
:1011B00004D0302806D007E0002725E0022723E0EE
:1011C000042721E008271FE010271DE0206888423F
:1011D00019D17A48006810F44060002809D0B0F5B1
:1011E000806F0AD0B0F5006F05D0B0F5406F06D023
:1011F00007E0002708E0022706E0042704E00827AC
:1012000002E0102700E010272068884246D138000D
:10121000C0B2002806D0022808D0042809D0082827
:101220000BD00DE0FFF712FC81460DE0DFF898913E
:101230000AE0FFF79EFB814606E04FF4004903E019
:101240005FF0000901200600B9F1000F00F0A58051
:10125000616803204143894505D361684FF480509C
:101260004143494502D20120060096E04FF48072C6
:10127000606840080021E2FB09016268002300F079
:101280003BFB0500B5F5407F05D3B5F5801F02D2C5
:101290002068C56081E0012006007EE0E069B0F5CD
:1012A000004F42D13800C0B2002808D001280AD02F
:1012B00002280CD004280DD008280FD011E0FFF729
:1012C000C5FB814611E0FFF7CEFB81460DE0DFF85C
:1012D000F8900AE0FFF74DFB814606E04FF4004925
:1012E00003E05FF0000901200600B9F1000F54D0BF
:1012F0006068400810EB49006168B0FBF1F080B213
:101300000500102D0ED3B5F5803F0BD24FF6F071CE
:101310002940C5F3420001438A46504680B2216805
:10132000C8603AE00120060037E03800C0B200286B
:1013300008D001280AD002280CD004280DD0082893
:101340000FD011E0FFF782FB814611E0FFF78BFB26
:1013500081460DE0DFF870900AE0FFF70AFB814656
:1013600006E04FF4004903E05FF0000901200600A9
:10137000B9F1000F11D0606819EB50006168B0FB43
:10138000F1F080B20500102D05D3B5F5803F02D2F3
:101390002068C56001E001200600002020660020D2
:1013A00060663000C0B2BDE8F08700002001000494
:1013B00000800040F369FFEF0038014088100240D0
:1013C00000440040004800400024F40090F824103D
:1013D000C90707D501684A6832F40032816A0A43B6
:1013E00001684A6090F82410890707D501684A68A7
:1013F00032F48032C16A0A4301684A6090F82410CE
:10140000490707D501684A6832F48022016B0A4314
:1014100001684A6090F82410090707D501684A68F6
:1014200032F40042416B0A4301684A6090F824108C
:10143000C90607D501688A6832F48052816B0A4375
:1014400001688A6090F82410890607D501688A68C7
:1014500032F40052C16B0A4301688A6090F824108C
:10146000490613D501684A6832F48012016C0A43B8
:1014700001684A60016CB1F5801F07D101684A68B4
:1014800032F4C002416C0A4301684A6090F82410AB
:10149000090607D501684A6832F40022816C0A43C4
:1014A00001684A60704738B504000020E067FFF724
:1014B00083FB05002068006800070DD57FF07E40A3
:1014C00000902B0000225FF40011200000F01FF8B4
:1014D000002801D0032019E02068006840070DD5DE
:1014E0007FF07E4000902B0000225FF480012000FE
:1014F00000F00DF8002801D0032007E020206067ED
:101500002020A067002084F87000002032BD2DE963
:10151000F04105000E0090461F00069C2868C06937
:101520003040B04201D1012000E000204146C9B264
:10153000884241D114F1010FF0D0FFF73DFBC01BF1
:10154000844201D3002C14D12868006830F4D07094
:101550002968086028688068400840002968886019
:10156000202068672020A867002085F870000320ED
:1015700023E0286800684007D0D52868C0690005C6
:10158000CCD54FF40060296808622868006830F400
:10159000D070296808602868806840084000296881
:1015A0008860202068672020A8672020E867002046
:1015B00085F87000032000E00020BDE8F08101689C
:1015C000096831F4907102681160016889684908FE
:1015D00049000268916020218167002101667047FF
:1015E00038B50400A56A0020A5F85A000020A5F827
:1015F0005200280000F07DF931BD000010B5040054
:101600002068006830F04000216808602020606792
:1016100000206066200000F087FA10BD70B505005C
:10162000B5F85C60A86F222826D12868808C040059
:1016300016EA0400696D0870686D401C6865B5F8AD
:101640005A00401EA5F85A00B5F85A00002819D1D2
:101650002868006830F490702968086028688068FD
:1016600040084000296888602020A867002028667C
:10167000280000F05BFA05E02868008B50F00800B5
:101680002968088370BDF8B50500B5F85C70A86FCF
:10169000222827D12868808C0400686D060017EA8C
:1016A00004003080686D801C6865B5F85A00401EE3
:1016B000A5F85A00B5F85A00002819D12868006822
:1016C00030F49070296808602868806840084000FD
:1016D000296888602020A86700202866280000F07C
:1016E00025FA05E02868008B50F008002968088377
:1016F000F1BD30B4002513E050F8042BD30744BFEC
:10170000A9F101039A18091F042942F8045BFAD2CF
:1017100013468C0744BF15809B1CC90748BF1D702A
:1017200050F8041B0029E7D130BC704780B5514800
:10173000514901605FF46121416000218160002115
:10174000C160002101610C21416100218161002102
:10175000C1610021016200214162FFF72BFB0028DB
:1017600001D000F0A1FA01BD80B5444844490160B0
:101770005FF461214160002181600021C16000218E
:1017800001610C214161002181610021C1610021C1
:10179000016200214162FFF70DFB002801D000F03B
:1017A00083FA01BD10B586B004006846142100F02C
:1017B0007DFA2068304988422AD13248016851F4C4
:1017C00080410160006810F48040059005982E4823
:1017D000016851F002010160006810F002000590FC
:1017E0000598C02000900220019001200290032063
:1017F0000390072004906946244800F05BFA002219
:1018000000212520FFF7A3FA2520FFF7B5FA2EE0E7
:1018100020681B4988422AD11D48016851F40031D3
:101820000160006810F400300590059816480168C2
:1018300051F001010160006810F001000590059869
:101840000C200090022001900120029003200390C0
:101850000720049069465FF0904000F02BFA0022C8
:1018600000212620FFF773FA2620FFF785FA06B03D
:1018700010BD00004004002000380140C0040020DA
:1018800000440040601002404C1002400004004838
:101890005810024038B50400002594F825000228AD
:1018A00004D00420E063012005001FE020680068E8
:1018B00030F00E0021680860206800684008400091
:1018C00021680860012094F8441011F01C01884040
:1018D000216C4860012084F82500002084F8240051
:1018E000A06B002802D02000A16B88472800C0B25E
:1018F00032BD704770470000BBBBE1B1B2F5803F1D
:1019000080F07E80022A1ED98C46B1FBF2F102FBE8
:1019100011C31B0443EA1043B3FBF2FC02FB1C336C
:1019200080B240EA0343B3FBF2F002FB103240EA1C
:101930000C4000237047022A05D98446B0FBF2F020
:1019400002FB10C270474AB105D100F001024908FC
:101950005FEA3000704700220023704700F0A4BA0D
:101960000B000200002100207047904271EB030C35
:10197000F6D3B3F5803F2FD2F0B5B3FA83F7B1FABF
:1019800081F4A7F10F0E3D1B5340CEF1200602FA61
:101990000EF2F3415340B5F10F0746D80F3C2C44EB
:1019A0004140C4F12006A040F1414140B1FBF3F6B3
:1019B00003FB1611A2FB0645001BA94102D2761EAD
:1019C0008018594180EA010221FA0EF362FA0EF200
:1019D00000215A403046F0BD30B4B1FBF3FC03FBAC
:1019E0001C11A2FB0C45001BA94103D2ACF1010C58
:1019F0008018594130BC02460B46604600217047B2
:101A0000B2F1807F65D3F0B5B2FA82F7B1FA81F412
:101A1000C7F10F063D1B22FA06F307F1110EF24142
:101A200020355A40B5F10F07B8D94140C4F120061E
:101A3000A040F1414140B1FBF3FC03FB1C11A2FBB0
:101A40000C45001BA94103D2BCF1010C801859417F
:101A50000F2F12D30F3FC90341EA5041B1FBF3F6F8
:101A600003FB1611A2FB0645D4EBC030A94102D2FC
:101A7000761E8018594146EACC3C07B34140C7F175
:101A80002006B840F1414140B1FBF3F603FB1611CB
:101A9000A2FB0645001BA94102D2761E80185941BF
:101AA00080EA010221FA0EF3C7F1200462FA0EF275
:101AB0000CFA07F05A402CFA04F13043F0BD80EAEA
:101AC000010221FA0EF3002162FA0EF260465A403A
:101AD000F0BD8C46B1FBF2F102FB11C31B0243EADD
:101AE0001063B3FBF2FC02FB1C331B024CEA002028
:101AF00043EA1063B3FBF2FC02FB1C331B024CEA0B
:101B0000002043EA1063B3FBF2FC02FB1C331B0210
:101B10004CEA002043EA1063B3FBF2FC02FB1C32E8
:101B20004CEA0020002370477047000038B50400DD
:101B300020685349884225D1524A534D5349087869
:101B40001388E8541088401C1080514B18780028E6
:101B50000AD11088042807DB01201870A878ED78D6
:101B600055EA00254B4805801878012806D14948D8
:101B700000881288904201D1062018700122464840
:101B8000FFF755F931BD80B500F090F900F01AF873
:101B900000F09EF900F0C6F9FFF7C8FDFFF7E4FD7D
:101BA00000F0EAF9012239493B48FFF740F938488B
:101BB0000178062901D100210170384800780128F8
:101BC000F5D0F4E700B5ADB005A8442100F06EF8FB
:101BD0006846142100F06AF816A85C2100F066F847
:101BE00000F010FA2E48016831F01801016005205C
:101BF00005905FF4803006900120079002200F903E
:101C000003201090012011901420129007201390AF
:101C1000022014900220159005A8FEF7B7FA0028BC
:101C200001D000F041F80F20009003200190002027
:101C30000290002003900020049004216846FEF7E3
:101C4000F2FD002801D000F02FF816481690002071
:101C50001E9000201F904FF480702C9016A800F06A
:101C6000D9F9002801D000F01FF84FF40070FEF7FA
:101C7000AFFF002801D000F017F82DB000BD000024
:101C800000380140B40500200C000020B9050020F8
:101C9000B8050020B605002040040020BA05002049
:101CA000901002400300020070470000002200F084
:101CB00001BC0000F8B4030000250868E8400028D3
:101CC00000F0DB8001260F6816FA05F007403A00A5
:101CD000002A00F0D0804868012808D0486802280F
:101CE00005D04868112802D0486812281DD19F6885
:101CF0005FF0030C2800C0B240001CFA00FC37EA79
:101D00000C07D1F80CC02800C0B240001CFA00FC3F
:101D10005CEA07079F605868AE40B0434E68C6F360
:101D20000016AE40304304005C60DE6803272800E4
:101D3000C0B2400017FA00F08643D1F808C028006E
:101D4000C0B240001CFA00FC5CEA0606DE6048688F
:101D5000022802D0486812281ED12800C00803EBD0
:101D60008000046A5FF00F0C15F00700C0B280001D
:101D70001CFA00FC34EA0C04D1F810C015F007007E
:101D8000C0B280001CFA00FC5CEA040426002800B3
:101D9000C00803EB800006621C682800C0B2400047
:101DA0008740BC430F7917F003072800C0B24000FA
:101DB00087403C431C604868C0005CD530480668DA
:101DC00056F001060660006810F0010000900098CF
:101DD0002C4F2800800857F820605FF00F0C15F09A
:101DE0000300C0B280001CFA00FC36EA0C06B3F116
:101DF000904F01D1002414E02348834201D10124F3
:101E00000FE02248834201D102240AE020488342A5
:101E100001D1032405E01F48834201D1042400E0DE
:101E2000072415F00300C0B2800084402643280038
:101E3000800847F82060184C206890434F68FF03E3
:101E400000D510432060154E346894434F68BF039B
:101E500000D514433460124E306890434F68FF023F
:101E600000D5104330600F4E346894434F68BF0272
:101E700000D5144334606D1C1FE7F1BC70470000AF
:101E800060100240080001400004004800080048BB
:101E9000000C004800100048000401400404014008
:101EA000080401400C0401407047000010B50024F4
:101EB0000320FEF746FF0020FEF74EFE002802D06A
:101EC0000120040001E000F00FFB2000C0B210BDB3
:101ED00081B01348016851F004010160016811F0FC
:101EE000040100910099016851F0800101600168CE
:101EF00011F0800100910099016851F00101016029
:101F0000016811F0010100910099016851F002018E
:101F10000160006810F002000090009801B0704766
:101F20004C10024080B51148114901600021416008
:101F30007F218160FF21C160002101610021416199
:101F4000002181610021C16100F0EAFA002801D07E
:101F5000FFF7AAFE01BD0168054A914204D1054977
:101F60000A6852F400420A60704700008C050020A5
:101F700000280040901002401FB568460021002252
:101F8000002380E80E001C4C1C4820604F2060603D
:101F90000020A0604FF47A70E0608020A0612000F3
:101FA00000F08CFB002801D0FFF77EFE002000909F
:101FB000002002906946200000F0C4FC002801D0F7
:101FC000FFF772FE1FBD1CB5040020680B49884254
:101FD00011D10B48016851F010010160006810F048
:101FE000100000900098002200213620FEF7AFFE7E
:101FF0003620FEF7C1FE13BD400500200010004052
:10200000581002400248016851F480710160704725
:10201000007000402DE9F84F050000275FF0000830
:102020002868000527D5686C00280DD0B0F5000F92
:1020300003D0B0F5400F0DD00DE0DFF8DC020168F1
:1020400051F48031016008E00021281D00F06EF994
:10205000070002E001E0012007003800C0B20028BC
:1020600008D1DFF8C4120A6832F44002686C0243F7
:102070000A6000E0B846286880037AD55FF000095E
:10208000DFF898A2DAF80000C0000DD4DAF80000FA
:1020900050F08050CAF80000DAF8000010F08050CC
:1020A0000090009801208146DFF874B2DBF8000050
:1020B00050F48070CBF80000FEF77EFD0600DBF8E0
:1020C0000000C00506D4FEF777FD801B0328F6D379
:1020D000032007003800C0B200283FD1DFF844B227
:1020E000DBF8000010F440700400002C15D0A86D3F
:1020F000844212D0DBF8000030F440700400DBF8BA
:10210000000050F48030CBF80000DBF8000030F421
:102110008030CBF80000CBF80040E0070FD5FEF789
:102120004BFD0600DBF80000800708D4FEF744FDF5
:10213000801B41F289318842F4D303200700380024
:10214000C0B2002808D1DBF8001031F44071A86D4E
:102150000143CBF8001002E0B84600E0B84648461C
:10216000C0B2012805D1DAF8000030F08050CAF87A
:1021700000002878C00707D5DFF8AC110A6892087C
:102180009200286A02430A602878800707D5DFF8A2
:1021900098110A6832F00C02686A02430A602878D3
:1021A000400707D5DFF880110A6832F03002A86ACC
:1021B00002430A602878800607D5DFF86C110A68A8
:1021C00032F44062E86A02430A602868800507D555
:1021D000DFF854110A6832F44022E86B02430A60C7
:1021E0002868400507D5DFF840110A6832F440122C
:1021F000286C02430A602878400607D5DFF82811CA
:102200000A6832F44052286B02430A6028780006BC
:1022100007D5DFF814110A6832F44042686B0243B4
:102220000A602868C00507D5DFF8FC100A6832F498
:102230004032A86B02430A602868000320D5DFF80B
:10224000E8100A6832F04062A86C02430A60A86C89
:10225000B0F1006F06D1DFF8C000016851F48011C1
:1022600001600DE0A86CB0F1806F09D10121281D3B
:1022700000F05CF807003800C0B2002800D0B84673
:102280002868400320D5DFF8A0100A6832F04062C9
:10229000E86C02430A60E86CB0F1006F06D1DFF829
:1022A0007800016851F4801101600DE0E86CB0F134
:1022B000806F09D10121281D00F038F8070038008F
:1022C000C0B2002800D0B8462868400415D5DFF811
:1022D00058100A6832F04052286D02430A60286D97
:1022E000B0F1805F09D10221281D00F01FF807001E
:1022F0003800C0B2002800D0B8462868000407D5CE
:10230000DFF824100A6832F08042686D02430A60E8
:102310004046C0B2BDE8F28F0C1002405810024097
:102320000070004090100240881002402DE9F041FA
:1023300005000C0000275949086810F0030F12D05F
:10234000086810F003002A68904209D12868002824
:1023500006D00868C0F30210401C6968884232D079
:10236000012007002FE02868012804D01BD3032890
:102370000FD007D317E04A480068800701D4012036
:10238000070012E046480068400501D4012007001C
:102390000BE043480268920304D40068400301D470
:1023A0000120070001E0012007003800C0B200282A
:1023B00009D10A6832F07302286802436868401E37
:1023C00052EA00120A603800C0B2002861D1DFF87A
:1023D000D080D8F8000030F08060C8F80000FEF728
:1023E000EBFB0600D8F80000000106D5FEF7E4FB81
:1023F000801B0328F6D3032007003800C0B2002852
:1024000047D1002C0BD127490A6827480240A86809
:1024100052EA0022E86852EAC0620A601CE0012C1D
:102420000DD120490A6821480240A86852EA0022DA
:1024300028694008401E52EA40520A600CE01949DF
:102440000A681B480240A86852EA002268694008EE
:10245000401E52EA40620A60D8F8000050F08060E6
:10246000C8F80000FEF7A8FB0600D8F8000000013D
:1024700006D4FEF7A1FB801B0328F6D30320070038
:102480003800C0B2002804D106490A68A86902438E
:102490000A603800C0B2BDE8F08100000C100240B4
:1024A0000010024010100240FF80FF07FF809FFFD6
:1024B000FF80FFF900B500BF13009646944610391F
:1024C00028BFA0E80C50FAD85FEA417C28BF0CC0B6
:1024D00048BF40F8042BC90728BF20F8022B48BF8B
:1024E00000F8012B00BD000081B00B48016851F0DD
:1024F00001010160006810F0010000900098074899
:10250000016851F080510160006810F08050009027
:10251000009801B0704700BF6010024058100240A0
:1025200038B504000125002C51D094F82100002872
:1025300005D1002084F820002000FFF70CFD0220C8
:1025400084F82100CA20216848625320216848622B
:10255000200000F059F805002800C0B2002836D14C
:1025600020688168DFF848010140206881602068A8
:102570008168626820690243A069024311432068B0
:102580008160E0682168086120680069A16850EAFC
:10259000014021680861200000F05CF80500280077
:1025A000C0B2002813D12068C06C80088000216868
:1025B000C8642068C16CE269606902431143206805
:1025C000C164FF2021684862012084F821002800AE
:1025D000C0B232BD38B504002068C06830F0A00039
:1025E0002168C860FEF7E8FA05002068C068800628
:1025F00008D4FEF7E1FA401B40F2E9318842F4D3F7
:10260000032000E0002032BD70B5040000262068E1
:10261000C06840061BD45FF0FF302168C860FEF739
:10262000CBFA05002068C068400610D43000C0B264
:1026300003280CD0FEF7C0FA401B40F2E931884273
:10264000F0D303200600032084F82100EAE73000DD
:10265000C0B270BD70B5040000251648016831F0A5
:1026600080010160144E306880060AD42000FFF714
:10267000B1FF002817D0032084F8210003200500B3
:1026800011E0306830F0200030602000FFF7A2FF3A
:10269000002804D0032084F82100032005003068BE
:1026A00050F0200030602800C0B270BD0000000073
:1026B000BFFF8FFF0C2800400828004010B5040021
:1026C000002C01D1012035E094F83D00002805D10F
:1026D000002084F83C002000FFF775FC022084F8FD
:1026E0003D00211D206800F0F0F8012084F848002A
:1026F000012084F83E00012084F83F00012084F886
:102700004000012084F84100012084F842000120AB
:1027100084F84300012084F84400012084F8450037
:10272000012084F84600012084F84700012084F845
:102730003D00002010BD10B504002068006980072E
:102740001AD52068C068800716D57FF0020021687E
:102750000861012020772068806910F0030F03D002
:10276000200000F02DF905E0200000F02AF92000FB
:1027700000F028F9002020772068006940071AD56A
:102780002068C068400716D57FF004002168086102
:10279000022020772068806910F4407F03D0200059
:1027A00000F00EF905E0200000F00BF9200000F029
:1027B00009F9002020772068006900071AD52068F1
:1027C000C068000716D57FF0080021680861042062
:1027D00020772068C06910F0030F03D0200000F0BC
:1027E000EFF805E0200000F0ECF8200000F0EAF837
:1027F0000020207720680069C0061AD52068C068CC
:10280000C00616D57FF010002168086108202077E7
:102810002068C06910F4407F03D0200000F0D0F899
:1028200005E0200000F0CDF8200000F0CBF80020FB
:10283000207720680069C0070AD52068C068C007F3
:1028400006D57FF0010021680861200000F0BBF888
:102850002068006900060AD52068C068000606D511
:102860007FF0800021680861200000F0ADF820684A
:102870000069C0050AD52068C068000606D57FF447
:10288000807021680861200000F09FF820680069CE
:1028900040060AD52068C068400606D57FF0400093
:1028A00021680861200000F091F820680069800626
:1028B0000AD52068C068800606D57FF02000216810
:1028C0000861200000F083F810BD10B40368DFF841
:1028D0006840A04202D0B0F1804F03D133F07003C2
:1028E0004A681343A0420AD0B0F1804F07D0DFF806
:1028F0004C20904203D0DFF84820904203D133F4BB
:102900004073CA68134333F080034A69134303607A
:102910008A68C2620A688262A04207D0DFF81C207F
:10292000904203D0DFF81820904201D10A69026377
:102930000122426110BC7047002C01400040014060
:102940000044014030B4020092F83C00012801D15B
:1029500002202FE0012082F83C00022082F83D0096
:102960001068436810688468134D1068A84203D14A
:1029700033F470034868034333F07003086803437B
:10298000106843601068A84207D01068B0F1804F0B
:1029900003D01068094DA84205D134F0800488683E
:1029A000044310688460012082F83D00002082F812
:1029B0003C00002030BC7047002C0140004001402A
:1029C000704770477047704770477047704770474F
:1029D0001048016851F4700101600F49086850F017
:1029E0000100086000200D4A10600A680C4802408F
:1029F0000A604FF480500B4A1060086830F4802061
:102A000008600020084908605FF00060074908601E
:102A10007047000088ED00E00010024008100240FE
:102A2000FFFFF6EA0C1002401810024008ED00E02B
:102A30007047FEE7FEE7FEE7FEE770477047704726
:102A400080B500F017F801BD80B50748FEF762FABF
:102A500001BD80B50548FEF75DFA01BD80B50448AB
:102A6000FFF769FE01BD000040040020C004002003
:102A70004005002003480168034A12788918016064
:102A8000704700BFB005002008000020A0860100AC
:102A9000400D0300801A060000350C0040420F0074
:102AA00080841E0000093D0000127A000024F4001A
:102AB00000366E010048E801006CDC0230B450F8CA
:102AC000041B79B10268436802440830DC0744BF44
:102AD000A9F10104E31852F8045B43F8045B091FF1
:102AE000F9D1ECE730BC704710B50749794418318B
:102AF000064C7C44163404E00A68081D11448847DB
:102B00000146A142F8D110BD2C0000004C0000008D
:102B10004EF68851CEF20001086840F4700008605B
:102B2000BFF34F8FBFF36F8F4FF00070E1EE100ACD
:102B300070470000BFEBFFFFB00500000C00002055
:102B40000000000079FFFFFF0C0000008000000083
:102B5000000000200000000000F00DF8002801D067
:102B6000FFF7C2FFAFF300800020AFF30080FFF754
:102B70000AF800F002F80120704700F001B80000E8
:102B80000746384600F002F8FBE7000080B5AFF3D7
:102B90000080024A11001820ABBEFBE726000200AD
:102BA00000000000000000000102030406070809FD
:102BB0000148804701480047D1290008C12B00087F
:102BC000AFF30080FFF7A4FFFFF7C6FF100000007F
:102BD00000093D00010000000000000001020304A4
:102BE000FFF7FEBFFFF7FEBFFFF7FEBFFFF7FEBF19
:102BF000FFF7FEBFFFF7FEBFFFF7FEBFFFF7FEBF09
:102C0000FFF7FEBFFFF7FEBFFFF7FEBFFFF7FEBFF8
:102C1000FFF7FEBFFFF7FEBFFFF7FEBFFFF7FEBFE8
:102C2000FFF7FEBFFFF7FEBFFFF7FEBFFFF7FEBFD8
:102C3000FFF7FEBFFFF7FEBFFFF7FEBFFFF7FEBFC8
:102C4000FFF7FEBFFFF7FEBFFFF7FEBFFFF7FEBFB8
:102C5000FFF7FEBFFFF7FEBFFFF7FEBFFFF7FEBFA8
:102C6000FFF7FEBFFFF7FEBFFFF7FEBFFFF7FEBF98
:102C7000FFF7FEBFFFF7FEBFFFF7FEBFFFF7FEBF88
:102C8000FFF7FEBFFFF7FEBFFFF7FEBFFFF7FEBF78
:102C9000FFF7FEBFFFF7FEBFFFF7FEBFFFF7FEBF68
:102CA000FFF7FEBFFFF7FEBFFFF7FEBFFFF7FEBF58
:102CB000FFF7FEBFFFF7FEBFFFF7FEBFFFF7FEBF48
:102CC000FFF7FEBFFFF7FEBFFFF7FEBFFFF7FEBF38
:042CD000FFF7FEBF4D
:0400000508002BC103
:00000001FF
