:020000040800F2
:10000000D00B0020D14600085D4500085F45000880
:1000100061450008634500086545000800000000D0
:10002000000000000000000000000000674500081C
:1000300069450008000000006B4500086D45000898
:10004000F5460008F9460008FD460008014700088B
:1000500005470008094700080D4700081147000838
:1000600015470008194700081D47000821470008E8
:1000700025470008294700082D4700083147000898
:1000800035470008394700083D4700084147000848
:1000900045470008494700084D47000851470008F8
:1000A00055470008594700085D47000861470008A8
:1000B00065470008000000000000000069470008D4
:1000C0006D47000871470008754700087947000828
:1000D0007D470008754500087F45000881470008F6
:1000E0008547000889470008000000000000000064
:1000F0000000000000000000000000000000000000
:10010000000000008D470008000000009147000833
:100110000000000000000000894500089547000825
:10012000994700089D470008A1470008A547000817
:10013000A9470008000000000000000000000000C7
:10014000AD470008B1470008B547000800000000AF
:10015000B9470008BD470008C1470008C547000867
:10016000C9470008CD470008D1470008000000003B
:10017000D5470008D9470008000000000000000033
:10018000DD470008E1470008E547000800F5E0709A
:100190000268914203D343681A44914202D38068B3
:1001A0000028F5D17047DFF86C17086890B94FF454
:1001B000805048604FF480324FF0FF30C8600861D3
:1001C0000420DFF854378A604861C3F8BC01DFF8C7
:1001D0004C0708600120704701F1080313F0070F76
:1001E0000EBF0023C3F1080303F007031944D21A1A
:1001F0008161C26042F001034B60091D4FF0280C81
:1002000041F802C0DFF80C271369C36170472DE97C
:10021000FC4B074601F1080010F0070F0FBF89469D
:10022000C0F1080000F0070001EB000902F108012D
:1002300011F0070F06D002F10800C0F1080000F02D
:10024000070002441546A5EB090009EB0306A0EBE5
:10025000030B43F00303C9F80430AE4228BF01F09A
:1002600005FA2879C10758BF01F000FABBF1100F59
:1002700038BF01F0FBF9B869854208D1F9688B44B1
:10028000C7F80CB0BE614BF00100706051E17869B5
:1002900085420AD1B9688B44C7F808B07E614BF03B
:1002A0000100706046F80BB043E1686800F003019C
:1002B000012940F0AC80C008C0000190C0081F2890
:1002C00039D8AC68D5F80C800090454508BF01F0DE
:1002D000CDF9A54208BF01F0C9F968680099C008C6
:1002E000C000B0EBC10F18BF01F0C0F9009907F1D1
:1002F000280000EBC100844206D039698C42C0F06E
:100300008180E268AA427DD1A04506D10098396873
:10031000012383409943396076E0804506D03969EE
:1003200088456FD3D8F80800A8426BD1C4F80C8078
:10033000C8F8084068E0EC68D5F81880AC420CD0EA
:10034000A8683969884223D3C268AA4204BFA16859
:10035000A9421DD1C460A0601CE005F114010C6825
:1003600034B905F110010C68A4B101E011460C6824
:1003700004F114021068002802BF04F11002106892
:100380000028F3D13869814202D300220A6001E0DB
:1003900001F06CF9B8F1000F36D0E96907F59870F3
:1003A00000EB81000268954208D10460A4B9E869B5
:1003B0007968012282409143796025E0386980455F
:1003C00008D3D8F81010A94214BFC8F81440C8F8D0
:1003D000104001E001F04AF9B4B139698C4211D3FF
:1003E000C4F81880286928B1884226BF206184613A
:1003F00001F03CF9686938B13969884202D360611B
:10040000846101E001F032F901996D188B4469684B
:100410004908490069604BF0010070604FEADB0455
:1004200046F80BB01F2C23D807F1280000EBC408B6
:100430004546BBF1100F38BF01F018F9386820FAB3
:1004400004F1CA0705D4012101FA04F404433C6015
:1004500007E0D8F80800396988422CBF054601F04A
:1004600005F9C8F80860EE60B560C6F80C8060E079
:100470005FEA1B2008BF002123D0B0F5803F28BFD2
:100480001F211ED2A0F58072120C02F008029040CB
:10049000A0F58051090C01F004018840A0F58043CB
:1004A0001B0CC2F10E0203F00203521AD21A98403A
:1004B00002EBD032D01D2BFA00F101F0010101EB6B
:1004C0004201F161002307F59872736102EB81002C
:1004D00033617A6822FA01F3DC0707D4012303FAB7
:1004E00001F1114379600660B0611DE002681F29C7
:1004F0001DBF4908C1F119010BFA01F1594600E08D
:1005000002465068C008C000584516D002F11003DA
:10051000C80F03EB8003490018680028F0D1386940
:10052000834204D31E60B261F660B66001E001F060
:100530009DF809F10800BDE8F68B396990688A4298
:1005400028BF8842F3D3C6609660B060F260002096
:10055000B061EEE72DE9FE4F04468B46A5692E46B5
:10056000904699463146FFF711FE0268416802EB5A
:10057000010AAAF1270111F007000EBF0021C1F105
:10058000080101F007010AEB0100A0F12F0706F1B5
:1005900010018F4238BF374607F11802002101923F
:1005A0000091A8F1280259462046FFF715FE07F1F1
:1005B000080010F0070F18BF01F058F81B207860F2
:1005C00007F1080104F5E07090E80C5081E80C5048
:1005D000C0F800B0C0F80480C0F80C908160072219
:1005E0000198009900E0001D491C00F108035345E3
:1005F0004260F8D30129D8BF01F038F8B74200F0C3
:100600009580BF1B301D321DC15949084900D15189
:1006100047F0010070604FEAD70BF751BBF11F0F95
:1006200021D804EBCB0000F12805A846102F38BFD5
:1006300001F01CF8206820FA0BF1CA0705D401214B
:1006400001FA0BF10843206006E0A868216988429E
:100650002CBF804601F00AF8AE60C8F80C60C6F8FE
:100660000880F5606FE0380A08BF002123D0B0F59C
:10067000803F28BF1F211ED2A0F58072120C02F00D
:1006800008029040A0F58051090C01F00401884057
:10069000A0F580431B0CC2F10E0203F00203521AB4
:1006A000D21A984002EBD032D01D27FA00F101F0A7
:1006B000010101EB420104EB8102002302F5987075
:1006C000F16173613361626822FA01F3DB0707D4D9
:1006D000012303FA01F1114361600660B0611DE07E
:1006E00002681F291DBF4908C1F1190107FA01F16C
:1006F000394600E002465068C008C000B84216D033
:1007000002F11003C80F03EB8003490018680028AA
:10071000F0D12069834204D31E60B261F660B560F7
:1007200011E003B0BDE8F04F00F0A0BF0BE021697D
:1007300090688A4228BF8842F3D3C6609560B06053
:10074000F2600020B06103B0BDE8F08F2DE9F04108
:10075000704F05463868884608B9FFF724FDB96828
:1007600001EB08002F30491E20EA010188457DD2A7
:1007700005F5D876B06828B1326889188A4275D2F2
:10078000884273D300F092FF01001CBF0C6811F186
:10079000010F6BD03068201805F5D87230605368AF
:1007A000984238BF18467060A86960BB286908B1D4
:1007B000814200D22961316174610020F0614FF003
:1007C000FF303A686A62286205F128020020D26090
:1007D000926002F1080757611761801C10322028CF
:1007E000F5D34D48854208BFA4F1280228D055F81A
:1007F000040CC00805EBC002A2F108000A19121A85
:10080000283A01461CE005F5E070024600E09268D7
:100810007AB3136857681F44B942F8D1137B1F0796
:1008200027D4AB691768BB4223D3D2F804C067440E
:10083000BB421ED2A444C2F804C0E868A9692218C9
:100840002846FFF7C9FC1FE08068C0B103689342E7
:10085000FAD1027B130712D4026801604368E418DE
:10086000446043462846BDE8F041D0E40020BDE89E
:10087000F0812A69914238BF29610A19E5E700230E
:1008800022462846FFF766FEE8688045EED2A0EBD8
:100890000800A969E86001EB0802AA6140F00100C4
:1008A000506048F00300486001F10800BDE8F081A5
:1008B00030B4184B1A6882B94FF480525A604FF422
:1008C00080344FF0FF32DA601A610422124D9C60CE
:1008D0005A61C5F8BC21114A1A6011F1400F17D2B4
:1008E0008269AAB1C368283199420BD200F5E07140
:1008F0000C68A24203D34D682C44A24202D38968FB
:100900000029F5D1C16999423CBF4FF0FF32C26165
:1009100000F0A8BEA8070020600400206859883CA9
:100920002DE9F84F00258946090AC9F1000B08BFD7
:10093000002323D0B1F5803F28BF1F231ED2A1F58D
:100940008072120C02F008029140A1F580531B0C3A
:1009500003F004039940A1F58044240CC2F10E0277
:1009600004F00204D21A121BA14002EBD132D11DB5
:1009700029FA01F303F0010303EB4203074607F5ED
:10098000987858F8230030B31F2B0FBF4C465C08F3
:10099000C4F1190409FA04F4AC46594600E06400B5
:1009A0004268D208D200A2EB09028A4203D21100A7
:1009B000054600F06981426910304FEAD47B50F857
:1009C0002B00002A1CBF824294460028E7D18B46A8
:1009D0006046B0BBBDBB012202FA03F35B00584284
:1009E000796803430B4000F04E81584203405B1E80
:1009F000180B00F01000C340590901F00801CB406A
:100A00009A0802F00402D3405C0804F002040818BB
:100A1000E3401018C3F3400620183044F3401B187D
:100A200058F823000DE008464168C908C900A1EB49
:100A3000090159453CBF8B46054601690029F2D1A1
:100A400040690028F0D1002D00F01D81B868A0EBAE
:100A50000900834580F0178139698D42C0F011810A
:100A60006868C008C00009EB0B01884218BF00F09D
:100A7000FDFD05EB0906B54280F00381EC68D5F871
:100A800018A0AC420CD0A8683969884223D3C26848
:100A9000AA4204BFA168A9421DD1C460A0601CE0A5
:100AA00005F114010C6834B905F110010C68A4B10A
:100AB00001E011460C6804F114021068002802BF1E
:100AC00004F1100210680028F3D13869814202D382
:100AD00000220A6001E000F0C9FDBAF1000F36D033
:100AE000E86908EB800001688D4209D104602000AC
:100AF00014D1E8697968012282409143796026E047
:100B00003869824508D3DAF81010A94214BFCAF830
:100B10001440CAF8104001E000F0A8FDBCB13869EB
:100B2000844212D3C4F818A0286930B139698842C8
:100B300026BF2061846100F099FD686938B1396988
:100B4000884202D36061846101E000F08FFDBBF157
:100B5000100F0CD2D94449F00300291D6860281DEC
:100B600051F8092042F0010240F8092088E049F0DC
:100B7000030068604BF0010070604FEADB0046F84C
:100B80000BB01F281DD807EBC00101F128043968FC
:100B900021FA00F2D307A34605D4012202FA00F09D
:100BA0000843386006E0A068396988422CBF834654
:100BB00000F05CFDA660CBF80C60C6F808B0F460ED
:100BC0005EE05FEA1B2008BF002123D0B0F5803F24
:100BD00028BF1F211ED2A0F58072120C02F008025D
:100BE0009040A0F58051090C01F004018840A0F567
:100BF00080431B0CC2F10E0203F00203521AD21AF8
:100C0000984002EBD032D01D2BFA00F101F0010127
:100C100001EB4201F16100227261326108EB810057
:100C20007A6822FA01F4E30707D4012404FA01F1F7
:100C3000114379600660B0611DE002681F291DBF85
:100C40004908C1F119010BFA01F1594600E00246C9
:100C50005068C008C000584518D002F11003C80FF2
:100C600003EB8003490018680028F0D138698342FB
:100C700004D31E60B261F660B66001E000F0F6FCDD
:100C800014E100F0F3FC0EE18B46A2E639699068AE
:100C90008A4228BF8842F1D3C6609660B060F26095
:100CA0000020B061ECE72DE9F84F064688467168F0
:100CB00048420140491E080B00F01000C1404A099B
:100CC00002F00802D1408B0803F00403D9404D081C
:100CD00005F002051018E9401818C1F3400428185F
:100CE00006F5987A2044E14009185AF8211048681E
:100CF000C008C0000D46A0EB080909E0014648689D
:100D0000C008C000A0EB080048453CBF81460D4626
:100D100008690028F2D149690029F0D1306985427B
:100D2000C0F0BF806968C90808EB090BC9005945C4
:100D300018BF00F09BFC05EB08008542009080F096
:100D4000B080EF68AC69AF420CD0A86831698842C6
:100D500023D3C268AA4204BFB968A9421DD1C760A3
:100D6000B8601CE005F114010F6837B905F11001F6
:100D70000F68A7B101E011460F6807F1140210686F
:100D8000002802BF07F1100210680028F3D1306973
:100D9000814202D300220A6001E000F067FC002CCF
:100DA00031D0E8690AEB800001688D4208D1076004
:100DB0008FB9E8697168012282409143716022E035
:100DC0003069844205D32169A94214BF6761276154
:100DD00001E000F04BFCB7B13069874211D3BC6130
:100DE000286930B13169884226BF3861876100F0D7
:100DF0003DFC686938B13169884202D37861876106
:100E000001E000F033FCB9F1100F0BD24BF00300FE
:100E1000291D6860281D51F80B2042F0010240F89E
:100E20000B203DE048F003012A1D696049F00100F4
:100E300042F80800009941F80990D6F808804FEA76
:100E4000D80BBBF1200F28BF00F010FCB8F1000F49
:100E500022D006EBCB00776900F12804A246B8F156
:100E6000100F38BF00F002FC306820FA0BF1CA07FF
:100E700005D4012101FA0BF10843306006E0A068B7
:100E8000316988422CBF824600F0F0FBA760CAF8A7
:100E90000C70C7F808A0FC60C6F808900098706154
:100EA00004E000F0E3FB0020BDE8F28F05F108004C
:100EB000BDE8F28F2DE9FE4F0546AFF30080F52D1A
:100EC000DFF89C6780F004810B2D31BF10250B35B6
:100ED000ED08ED003068EC08E04010F0030F46D05C
:100EE000C04300F00100041906F1280000EBC4081B
:100EF000E700D8F808506868C008C000B84218BFBA
:100F000000F0B4FBD5F80890454508BF00F0AEFBF3
:100F10004D4508BF00F0AAFB6868C008C000B84291
:100F200018BF00F0A3FBC84507D13068012101FAC2
:100F300004F420EA040434600DE03069814508D3EC
:100F4000D9F80C10A94204D1C8F80890C9F80C804F
:100F500001E000F08BFB47F00300291D6860281DAD
:100F6000CA5942F00102C25105F10804F8E0B16823
:100F7000A94280F0BE80002800F0A1804FF0010857
:100F800008FA04F1490000FA04F4484201430C4015
:100F900060420440641E200B00F01000C440610950
:100FA00001F00801CC40A20802F00402D44063081A
:100FB00003F002030818DC401018C4F340071818A7
:100FC0003818FC40241806F1280000EBC40AE7009A
:100FD000DAF80890D9F80400C008C000B84218BF79
:100FE00000F044FBD9F808B0D14508BF00F03EFB43
:100FF000D94508BF00F03AFBD9F80400C008C0008A
:10100000B84218BF00F032FBDA4506D1306808FA62
:1010100004F420EA040434600DE031698B4508D300
:10102000DBF80C00484504D1CAF808B0CBF80CA096
:1010300001E000F01BFB7F1B45F0030009F10402F7
:10104000C9F8040047F00101515109EB0502019272
:10105000D751B4684FEAD40ABAF1200F28BF00F084
:1010600005FB34B3CDF800A006F12800756900EB4C
:10107000CA0AD346102C38BF00F0F8FA316800983D
:1010800021FA00F2D30704D408FA00F008433060D4
:1010900007E0DAF80800316988422CBF834600F087
:1010A000E5FACAF80850CBF80C50C5F808B0C5F8F6
:1010B0000CA0B76009F108040198706150E07068F5
:1010C000C0B329463046FFF7EEFD040011D047E0DB
:1010D00015F1400F28BF4FF0FF350AD20B35ED0850
:1010E0007068ED0028B129463046FFF719FC04006E
:1010F00036D1B068A8421DD3411B726910290AD3AA
:1011000050197061B16041F001034360415045F0F6
:10111000030555600BE00021B1607161131D40F0C3
:1011200003015160111D1C5844F001040C5002F1E0
:10113000080415E0F06885420DD2401BB169F060EB
:101140004A19B26140F00100506045F003054D605E
:1011500001F1080404E029463046FFF7F7FA044697
:10116000AFF300802046FFF7EEBA002800D17047A9
:101170002DE9F047A0F10805AFF30080DFF8E06447
:1011800031698D42C0F05982686800F00302012A7B
:1011900000F05382C2084FEAC209C20705EB0908F2
:1011A00039D42C6810F0030F00F0498260420544E6
:1011B0008D42A144C0F041827069854200F0C68032
:1011C000E408202C5ED2D5F80CA0AF68554508BFC6
:1011D00000F04CFABD4208BF00F048FA6868C00849
:1011E000C000B0EBC40F18BF00F040FA06F12800B1
:1011F00000EBC400874205D031698F423FD3FA68C3
:10120000AA423CD1BA452CD13068012101FA04F43C
:1012100020EA04043460454580F00F82D8F8044089
:10122000E00740F10A82A10700F16881B0698045BA
:1012300040F09F80F168B5618944C6F80C9049F090
:101240000100686071698D4202D100207061B06058
:10125000F069484580F0F38100213046FFF728FB14
:10126000EDE1824506D03069824508D3DAF80810EE
:10127000A94204D1C7F80CA0CAF80870CBE700F067
:10128000F5F9C8E7EC68AF69AC420BD0A8688842B2
:1012900022D3C168A94204BFA268AA421CD1C4607B
:1012A000A0601BE005F11402146834B905F11002C6
:1012B00014689CB101E01A46146804F1140318681C
:1012C000002802BF04F1100318680028F3D18A42F5
:1012D00002D30021116001E000F0C8F9002F9AD07C
:1012E000E96906F5987000EB81000268954209D122
:1012F0000460200011D1E8697168012282409143A5
:10130000716088E73069874205D33969A94214BF03
:101310007C613C6101E000F0A9F9002C3FF47BAF57
:1013200031698C42ABD3A761286928B1884226BFB6
:101330002061846100F09AF9686900283FF46BAF7E
:10134000316988429BD36061846164E798F8040046
:1013500000F0030003287FF45EAFC6F8089049F060
:101360000101D8F8040040084000C8F80400696092
:101370000AE0706980450AD1B16875618944C6F890
:10138000089049F00100686045F8099057E1E408C9
:10139000E400A144E408202C3AD2D8F80CA0D8F8F4
:1013A0000870D04508BF00F061F9B84508BF00F0EB
:1013B0005DF9D8F80400C008C000B0EBC40F18BF36
:1013C00000F054F906F1280000EBC400874207D072
:1013D00031698F42C0F08580FA68424540F08180D3
:1013E000BA4507D13068012101FA04F420EA040467
:1013F000346078E0824506D03069824571D3DAF8EE
:10140000081041456DD1C7F80CA0CAF808706AE011
:10141000D8F80C40D8F8187044450DD0D8F808001A
:101420003169884223D3C268424504BFA16841455F
:101430001DD1C460A0601CE008F114010C6834B92F
:1014400008F110010C68A4B101E011460C6804F128
:1014500014021068002802BF04F11002106800286E
:10146000F3D13069814202D300220A6001E000F02A
:10147000FDF8002F37D0D8F81C1006F5987000EB57
:101480008100026890450AD10460200012D1D8F88A
:101490001C007168012282409143716023E0306931
:1014A000874205D33969414514BF7C613C6101E045
:1014B00000F0DCF8BCB131698C4212D3A761D8F8D6
:1014C000100028B1884226BF2061846100F0CEF868
:1014D000D8F8140038B13169884202D36061846160
:1014E00001E000F0C3F849F00100686045F8099098
:1014F00071698D420BD1C6F80890A0E064086400C1
:10150000C8F8044049F00100686045F809904FEAC6
:10151000D907202F22D206F1280000EBC704A046ED
:10152000B9F1100F38BF00F0A1F8306820FA07F1C8
:10153000CA0705D4012101FA07F70743376006E01F
:10154000A068316988422CBF804600F08FF8A56002
:10155000C8F80C50C5F80880EC6070E05FEA19200C
:1015600008BF002123D0B0F5803F28BF1F211ED225
:10157000A0F58072120C02F008029040A0F5805194
:10158000090C01F004018840A0F580431B0CC2F156
:101590000E0203F00203521AD21A984002EBD03224
:1015A000D01D29FA00F101F0010101EB420106F51D
:1015B0009872002302EB8100E9616B612B61726814
:1015C00022FA01F3DC0707D4012303FA01F11143E6
:1015D00071600560A8611DE002681F291DBF4908F0
:1015E000C1F1190109FA01F1494600E002465068CB
:1015F000C008C000484526D002F11003C80F03EB15
:101600008003490018680028F0D13069834204D370
:101610001D60AA61ED60AD6001E000F027F8306A5E
:10162000401E30620BD1D6F8C80100E08068002867
:10163000FCD14FF0FF30306201E000F017F8AFF35B
:101640000080BDE8F087316990688A4228BF8842EF
:10165000E3D3C5609560A860EA600020A861DEE77A
:101660006004002030BC002070470000012000F022
:1016700033B830B4002513E050F8042BD30744BF2F
:10168000A9F101039A18091F042942F8045BFAD250
:1016900013468C0744BF15809B1CC90748BF1D70AB
:1016A00050F8041B0029E7D130BC7047074908688F
:1016B00008B1002070470648C008C000086005490E
:1016C000C908C900091A0160704700BFC40700209B
:1016D000D70B0020D00D002080B5AFF30080024A68
:1016E00011001820ABBEFBE7260002002DE9FE4FDB
:1016F0000500002D01D1012043E3DFF8E898D9F877
:10170000004014F00C04DFF8E888D8F8007017F0F7
:1017100003072878C00640F1C680002C03D00C2CAB
:101720007AD1012F78D1DFF8B8A8DAF80000800765
:1017300004D5A869002801D1012022E3DAF80000CD
:10174000000704D5DAF8000010F0F00005E0DFF83B
:1017500030090068000910F0F000296A88421ED2A2
:10176000286A00F047FC002801D0012009E3DAF8DC
:10177000000050F00800CAF80000DAF8001031F05C
:10178000F001286A0143CAF80010DFF8F808016880
:1017900031F47F41EA6951EA022101601FE0DAF881
:1017A000000050F00800CAF80000DAF8001031F02C
:1017B000F001286A0143CAF80010DFF8C808016880
:1017C00031F47F41EA6951EA02210160002C06D11F
:1017D000286A00F00FFC002801D00120D1E200F0BF
:1017E00078FBDFF8A418D9F80020C2F30312895C53
:1017F00011F01F01C840DFF8F0170860DFF8EC07B0
:10180000006800F059FC8DF800009DF800000028E9
:1018100049D09DF80000B4E2A86900282DD0DFF877
:10182000C097D9F8000050F00100C9F8000000F09E
:1018300073FC0600D9F80000800706D400F06CFCA9
:10184000801B0328F6D303209BE2D9F8000050F058
:101850000800C9F80000D9F8001031F0F001286A3A
:101860000143C9F80010DFF81C08016831F47F411A
:10187000EA6951EA0221016015E0DFF86497D9F8BE
:10188000000040084000C9F8000000F045FC0600D8
:10189000D9F80000800706D500F03EFC801B032825
:1018A000F6D303206DE22878C00754D5082C03D066
:1018B0000C2C0BD1032F09D1DFF82407006880031B
:1018C00049D56868002846D101205AE26868B0F519
:1018D000803F06D1DFF80807016851F480310160CC
:1018E00018E06868B0F5A02F0AD1DFF8F4060168A7
:1018F00051F480210160016851F48031016009E0F8
:10190000DFF8DC06016831F480310160016831F4F0
:1019100080210160686800280ED000F0FDFB060001
:10192000DFF8BC060068800315D400F0F5FB801BCF
:101930006528F5D3032024E200F0EEFB0600DFF873
:10194000A0060068800306D500F0E6FB801B652832
:10195000F5D3032015E22878800752D5042C03D054
:101960000C2C15D1022F13D1DFF874060068400546
:1019700004D5E868002801D1012002E2DFF804075D
:10198000016831F0FE412A6951EA0261016038E0E4
:10199000E86800281FD0DFF84896D9F8000050F416
:1019A0008070C9F8000000F0B7FB0600D9F800000D
:1019B000400506D400F0B0FB801B0328F6D30320BB
:1019C000DFE1DFF8C006016831F0FE412A6951EA23
:1019D0000261016015E0DFF80896D9F8000030F4E4
:1019E0008070C9F8000000F097FB0600D9F80000ED
:1019F000400506D500F090FB801B0328F6D303209A
:101A0000BFE1287800072ED56869002815D0DFF8D7
:101A10007096D9F8000050F00100C9F8000000F0FD
:101A20007BFB0600D9F8000080071CD400F074FB93
:101A3000801B0328F6D30320A3E1DFF84496D9F8EE
:101A4000000040084000C9F8000000F065FB0600F7
:101A5000D9F80000800706D500F05EFB801B032844
:101A6000F6D303208DE12878400740F181805FF0B4
:101A70000009DFF818A6DAF80000C0000DD4DAF883
:101A8000000050F08050CAF80000DAF8000010F0B2
:101A900080500190019801208146DFF8F4B5DBF811
:101AA0000000C00513D4DBF8000050F48070CBF8C0
:101AB000000000F031FB0600DBF80000C00506D492
:101AC00000F02AFB801B0328F6D3032059E1A86805
:101AD000012806D1DFF8BC05016851F00101016061
:101AE00017E0A86805280AD1DFF8A805016851F0B9
:101AF00004010160016851F00101016009E0DFF8B3
:101B000094050168490849000160016831F0040149
:101B10000160A868002810D000F0FEFA0600DFF887
:101B200074050068800719D400F0F6FA801B41F2B2
:101B300089318842F3D3032023E100F0EDFA060057
:101B4000DFF850050068800708D500F0E5FA801B33
:101B500041F289318842F3D3032012E14846C0B2F2
:101B6000012805D1DAF8000030F08050CAF80000F2
:101B7000287880062ED5686A002815D0DFF81895D9
:101B8000D9F8000050F00100C9F8000000F0C4FAD4
:101B90000600D9F8000080071CD400F0BDFA801BB5
:101BA0000328F6D30320ECE0DFF8EC94D9F800002A
:101BB00040084000C9F8000000F0AEFA0600D9F86D
:101BC0000000800706D500F0A7FA801B0328F6D393
:101BD0000320D6E0A86A002800F0D280A86A022874
:101BE00040F0A380D8F80000070017F00300E96A6E
:101BF000884222D117F07000296B491EB0EB011FFB
:101C00001BD117F4FE40696BB0EB012F15D117F013
:101C10007840A96BB0EBC16F0FD117F4C000E96B2E
:101C20004908491EB0EB415F07D117F0C060296C2D
:101C30004908491EB0EB416F57D00C2C53D0DFF848
:101C4000A0A3DAF80000400101D5012099E0DAF8FC
:101C5000000030F08070CAF8000000F05DFA8146A4
:101C6000DAF80000800107D500F056FAB0EB090061
:101C70000328F5D3032084E0D8F80010DFF81C0413
:101C80000140E86A0143286B401E51EA0011686B6D
:101C900051EA0021E86B4008401E51EA4051286C8F
:101CA0004008401E51EA4061A86B51EAC061C8F883
:101CB0000010DAF8000050F08070CAF80000D8F880
:101CC000000050F08070C8F8000000F025FA06000F
:101CD000DAF80000800153D400F01EFA801B0328BC
:101CE000F6D303204DE001204BE0DFF8F492D9F861
:101CF0000000800144D4D9F8000050F08070C9F889
:101D00000000D8F8000050F08070C8F8000000F023
:101D100003FA0600D9F80000800131D400F0FCF984
:101D2000801B0328F6D303202BE00C2C26D0DFF8F1
:101D3000B092D9F8000030F08070C9F80000D9F8EE
:101D40000000000105D4D8F8000080088000C8F821
:101D50000000D8F80010DFF848030140C8F8001070
:101D600000F0DAF90600D9F80000800108D500F08B
:101D7000D3F9801B0328F6D3032002E0012000E002
:101D80000020BDE8FE8F2DE9F04104000D00002C7D
:101D900001D101209BE0DFF80C73386810F00700D8
:101DA000A8420BD23868C008C000284338603868A1
:101DB00010F00700A84201D0012088E02078C00779
:101DC00042D56068032806D1DFF81402006880015C
:101DD0001CD401207BE06068022806D1DFF80002F5
:101DE0000068800312D4012071E06068002806D1E9
:101DF000DFF8EC010068800708D4012067E0DFF815
:101E0000E0010068400501D4012060E0DFF8D481E2
:101E1000D8F800108908890060680143C8F80010EC
:101E200000F07AF90600D8F8000010F00C006168A4
:101E3000B0EB810F08D000F06FF9801B41F28931BF
:101E40008842F0D3032042E02078800706D5654918
:101E50000A6832F0F002A06802430A60386810F0A5
:101E6000070085420BD23868C008C000284338609C
:101E7000386810F00700A84201D0012027E0207840
:101E8000400706D557490A6832F4E062E068024329
:101E90000A602078000707D55248016831F4605184
:101EA000226951EAC201016000F013F8DFF8D8118D
:101EB0004C4A1268C2F30312895C11F01F01C8403A
:101EC000494908604948006800F0F6F8C0B2BDE82A
:101ED000F0812DE9F041002600204249096811F007
:101EE0000C01DFF80CC1DCF8007017F003070029C3
:101EF00003D00C291AD1012F18D1DFF8E4E0DEF865
:101F000000805FEA087806D4DFF874E1DEF800E0CC
:101F1000CEF3032E03E0DEF800E0CEF3031E624EA4
:101F200056F82E6000290CD130000AE0042903D1B4
:101F3000DFF878E1704604E0082902D1DFF870E1AB
:101F400070460C292DD1DCF800E01EF0030E73461C
:101F50009E46BEF1020F03D0BEF1030F03D005E091
:101F6000DFF848E103E0DFF848E100E0B646DCF8DE
:101F70000020C2F30212521C1500DCF80020C2F34C
:101F8000062202FB0EFEBEFBF5F2DCF800C0CCF32D
:101F9000416C1CF1010C5FEA4C0C6446B2FBF4FC92
:101FA0006046BDE8F08110480068704780B5FFF7D3
:101FB000FAFF40490B4A1268C2F30222895C11F011
:101FC0001F01C84002BD80B5FFF7EDFF3949054A42
:101FD0001268C2F3C222895C11F01F01C84002BD21
:101FE00000100240081002402400002000000020E1
:101FF0000C1002407CB504000025244E3068C0005F
:1020000003D500F08FF801000FE0306850F08050E9
:102010003060306810F080500090009800F082F836
:102020000100306830F080503060B1F5007F09D198
:10203000812C15D3A12C02D30220050010E0012031
:1020400005000DE0812C02D30320050008E0802C60
:1020500002D10220050003E0702C01D1012005000F
:1020600010480268D208D2002A430260006810F0CB
:102070000700A84201D0012000E0002076BD00004A
:102080009410024004100240C0460008581002405C
:102090000070004090100240981002408C809D011A
:1020A000FFFFEEFE00200240F04500080024F4008F
:1020B00000127A00EC46000838B5040000251349E8
:1020C000087800281DD04FF47A700978B0FBF1F041
:1020D0000F490968B1FBF0F000F005F900280DD1B7
:1020E000102C08D2002221005FF0FF3000F0DFF852
:1020F0000848046007E00120050004E00120050015
:1021000001E0012005002800C0B232BD28000020F7
:10211000240000200000002001480068704700BF34
:10212000C0070020DFF88000006810F4C06070472E
:102130000200B2F5007F26D1DFF86C00036813F4CB
:10214000C063B3F5007F2CD0036833F4C06353F44D
:1021500000730360DFF85400036832204343DFF864
:102160005000B3FBF0F0401C0100DFF848000368AA
:102170005B0503D5002901D0491EF6E7006840053C
:102180000FD503200EE0DFF82000036813F4C063CE
:10219000B3F5806F05D0036833F4C06353F48063F4
:1021A0000360002070470000007000402400002001
:1021B00040420F001470004010B410F00703DFF825
:1021C000344122684FF6FF010A40DFF82C1151EA32
:1021D00003210A43226010BC7047DFF81801006831
:1021E000C0F3022070470000010049B2002909D461
:1021F000012210F01F018A40404903005BB25B09D5
:1022000041F82320704710B4020052B2002A05D4CE
:102210000A013B4B040064B21A5508E00A01394B2D
:10222000040064B214F00F04234403F8042C10BC1F
:10223000704770B4030013F00704D4F107000528B9
:1022400001D3042001E0D4F10700251D072D01D2A0
:10225000002500E0E51E012616FA00F0401E0140B0
:10226000A94016FA05F56D1E2A401143080070BCFE
:10227000704710B50400601EB0F1807F01D30120CB
:102280000EE0601E204908600F215FF0FF30FFF76D
:10229000BAFF00201D49086007201D490860002082
:1022A00010BD10B504002000FFF786FF10BD2DE91A
:1022B000F04104000D0016000027FFF78EFF804656
:1022C000320029004046FFF7B4FF0100200040B271
:1022D000FFF799FFBDE8F08110B50400200040B27F
:1022E000FFF782FF10BD10B504002000FFF7C1FF0B
:1022F00010BD00000CED00E00000FA0500E100E078
:1023000000E400E018ED00E014E000E018E000E078
:1023100010E000E010B50400002C01D1012035E0F0
:10232000A0690028FFD1606F002805D1002084F843
:102330007000200000F0CAFC24206067206800685C
:102340004008400021680860200000F06FF9012873
:1023500001D101201AE0606A002802D0200000F0BC
:10236000E5FA2068406830F49040216848602068B1
:10237000806830F02A00216888602068006850F08A
:10238000010021680860200000F03DFB10BD10B482
:102390000300986F20286AD1002903D0100080B272
:1023A000002801D1012063E093F87000012801D1D9
:1023B00002205DE0012083F870005965A3F85820E1
:1023C000A3F85A20002018669868B0F5805F0BD1FA
:1023D0001869002804D140F2FF10A3F85C0023E044
:1023E000FF20A3F85C001FE0986800280AD1186954
:1023F000002803D1FF20A3F85C0015E07F20A3F89C
:102400005C0011E09868B0F1805F0AD1186900287B
:1024100003D17F20A3F85C0006E03F20A3F85C0016
:1024200002E00020A3F85C000020D8672220986713
:102430001868806850F001001C68A0609868B0F5CA
:10244000805F06D11869002803D1DFF8D80118662B
:1024500002E0DFF8D4011866002083F870001868E5
:10246000006850F490701C682060002000E002209A
:1024700010BC70472DE9F84306003068C769306822
:10248000D0F800803068D0F8089040F60F043C4047
:10249000002C0BD1B80609D55FEA886006D5306EEE
:1024A000002802D03000316E8847B9E0002C00F0DF
:1024B00095805FEAC97005D4DFF8500418EA000F70
:1024C00000F08C8017F00100C0B2002809D05FEA4C
:1024D000C85006D5012031680862F06F50F0010045
:1024E000F067B8070BD519F00100C0B2002806D07C
:1024F000022031680862F06F50F00400F06778073E
:102500000BD519F00100C0B2002806D004203168B4
:102510000862F06F50F00200F06738070ED55FEAEE
:10252000886004D419F00100C0B2002806D0082049
:1025300031680862F06F50F00800F06738050AD57E
:102540005FEA481007D54FF4006031680862F06F09
:1025500050F02000F067F06F00283ED0B80608D594
:102560005FEA886005D5306E002802D03000316EF9
:102570008847F06F050030688068400602D415F087
:10258000280F25D0300000F0CAFA30688068400675
:102590001AD53068806830F0400031688860F06E8D
:1025A00000280DD00FF29950F16E8863F06E00F0A4
:1025B00005FC002811D0F06EF16E896B88470CE0A5
:1025C000300000F02AFC08E0300000F026FC04E0B7
:1025D000300000F022FC0020F06721E0F8020AD56C
:1025E0005FEA492007D55FF4801031680862300047
:1025F00000F014FC14E0380609D55FEA086006D53F
:10260000706E002802D03000716E884708E07806AE
:1026100006D55FEA486003D5300000F09FFAFFE777
:10262000BDE8F183E72B00087D2B00082DE9F0477A
:1026300004000026DFF8D81220688842FFD0A26884
:102640002069024360690243E0690243206803682D
:10265000DFF8C0020340134320680360206843682A
:1026600033F44053E068034320684360D4F8188093
:102670002068884202D0206A50EA080820688068F2
:1026800030F4306058EA0000226890602068A24A66
:10269000904215D1A148006810F00300002805D031
:1026A000022805D006D3032806D007E001275BE007
:1026B000022759E0042757E0082755E0102753E088
:1026C0002068974A904216D19448006810F00C0098
:1026D000002806D0042808D0082804D00C2806D0EA
:1026E00007E0002740E002273EE004273CE00827FF
:1026F0003AE0102738E020688A4A904216D187488D
:10270000006810F03000002806D0102808D02028DB
:1027100004D0302806D007E0002725E0022723E078
:10272000042721E008271FE010271DE020688842C9
:1027300019D17A48006810F44060002809D0B0F53B
:10274000806F0AD0B0F5006F05D0B0F5406F06D0AD
:1027500007E0002708E0022706E0042704E0082736
:1027600002E0102700E010272068884246D1380098
:10277000C0B2002806D0022808D0042809D00828B2
:102780000BD00DE0FFF712FC81460DE0DFF89891C9
:102790000AE0FFF79EFB814606E04FF4004903E0A4
:1027A0005FF0000901200600B9F1000F00F0A580DC
:1027B000616803204143894505D361684FF4805027
:1027C0004143494502D20120060096E04FF4807251
:1027D000606840080021E2FB09016268002300F004
:1027E0001FFB0500B5F5407F05D3B5F5801F02D26C
:1027F0002068C56081E0012006007EE0E069B0F558
:10280000004F42D13800C0B2002808D001280AD0B9
:1028100002280CD004280DD008280FD011E0FFF7B3
:10282000C5FB814611E0FFF7CEFB81460DE0DFF8E6
:10283000F8900AE0FFF74DFB814606E04FF40049AF
:1028400003E05FF0000901200600B9F1000F54D049
:102850006068400810EB49006168B0FBF1F080B29D
:102860000500102D0ED3B5F5803F0BD24FF6F07159
:102870002940C5F3420001438A46504680B2216890
:10288000C8603AE00120060037E03800C0B20028F6
:1028900008D001280AD002280CD004280DD008281E
:1028A0000FD011E0FFF782FB814611E0FFF78BFBB1
:1028B00081460DE0DFF870900AE0FFF70AFB8146E1
:1028C00006E04FF4004903E05FF000090120060034
:1028D000B9F1000F11D0606819EB50006168B0FBCE
:1028E000F1F080B20500102D05D3B5F5803F02D27E
:1028F0002068C56001E0012006000020206600205D
:1029000060663000C0B2BDE8F0870000200100041E
:1029100000800040F369FFEF00380140881002405A
:1029200000440040004800400024F40090F82410C7
:10293000C90707D501684A6832F40032816A0A4340
:1029400001684A6090F82410890707D501684A6831
:1029500032F48032C16A0A4301684A6090F8241058
:10296000490707D501684A6832F48022016B0A439F
:1029700001684A6090F82410090707D501684A6881
:1029800032F40042416B0A4301684A6090F8241017
:10299000C90607D501688A6832F48052816B0A4300
:1029A00001688A6090F82410890607D501688A6852
:1029B00032F40052C16B0A4301688A6090F8241017
:1029C000490613D501684A6832F48012016C0A4343
:1029D00001684A60016CB1F5801F07D101684A683F
:1029E00032F4C002416C0A4301684A6090F8241036
:1029F000090607D501684A6832F40022816C0A434F
:102A000001684A60704738B504000020E067FFF7AE
:102A100083FB05002068006800070DD57FF07E402D
:102A200000902B0000225FF40011200000F01FF83E
:102A3000002801D0032019E02068006840070DD568
:102A40007FF07E4000902B0000225FF48001200088
:102A500000F00DF8002801D0032007E02020606777
:102A60002020A067002084F87000002032BD2DE9EE
:102A7000F04105000E0090461F00069C2868C069C2
:102A80003040B04201D1012000E000204146C9B2EF
:102A9000884241D114F1010FF0D0FFF73DFBC01B7C
:102AA000844201D3002C14D12868006830F4D0701F
:102AB00029680860286880684008400029688860A4
:102AC000202068672020A867002085F87000032078
:102AD00023E0286800684007D0D52868C069000551
:102AE000CCD54FF40060296808622868006830F48B
:102AF000D07029680860286880684008400029680C
:102B00008860202068672020A8672020E8670020D0
:102B100085F87000032000E00020BDE8F081016826
:102B2000096831F490710268116001688968490888
:102B30004900026891602021816700210166704789
:102B400038B50400A56A0020A5F85A000020A5F8B1
:102B50005200280000F061F931BD000010B50400FA
:102B60002068006830F0400021680860202060671D
:102B700000206066200000F06BFA10BD70B5050003
:102B8000B5F85C60A86F222826D12868808C0400E4
:102B900016EA0400696D0870686D401C6865B5F838
:102BA0005A00401EA5F85A00B5F85A00002819D15D
:102BB0002868006830F49070296808602868806888
:102BC00040084000296888602020A8670020286607
:102BD000280000F03FFA05E02868008B50F008005C
:102BE0002968088370BDF8B50500B5F85C70A86F5A
:102BF000222827D12868808C0400686D060017EA17
:102C000004003080686D801C6865B5F85A00401E6D
:102C1000A5F85A00B5F85A00002819D128680068AC
:102C200030F4907029680860286880684008400087
:102C3000296888602020A86700202866280000F006
:102C400009FA05E02868008B50F00800296808831D
:102C5000F1BD000080B55148514901605FF4612128
:102C60004160002181600021C160002101610C21CF
:102C70004161002181610021C161002101620021C7
:102C80004162FFF747FB002801D000F017FB01BDB0
:102C900080B54448444901605FF4612141600021EE
:102CA00081600021C160002101610C21416100218E
:102CB00081610021C1610021016200214162FFF7B1
:102CC00029FB002801D000F0F9FA01BD10B586B04B
:102CD00004006846142100F0F3FA20683049884265
:102CE0002AD13248016851F480410160006810F433
:102CF0008040059005982E48016851F0020101605E
:102D0000006810F0020005900598C0200090022095
:102D1000019001200290032003900720049069464F
:102D2000244800F0D1FA002200212520FFF7BFFA45
:102D30002520FFF7D1FA2EE020681B4988422AD1CE
:102D40001D48016851F400310160006810F4003042
:102D5000059005981648016851F00101016000686E
:102D600010F00100059005980C20009002200190C1
:102D700001200290032003900720049069465FF031
:102D8000904000F0A1FA002200212620FFF78FFAE0
:102D90002620FFF7A1FA06B010BD0000380600207B
:102DA00000380140B8060020004400406010024096
:102DB0004C100240000400485810024038B504008E
:102DC000002594F82500022804D00420E0630120A7
:102DD00005001FE02068006830F00E0021680860E0
:102DE000206800684008400021680860012094F8CD
:102DF000441011F01C018840216C4860012084F8C7
:102E00002500002084F82400A06B002802D02000B8
:102E1000A16B88472800C0B232BD704770470000E0
:102E2000BBBBE1B1B2F5803F80F07E80022A1ED9A3
:102E30008C46B1FBF2F102FB11C31B0443EA1043C1
:102E4000B3FBF2FC02FB1C3380B240EA0343B3FB4A
:102E5000F2F002FB103240EA0C4000237047022AD5
:102E600005D98446B0FBF2F002FB10C270474AB1AC
:102E700005D100F0010249085FEA300070470022E6
:102E80000023704700F01ABB0B0002000021002055
:102E90007047904271EB030CF6D3B3F5803F2FD20D
:102EA000F0B5B3FA83F7B1FA81F4A7F10F0E3D1B29
:102EB0005340CEF1200602FA0EF2F3415340B5F131
:102EC0000F0746D80F3C2C444140C4F12006A040D7
:102ED000F1414140B1FBF3F603FB1611A2FB06459D
:102EE000001BA94102D2761E8018594180EA0102D6
:102EF00021FA0EF362FA0EF200215A403046F0BD7C
:102F000030B4B1FBF3FC03FB1C11A2FB0C45001B0E
:102F1000A94103D2ACF1010C8018594130BC0246E2
:102F20000B46604600217047B2F1807F65D3F0B553
:102F3000B2FA82F7B1FA81F4C7F10F063D1B22FA0B
:102F400006F307F1110EF24120355A40B5F10F0793
:102F5000B8D94140C4F12006A040F1414140B1FB45
:102F6000F3FC03FB1C11A2FB0C45001BA94103D27F
:102F7000BCF1010C801859410F2F12D30F3FC90328
:102F800041EA5041B1FBF3F603FB1611A2FB0645E3
:102F9000D4EBC030A94102D2761E8018594146EACE
:102FA000CC3C07B34140C7F12006B840F141414055
:102FB000B1FBF3F603FB1611A2FB0645001BA9416A
:102FC00002D2761E8018594180EA010221FA0EF3DE
:102FD000C7F1200462FA0EF20CFA07F05A402CFAFC
:102FE00004F13043F0BD80EA010221FA0EF3002122
:102FF00062FA0EF260465A40F0BD8C46B1FBF2F127
:1030000002FB11C31B0243EA1063B3FBF2FC02FB99
:103010001C331B024CEA002043EA1063B3FBF2FCB2
:1030200002FB1C331B024CEA002043EA1063B3FB93
:10303000F2FC02FB1C331B024CEA002043EA106343
:10304000B3FBF2FC02FB1C324CEA00200023704769
:103050007047000038B5040020688E49884226D1A8
:103060008D4A8E4D8E4908781388E8541088401C8C
:1030700010808C4B187800280AD11088042807DBB0
:1030800001201870A878ED7855EA0025864805805B
:103090001878012807D1844800881288121F9042AE
:1030A00001D10620187001228048FFF770F931BD68
:1030B000F8B504000D00002600277D4861780170F6
:1030C0000078012804D00A2830D00B2856D056E0CA
:1030D000A078E17851EA00210F00380080B2001F8B
:1030E000082190FBF1F201FB1200002801D0012021
:1030F00046E02079617951EA00210E00300080B26B
:10310000082190FBF1F201FB1200002801D0012000
:1031100036E00121300080B200F0D2F93A1F92B2BD
:10312000A11D300080B200F02AFA28E0A078E178F2
:1031300051EA00210F00380080B2001F082190FBE7
:10314000F1F201FB1200002801D0012018E02079E3
:10315000617951EA00210E00300080B2082190FB15
:10316000F1F201FB1200002801D0012008E0390033
:1031700089B2300080B200F0A3F900E0FFE7002040
:10318000F2BDF8B500F044FA00F026F800F052FA6B
:1031900000F07AFAFFF75EFDFFF77AFD00F09EFA85
:1031A00001223F494148FFF7F2F83E4801780629DD
:1031B000FBD100210170394C374D29882000FFF7E1
:1031C00077FF40F2324600273A003100200000F03D
:1031D000CBFA00202880E8E700B5ADB005A844216F
:1031E00000F06EF86846142100F06AF816A85C2119
:1031F00000F066F800F0ECFA2E48016831F0180192
:103200000160052005905FF4803006900120079052
:1032100002200F9003201090012011901420129092
:1032200007201390022014900220159005A8FEF7A5
:103230005DFA002801D000F041F80F200090032033
:1032400001900020029000200390002004900421AF
:103250006846FEF798FD002801D000F02FF81648C8
:10326000169000201E9000201F904FF480702C902C
:1032700016A800F0B5FA002801D000F01FF84FF4AE
:103280000070FEF755FF002801D000F017F82DB0B0
:1032900000BD000000380140C80700202C000020BD
:1032A000CD070020CC070020CA07002038060020E8
:1032B000CE0700209010024003000200704700007B
:1032C000002200F0DDBC0000F8B40300002508680F
:1032D000E840002800F0DB8001260F6816FA05F0B0
:1032E00007403A00002A00F0D0804868012808D042
:1032F0004868022805D04868112802D0486812287A
:103300001DD19F685FF0030C2800C0B240001CFA7A
:1033100000FC37EA0C07D1F80CC02800C0B240000E
:103320001CFA00FC5CEA07079F605868AE40B04397
:103330004E68C6F30016AE40304304005C60DE68A1
:1033400003272800C0B2400017FA00F08643D1F8E6
:1033500008C02800C0B240001CFA00FC5CEA060667
:10336000DE604868022802D0486812281ED1280072
:10337000C00803EB8000046A5FF00F0C15F0070033
:10338000C0B280001CFA00FC34EA0C04D1F810C072
:1033900015F00700C0B280001CFA00FC5CEA0404CF
:1033A00026002800C00803EB800006621C68280085
:1033B000C0B240008740BC430F7917F003072800D4
:1033C000C0B2400087403C431C604868C0005CD5E8
:1033D0003048066856F001060660006810F00100EB
:1033E000009000982C4F2800800857F820605FF06C
:1033F0000F0C15F00300C0B280001CFA00FC36EA86
:103400000C06B3F1904F01D1002414E0234883420D
:1034100001D101240FE02248834201D102240AE0B5
:103420002048834201D1032405E01F48834201D193
:10343000042400E0072415F00300C0B2800084409B
:1034400026432800800847F82060184C20689043E5
:103450004F68FF0300D510432060154E3468944335
:103460004F68BF0300D514433460124E3068904358
:103470004F68FF0200D5104330600F4E346894430C
:103480004F68BF0200D5144334606D1C1FE7F1BCC8
:10349000704700006010024008000140000400482E
:1034A00000080048000C00480010004800040140DB
:1034B00004040140080401400C040140704700006E
:1034C00078B585B005000C000020009005F100657E
:1034D00015F57E3500F046FC4B48016851F040413F
:1034E00001604CF2FA30494908602E00F60A0020CB
:1034F0000190012002903000C0B20390200080B201
:103500000490694601A800F0B1FC002801D0012018
:1035100000E0002006B070BDF8B507000C001500F3
:10352000280080B240F20121884201DB012025E021
:1035300000F018FC3448016851F0404101604CF241
:10354000FA303249086000263000290080B289B282
:10355000884210D2300080B204EBC000D0E90023D2
:103560003900002000F0A6FB002802D10837761CA5
:10357000EAE7012002E000F006FC0020F2BD2DE9A0
:10358000F84F04000D00160000208DF800003000F8
:1035900080B20830FDF78EFC0700300080B20821B1
:1035A00090FBF1F201FB1200002801D0012029E07C
:1035B000300080B2082190FBF1F8B1461FFA89F97A
:1035C00019F108094FF0FF0ABB46524649465846D2
:1035D00000F0CAF80020310089B2884203DA295C81
:1035E0003954401CF7E7424692B2390004F10060BA
:1035F00010F57E30FFF790FF8146380000F008FD9F
:103600004846C0B2BDE8F28F1820024010200240A8
:1036100010B500240320FEF744FE0020FEF74CFD09
:10362000002802D00120040001E000F0F3FC20009B
:10363000C0B210BD81B01348016851F004010160AF
:10364000016811F0040100910099016851F08001B6
:103650000160016811F0800100910099016851F04A
:1036600001010160016811F00101009100990168F8
:1036700051F002010160006810F002000090009813
:1036800001B070474C10024080B5114811490160EB
:10369000002141607F218160FF21C1600021016123
:1036A00000214161002181610021C16100F0CEFC57
:1036B000002801D0FFF702FE01BD0168054A9142D2
:1036C00004D105490A6852F400420A6070470000BC
:1036D0008407002000280040901002401FB5684673
:1036E00000210022002380E80E001C4C1C482060B2
:1036F0004F2060600020A0604FF47A70E06080206E
:10370000A061200000F070FD002801D0FFF7D6FD79
:1037100000200090002002906946200000F0A8FEE2
:10372000002801D0FFF7CAFD1FBD1CB504002068AA
:103730000B49884211D10B48016851F0100101601A
:10374000006810F010000090009800220021362040
:10375000FEF7ADFD3620FEF7BFFD13BD3807002094
:10376000001000405810024062F30F2262F31F4223
:10377000401810F0030308D0C91A1FD3DB0748BF55
:1037800000F8012D28BF20F8022D130030B4144694
:103790001546103928BF20E93C00FAD8490728BF50
:1037A00020E90C0048BF40F8042D890028BF20F80C
:1037B000022D48BF00F8012D30BC7047C91818BF52
:1037C00000F8012DCB0728BF00F8012D704700003D
:1037D0000248016851F48071016070470070004038
:1037E0002DE9F84F050000275FF000082868000564
:1037F00027D5686C00280DD0B0F5000F03D0B0F5C8
:10380000400F0DD00DE0DFF8DC02016851F480318B
:10381000016008E00021281D00F06EF9070002E0B9
:1038200001E0012007003800C0B2002808D1DFF80D
:10383000C4120A6832F44002686C02430A6000E075
:10384000B846286880037AD55FF00009DFF898A2AF
:10385000DAF80000C0000DD4DAF8000050F0805013
:10386000CAF80000DAF8000010F0805000900098CC
:1038700001208146DFF874B2DBF8000050F480705C
:10388000CBF80000FEF748FC0600DBF80000C0059E
:1038900006D4FEF741FC801B0328F6D30320070063
:1038A0003800C0B200283FD1DFF844B2DBF8000096
:1038B00010F440700400002C15D0A86D844212D082
:1038C000DBF8000030F440700400DBF8000050F436
:1038D0008030CBF80000DBF8000030F48030CBF80B
:1038E0000000CBF80040E0070FD5FEF715FC0600FE
:1038F000DBF80000800708D4FEF70EFC801B41F2C5
:1039000089318842F4D3032007003800C0B2002870
:1039100008D1DBF8001031F44071A86D0143CBF8F9
:10392000001002E0B84600E0B8464846C0B20128A0
:1039300005D1DAF8000030F08050CAF8000028788D
:10394000C00707D5DFF8AC110A6892089200286A10
:1039500002430A602878800707D5DFF898110A68C3
:1039600032F00C02686A02430A602878400707D5E3
:10397000DFF880110A6832F03002A86A02430A6058
:103980002878800607D5DFF86C110A6832F44062A7
:10399000E86A02430A602868800507D5DFF85411F9
:1039A0000A6832F44022E86B02430A602868400546
:1039B00007D5DFF840110A6832F44012286C024340
:1039C0000A602878400607D5DFF828110A6832F423
:1039D0004052286B02430A602878000607D5DFF8BA
:1039E00014110A6832F44042686B02430A60286886
:1039F000C00507D5DFF8FC100A6832F44032A86B26
:103A000002430A602868000320D5DFF8E8100A683E
:103A100032F04062A86C02430A60A86CB0F1006FFB
:103A200006D1DFF8C000016851F4801101600DE09B
:103A3000A86CB0F1806F09D10121281D00F05CF85D
:103A400007003800C0B2002800D0B84628684003FC
:103A500020D5DFF8A0100A6832F04062E86C02431B
:103A60000A60E86CB0F1006F06D1DFF878000168F9
:103A700051F4801101600DE0E86CB0F1806F09D164
:103A80000121281D00F038F807003800C0B20028D6
:103A900000D0B8462868400415D5DFF858100A68E9
:103AA00032F04052286D02430A60286DB0F1805F09
:103AB00009D10221281D00F01FF807003800C0B20C
:103AC000002800D0B8462868000407D5DFF8241085
:103AD0000A6832F08042686D02430A604046C0B214
:103AE000BDE8F28F0C1002405810024000700040F8
:103AF00090100240881002402DE9F04105000C00B2
:103B000000275949086810F0030F12D0086810F018
:103B100003002A68904209D12868002806D0086866
:103B2000C0F30210401C6968884232D001200700AF
:103B30002FE02868012804D01BD303280FD007D317
:103B400017E04A480068800701D40120070012E00E
:103B500046480068400501D4012007000BE04348B7
:103B60000268920304D40068400301D401200700D6
:103B700001E0012007003800C0B2002809D10A681E
:103B800032F07302286802436868401E52EA00124D
:103B90000A603800C0B2002861D1DFF8D080D8F8C0
:103BA000000030F08060C8F80000FEF7B5FA0600AB
:103BB000D8F80000000106D5FEF7AEFA801B0328F6
:103BC000F6D3032007003800C0B2002847D1002CEC
:103BD0000BD127490A6827480240A86852EA002208
:103BE000E86852EAC0620A601CE0012C0DD120494D
:103BF0000A6821480240A86852EA00222869400861
:103C0000401E52EA40520A600CE019490A681B48FB
:103C10000240A86852EA002268694008401E52EA41
:103C200040620A60D8F8000050F08060C8F80000D8
:103C3000FEF772FA0600D8F80000000106D4FEF77D
:103C40006BFA801B0328F6D3032007003800C0B2AC
:103C5000002804D106490A68A86902430A603800AE
:103C6000C0B2BDE8F08100000C100240001002401C
:103C700010100240FF80FF07FF809FFFFF80FFF9C9
:103C800000B500BF130096469446103928BFA0E83F
:103C90000C50FAD85FEA417C28BF0CC048BF40F8FE
:103CA000042BC90728BF20F8022B48BF00F8012BBE
:103CB00000BD00002DE9F84F82468B4614001D0020
:103CC0000026DFF884713878012801D1022047E00E
:103CD000012038704CF25038404600F05BF88146C5
:103CE0004846C0B2002837D100207860DFF85C0178
:103CF0000168490506D5016831F480610160022040
:103D0000387701E000203877BAF1000F07D12200A0
:103D10002B00584600F071F8012006000FE0BAF1C0
:103D2000010F02D0BAF1020F09D12100584600F06C
:103D300071F8BAF1020F02D15FF48020060040460C
:103D400000F028F88146002E04D0DFF80401016855
:103D5000B143016000F023F9002038704846C0B23A
:103D6000BDE8F28F00203A490A68002A09D53C4A8A
:103D70003C4B13603C4B13600968002901D50121BD
:103D80000800C0B270473248016851F0004101603C
:103D90000020704770B50400FEF7BEF905002D4AFB
:103DA0001068C00309D514F1010FF8D0FEF7B4F97B
:103DB000401BA042F3D303201EE0116826480140B7
:103DC000002913D0204843680B43436011F0404F53
:103DD00005D0224B1E6811F0404006431E6088004B
:103DE00002D021F040401060012005E01068C007BB
:103DF00001D501201060002070BD10B414490C687A
:103E000054F001040C600260BFF36F8F011D0B6062
:103E100010BC704770B4402304000D000C4A1668B3
:103E200056F480261660EFF3108272B62E68266074
:103E3000241D2D1D5B1E1E00F6B2002EF6D182F34E
:103E4000108870BC70470000040000200020024071
:103E50001420024010200240FAC302001820024041
:103E60000820024023016745AB89EFCD2DE9F843D7
:103E700004000D00DFF888713878012801D1022094
:103E800067E0012038704CF250394846FFF782FF56
:103E900080464046C0B2002857D100207860DFF845
:103EA00064010168890510D5016831F40071016071
:103EB0000168490506D5016831F48061016003207D
:103EC00038770EE0012038770BE00168490506D508
:103ED000016831F4806101600220387701E0002040
:103EE0003877206801280DD1606800F034F8484622
:103EF000FFF750FF8046DFF81001016831F0040140
:103F0000016020E05FF0FF302860A0680600A16833
:103F1000E06841188E4216D26168300000F02AF83D
:103F20004846FFF737FF8046DFF8DC100A68DFF805
:103F3000DC0002400A604046C0B2002801D02E607A
:103F400001E0761CE3E700F02AF8002038704046D4
:103F5000C0B2BDE8F283C10705D5DFF8AC100A682E
:103F600052F004020A60DFF8A0100A6852F48032AE
:103F70000A60704710B4DFF89020136833F47E7342
:103F8000C40014F4FF6423431360136853F0020366
:103F90001360136853F48033136010BC7047DFF86C
:103FA0006000017F0A00D2B2012A03D00A00D2B217
:103FB000032A0DD1DFF84C20136853F4006313601B
:103FC000136833F400631360136853F400731360D1
:103FD0000A00D2B2022A03D00A00D2B2032A0CD1BC
:103FE000084A136853F480531360136833F4805302
:103FF0001360136853F480631360002202777047E4
:1040000004000020002002401420024005FCFFFFB5
:10401000FDF7ABB881B00B48016851F001010160B8
:10402000006810F00100009000980748016851F006
:1040300080510160006810F080500090009801B03D
:10404000704700BF601002405810024038B50400AD
:104050000125002C51D094F82100002805D1002022
:1040600084F820002000FFF728FB022084F82100BC
:10407000CA2021684862532021684862200000F06D
:1040800059F805002800C0B2002836D120688168A0
:10409000DFF848010140206881602068816862681B
:1040A00020690243A0690243114320688160E068EF
:1040B0002168086120680069A16850EA0140216810
:1040C0000861200000F05CF805002800C0B200285C
:1040D00013D12068C06C800880002168C864206803
:1040E000C16CE2696069024311432068C164FF202A
:1040F00021684862012084F821002800C0B232BD46
:1041000038B504002068C06830F0A0002168C8609D
:10411000FEF702F805002068C068800608D4FDF7A5
:10412000FBFF401B40F2E9318842F4D3032000E05A
:10413000002032BD70B5040000262068C06840062B
:104140001BD45FF0FF302168C860FDF7E5FF050074
:104150002068C068400610D43000C0B203280CD0DC
:10416000FDF7DAFF401B40F2E9318842F0D303202B
:104170000600032084F82100EAE73000C0B270BDD9
:1041800070B5040000251648016831F08001016017
:10419000144E306880060AD42000FFF7B1FF0028D3
:1041A00017D0032084F821000320050011E03068B7
:1041B00030F0200030602000FFF7A2FF002804D07C
:1041C000032084F8210003200500306850F020000F
:1041D00030602800C0B270BD00000000BFFF8FFF3C
:1041E0000C2800400828004010B50400002C01D124
:1041F000012035E094F83D00002805D1002084F826
:104200003C002000FFF791FA022084F83D00211DB8
:10421000206800F0F0F8012084F84800012084F8BC
:104220003E00012084F83F00012084F84000012076
:1042300084F84100012084F84200012084F8430002
:10424000012084F84400012084F84500012084F80E
:104250004600012084F84700012084F83D0000203A
:1042600010BD10B504002068006980071AD52068C9
:10427000C068800716D57FF0020021680861012020
:1042800020772068806910F0030F03D0200000F031
:104290002DF905E0200000F02AF9200000F028F9AF
:1042A000002020772068006940071AD52068C06880
:1042B000400716D57FF004002168086102202077AE
:1042C0002068806910F4407F03D0200000F00EF9D0
:1042D00005E0200000F00BF9200000F009F90020B3
:1042E00020772068006900071AD52068C068000799
:1042F00016D57FF008002168086104202077206827
:10430000C06910F0030F03D0200000F0EFF805E0C3
:10431000200000F0ECF8200000F0EAF80020207700
:1043200020680069C0061AD52068C068C00616D586
:104330007FF0100021680861082020772068C0699C
:1043400010F4407F03D0200000F0D0F805E02000FA
:1043500000F0CDF8200000F0CBF800202077206896
:104360000069C0070AD52068C068C00706D57FF07D
:10437000010021680861200000F0BBF82068006996
:1043800000060AD52068C068000606D57FF08000C8
:1043900021680861200000F0ADF820680069C005C0
:1043A0000AD52068C068000606D57FF480702168B1
:1043B0000861200000F09FF82068006940060AD5D7
:1043C0002068C068400606D57FF04000216808617B
:1043D000200000F091F82068006980060AD5206866
:1043E000C068800606D57FF02000216808612000A3
:1043F00000F083F810BD10B40368DFF86840A042F5
:1044000002D0B0F1804F03D133F070034A681343F8
:10441000A0420AD0B0F1804F07D0DFF84C20904284
:1044200003D0DFF84820904203D133F44073CA68C8
:10443000134333F080034A69134303608A68C262FE
:104440000A688262A04207D0DFF81C20904203D0A5
:10445000DFF81820904201D10A690263012242610B
:1044600010BC7047002C0140004001400044014056
:1044700030B4020092F83C00012801D102202FE064
:10448000012082F83C00022082F83D001068436859
:1044900010688468134D1068A84203D133F4700388
:1044A0004868034333F070030868034310684360AF
:1044B0001068A84207D01068B0F1804F03D0106890
:1044C000094DA84205D134F080048868044310687F
:1044D0008460012082F83D00002082F83C0000202A
:1044E00030BC7047002C01400040014070477047CD
:1044F00070477047704770477047704710480168B1
:1045000051F4700101600F49086850F00100086023
:1045100000200D4A10600A680C4802400A604FF4FF
:1045200080500B4A1060086830F48020086000203A
:10453000084908605FF000600749086070470000A4
:1045400088ED00E00010024008100240FFFFF6EA8C
:104550000C1002401810024008ED00E07047FEE722
:10456000FEE7FEE7FEE770477047704780B500F052
:1045700017F801BD80B50748FDF77CFF01BD80B588
:104580000548FDF777FF01BD80B50448FFF769FED8
:1045900001BD000038060020B806002038070020C2
:1045A00003480168034A127889180160704700BF08
:1045B000C00700202800002030B501688468421838
:1045C000416802EB5103C9070BD54C4409E012F9CD
:1045D000011B12F8015B002904F8015B05D5491C99
:1045E000F9D19A42F3D10C3030BD491EF1D5F8E72C
:1045F000A0860100400D0300801A060000350C0063
:1046000040420F0080841E0000093D0000127A0025
:104610000024F40000366E010048E801006CDC0262
:1046200010B5074979441831064C7C44163404E02F
:104630000A68081D114488470146A142F8D110BDFF
:104640002C000000480000004EF68851CEF2000118
:10465000086840F470000860BFF34F8FBFF36F8F9E
:104660004FF00070E1EE100A7047000007D0FFFF26
:10467000A40700002C000020000000003DFFFFFF09
:10468000680100001A0000000000002000F00DF892
:10469000002801D0FFF7C4FFAFF300800020AFF384
:1046A0000080FEF76EFD00F002F80120704700F078
:1046B00001B8000007463846FDF70EF8FBE700009A
:1046C00000000000000000000102030406070809C2
:1046D0000148804701480047FD440008E1460008C2
:1046E000AFF30080FFF7B0FFFFF7D0FF000000003E
:1046F00001020304FFF7FEBFFFF7FEBFFFF7FEBF97
:10470000FFF7FEBFFFF7FEBFFFF7FEBFFFF7FEBFDD
:10471000FFF7FEBFFFF7FEBFFFF7FEBFFFF7FEBFCD
:10472000FFF7FEBFFFF7FEBFFFF7FEBFFFF7FEBFBD
:10473000FFF7FEBFFFF7FEBFFFF7FEBFFFF7FEBFAD
:10474000FFF7FEBFFFF7FEBFFFF7FEBFFFF7FEBF9D
:10475000FFF7FEBFFFF7FEBFFFF7FEBFFFF7FEBF8D
:10476000FFF7FEBFFFF7FEBFFFF7FEBFFFF7FEBF7D
:10477000FFF7FEBFFFF7FEBFFFF7FEBFFFF7FEBF6D
:10478000FFF7FEBFFFF7FEBFFFF7FEBFFFF7FEBF5D
:10479000FFF7FEBFFFF7FEBFFFF7FEBFFFF7FEBF4D
:1047A000FFF7FEBFFFF7FEBFFFF7FEBFFFF7FEBF3D
:1047B000FFF7FEBFFFF7FEBFFFF7FEBFFFF7FEBF2D
:1047C000FFF7FEBFFFF7FEBFFFF7FEBFFFF7FEBF1D
:1047D000FFF7FEBFFFF7FEBFFFF7FEBFFFF7FEBF0D
:1047E000FFF7FEBFFFF7FEBF0010ED000001F00075
:0547F00003093D00017A
:04000005080046E1C8
:00000001FF
