:020000040800F2
:1000000078110020516A0008356800083768000838
:10001000396800083B6800083D68000800000000DF
:100020000000000000000000000000003F68000821
:1000300041680008000000004368000845680008A7
:10004000876A00088B6A00088F6A0008936A0008B4
:10005000976A00089B6A00089F6A0008A36A000864
:10006000A76A0008AB6A0008AF6A0008B36A000814
:10007000B76A0008BB6A0008BF6A0008C36A0008C4
:10008000C76A0008CB6A0008CF6A0008D36A000874
:10009000D76A0008DB6A0008DF6A0008E36A000824
:1000A000E76A0008EB6A0008EF6A0008F36A0008D4
:1000B000F76A00080000000000000000FB6A00086A
:1000C000FF6A0008036B0008076B00080B6B000851
:1000D0000F6B00084D68000857680008136B000894
:1000E000176B00081B6B00080000000000000000F8
:1000F0000000000000000000000000000000000000
:10010000000000001F6B000800000000236B0008C7
:100110000000000000000000616800086B68000833
:10012000276B00082B6B00082F6B0008336B00084F
:10013000376B000800000000000000000000000015
:100140003B6B00083F6B0008436B00080000000099
:10015000476B00084B6B00084F6B0008536B00089F
:10016000576B00085B6B00085F6B00080000000025
:10017000636B0008676B00080000000000000000CF
:100180006B6B00086F6B0008736B000800F5E07084
:100190000268914203D343681A44914202D38068B3
:1001A0000028F5D17047DFF86C17086890B94FF454
:1001B000805048604FF480324FF0FF30C8600861D3
:1001C0000420DFF854378A604861C3F8BC01DFF8C7
:1001D0004C0708600120704701F1080313F0070F76
:1001E0000EBF0023C3F1080303F007031944D21A1A
:1001F0008161C26042F001034B60091D4FF0280C81
:1002000041F802C0DFF80C271369C36170472DE97C
:10021000FC4B074601F1080010F0070F0FBF89469D
:10022000C0F1080000F0070001EB000902F108012D
:1002300011F0070F06D002F10800C0F1080000F02D
:10024000070002441546A5EB090009EB0306A0EBE5
:10025000030B43F00303C9F80430AE4228BF01F09A
:1002600005FA2879C10758BF01F000FABBF1100F59
:1002700038BF01F0FBF9B869854208D1F9688B44B1
:10028000C7F80CB0BE614BF00100706051E17869B5
:1002900085420AD1B9688B44C7F808B07E614BF03B
:1002A0000100706046F80BB043E1686800F003019C
:1002B000012940F0AC80C008C0000190C0081F2890
:1002C00039D8AC68D5F80C800090454508BF01F0DE
:1002D000CDF9A54208BF01F0C9F968680099C008C6
:1002E000C000B0EBC10F18BF01F0C0F9009907F1D1
:1002F000280000EBC100844206D039698C42C0F06E
:100300008180E268AA427DD1A04506D10098396873
:10031000012383409943396076E0804506D03969EE
:1003200088456FD3D8F80800A8426BD1C4F80C8078
:10033000C8F8084068E0EC68D5F81880AC420CD0EA
:10034000A8683969884223D3C268AA4204BFA16859
:10035000A9421DD1C460A0601CE005F114010C6825
:1003600034B905F110010C68A4B101E011460C6824
:1003700004F114021068002802BF04F11002106892
:100380000028F3D13869814202D300220A6001E0DB
:1003900001F06CF9B8F1000F36D0E96907F59870F3
:1003A00000EB81000268954208D10460A4B9E869B5
:1003B0007968012282409143796025E0386980455F
:1003C00008D3D8F81010A94214BFC8F81440C8F8D0
:1003D000104001E001F04AF9B4B139698C4211D3FF
:1003E000C4F81880286928B1884226BF206184613A
:1003F00001F03CF9686938B13969884202D360611B
:10040000846101E001F032F901996D188B4469684B
:100410004908490069604BF0010070604FEADB0455
:1004200046F80BB01F2C23D807F1280000EBC408B6
:100430004546BBF1100F38BF01F018F9386820FAB3
:1004400004F1CA0705D4012101FA04F404433C6015
:1004500007E0D8F80800396988422CBF054601F04A
:1004600005F9C8F80860EE60B560C6F80C8060E079
:100470005FEA1B2008BF002123D0B0F5803F28BFD2
:100480001F211ED2A0F58072120C02F008029040CB
:10049000A0F58051090C01F004018840A0F58043CB
:1004A0001B0CC2F10E0203F00203521AD21A98403A
:1004B00002EBD032D01D2BFA00F101F0010101EB6B
:1004C0004201F161002307F59872736102EB81002C
:1004D00033617A6822FA01F3DC0707D4012303FAB7
:1004E00001F1114379600660B0611DE002681F29C7
:1004F0001DBF4908C1F119010BFA01F1594600E08D
:1005000002465068C008C000584516D002F11003DA
:10051000C80F03EB8003490018680028F0D1386940
:10052000834204D31E60B261F660B66001E001F060
:100530009DF809F10800BDE8F68B396990688A4298
:1005400028BF8842F3D3C6609660B060F260002096
:10055000B061EEE72DE9FE4F04468B46A5692E46B5
:10056000904699463146FFF711FE0268416802EB5A
:10057000010AAAF1270111F007000EBF0021C1F105
:10058000080101F007010AEB0100A0F12F0706F1B5
:1005900010018F4238BF374607F11802002101923F
:1005A0000091A8F1280259462046FFF715FE07F1F1
:1005B000080010F0070F18BF01F058F81B207860F2
:1005C00007F1080104F5E07090E80C5081E80C5048
:1005D000C0F800B0C0F80480C0F80C908160072219
:1005E0000198009900E0001D491C00F108035345E3
:1005F0004260F8D30129D8BF01F038F8B74200F0C3
:100600009580BF1B301D321DC15949084900D15189
:1006100047F0010070604FEAD70BF751BBF11F0F95
:1006200021D804EBCB0000F12805A846102F38BFD5
:1006300001F01CF8206820FA0BF1CA0705D401214B
:1006400001FA0BF10843206006E0A868216988429E
:100650002CBF804601F00AF8AE60C8F80C60C6F8FE
:100660000880F5606FE0380A08BF002123D0B0F59C
:10067000803F28BF1F211ED2A0F58072120C02F00D
:1006800008029040A0F58051090C01F00401884057
:10069000A0F580431B0CC2F10E0203F00203521AB4
:1006A000D21A984002EBD032D01D27FA00F101F0A7
:1006B000010101EB420104EB8102002302F5987075
:1006C000F16173613361626822FA01F3DB0707D4D9
:1006D000012303FA01F1114361600660B0611DE07E
:1006E00002681F291DBF4908C1F1190107FA01F16C
:1006F000394600E002465068C008C000B84216D033
:1007000002F11003C80F03EB8003490018680028AA
:10071000F0D12069834204D31E60B261F660B560F7
:1007200011E003B0BDE8F04F00F0A0BF0BE021697D
:1007300090688A4228BF8842F3D3C6609560B06053
:10074000F2600020B06103B0BDE8F08F2DE9F04108
:10075000704F05463868884608B9FFF724FDB96828
:1007600001EB08002F30491E20EA010188457DD2A7
:1007700005F5D876B06828B1326889188A4275D2F2
:10078000884273D300F0B2FF01001CBF0C6811F166
:10079000010F6BD03068201805F5D87230605368AF
:1007A000984238BF18467060A86960BB286908B1D4
:1007B000814200D22961316174610020F0614FF003
:1007C000FF303A686A62286205F128020020D26090
:1007D000926002F1080757611761801C10322028CF
:1007E000F5D34D48854208BFA4F1280228D055F81A
:1007F000040CC00805EBC002A2F108000A19121A85
:10080000283A01461CE005F5E070024600E09268D7
:100810007AB3136857681F44B942F8D1137B1F0796
:1008200027D4AB691768BB4223D3D2F804C067440E
:10083000BB421ED2A444C2F804C0E868A9692218C9
:100840002846FFF7C9FC1FE08068C0B103689342E7
:10085000FAD1027B130712D4026801604368E418DE
:10086000446043462846BDE8F041D0E40020BDE89E
:10087000F0812A69914238BF29610A19E5E700230E
:1008800022462846FFF766FEE8688045EED2A0EBD8
:100890000800A969E86001EB0802AA6140F00100C4
:1008A000506048F00300486001F10800BDE8F081A5
:1008B00030B4184B1A6882B94FF480525A604FF422
:1008C00080344FF0FF32DA601A610422124D9C60CE
:1008D0005A61C5F8BC21114A1A6011F1400F17D2B4
:1008E0008269AAB1C368283199420BD200F5E07140
:1008F0000C68A24203D34D682C44A24202D38968FB
:100900000029F5D1C16999423CBF4FF0FF32C26165
:1009100000F0A8BE400D00205C0900206859883C0A
:100920002DE9F84F00258946090AC9F1000B08BFD7
:10093000002323D0B1F5803F28BF1F231ED2A1F58D
:100940008072120C02F008029140A1F580531B0C3A
:1009500003F004039940A1F58044240CC2F10E0277
:1009600004F00204D21A121BA14002EBD132D11DB5
:1009700029FA01F303F0010303EB4203074607F5ED
:10098000987858F8230030B31F2B0FBF4C465C08F3
:10099000C4F1190409FA04F4AC46594600E06400B5
:1009A0004268D208D200A2EB09028A4203D21100A7
:1009B000054600F06981426910304FEAD47B50F857
:1009C0002B00002A1CBF824294460028E7D18B46A8
:1009D0006046B0BBBDBB012202FA03F35B00584284
:1009E000796803430B4000F04E81584203405B1E80
:1009F000180B00F01000C340590901F00801CB406A
:100A00009A0802F00402D3405C0804F002040818BB
:100A1000E3401018C3F3400620183044F3401B187D
:100A200058F823000DE008464168C908C900A1EB49
:100A3000090159453CBF8B46054601690029F2D1A1
:100A400040690028F0D1002D00F01D81B868A0EBAE
:100A50000900834580F0178139698D42C0F011810A
:100A60006868C008C00009EB0B01884218BF00F09D
:100A7000FDFD05EB0906B54280F00381EC68D5F871
:100A800018A0AC420CD0A8683969884223D3C26848
:100A9000AA4204BFA168A9421DD1C460A0601CE0A5
:100AA00005F114010C6834B905F110010C68A4B10A
:100AB00001E011460C6804F114021068002802BF1E
:100AC00004F1100210680028F3D13869814202D382
:100AD00000220A6001E000F0C9FDBAF1000F36D033
:100AE000E86908EB800001688D4209D104602000AC
:100AF00014D1E8697968012282409143796026E047
:100B00003869824508D3DAF81010A94214BFCAF830
:100B10001440CAF8104001E000F0A8FDBCB13869EB
:100B2000844212D3C4F818A0286930B139698842C8
:100B300026BF2061846100F099FD686938B1396988
:100B4000884202D36061846101E000F08FFDBBF157
:100B5000100F0CD2D94449F00300291D6860281DEC
:100B600051F8092042F0010240F8092088E049F0DC
:100B7000030068604BF0010070604FEADB0046F84C
:100B80000BB01F281DD807EBC00101F128043968FC
:100B900021FA00F2D307A34605D4012202FA00F09D
:100BA0000843386006E0A068396988422CBF834654
:100BB00000F05CFDA660CBF80C60C6F808B0F460ED
:100BC0005EE05FEA1B2008BF002123D0B0F5803F24
:100BD00028BF1F211ED2A0F58072120C02F008025D
:100BE0009040A0F58051090C01F004018840A0F567
:100BF00080431B0CC2F10E0203F00203521AD21AF8
:100C0000984002EBD032D01D2BFA00F101F0010127
:100C100001EB4201F16100227261326108EB810057
:100C20007A6822FA01F4E30707D4012404FA01F1F7
:100C3000114379600660B0611DE002681F291DBF85
:100C40004908C1F119010BFA01F1594600E00246C9
:100C50005068C008C000584518D002F11003C80FF2
:100C600003EB8003490018680028F0D138698342FB
:100C700004D31E60B261F660B66001E000F0F6FCDD
:100C800014E100F0F3FC0EE18B46A2E639699068AE
:100C90008A4228BF8842F1D3C6609660B060F26095
:100CA0000020B061ECE72DE9F84F064688467168F0
:100CB00048420140491E080B00F01000C1404A099B
:100CC00002F00802D1408B0803F00403D9404D081C
:100CD00005F002051018E9401818C1F3400428185F
:100CE00006F5987A2044E14009185AF8211048681E
:100CF000C008C0000D46A0EB080909E0014648689D
:100D0000C008C000A0EB080048453CBF81460D4626
:100D100008690028F2D149690029F0D1306985427B
:100D2000C0F0BF806968C90808EB090BC9005945C4
:100D300018BF00F09BFC05EB08008542009080F096
:100D4000B080EF68AC69AF420CD0A86831698842C6
:100D500023D3C268AA4204BFB968A9421DD1C760A3
:100D6000B8601CE005F114010F6837B905F11001F6
:100D70000F68A7B101E011460F6807F1140210686F
:100D8000002802BF07F1100210680028F3D1306973
:100D9000814202D300220A6001E000F067FC002CCF
:100DA00031D0E8690AEB800001688D4208D1076004
:100DB0008FB9E8697168012282409143716022E035
:100DC0003069844205D32169A94214BF6761276154
:100DD00001E000F04BFCB7B13069874211D3BC6130
:100DE000286930B13169884226BF3861876100F0D7
:100DF0003DFC686938B13169884202D37861876106
:100E000001E000F033FCB9F1100F0BD24BF00300FE
:100E1000291D6860281D51F80B2042F0010240F89E
:100E20000B203DE048F003012A1D696049F00100F4
:100E300042F80800009941F80990D6F808804FEA76
:100E4000D80BBBF1200F28BF00F010FCB8F1000F49
:100E500022D006EBCB00776900F12804A246B8F156
:100E6000100F38BF00F002FC306820FA0BF1CA07FF
:100E700005D4012101FA0BF10843306006E0A068B7
:100E8000316988422CBF824600F0F0FBA760CAF8A7
:100E90000C70C7F808A0FC60C6F808900098706154
:100EA00004E000F0E3FB0020BDE8F28F05F108004C
:100EB000BDE8F28F2DE9FE4F0546AFF30080F52D1A
:100EC000DFF89C6780F004810B2D31BF10250B35B6
:100ED000ED08ED003068EC08E04010F0030F46D05C
:100EE000C04300F00100041906F1280000EBC4081B
:100EF000E700D8F808506868C008C000B84218BFBA
:100F000000F0B4FBD5F80890454508BF00F0AEFBF3
:100F10004D4508BF00F0AAFB6868C008C000B84291
:100F200018BF00F0A3FBC84507D13068012101FAC2
:100F300004F420EA040434600DE03069814508D3EC
:100F4000D9F80C10A94204D1C8F80890C9F80C804F
:100F500001E000F08BFB47F00300291D6860281DAD
:100F6000CA5942F00102C25105F10804F8E0B16823
:100F7000A94280F0BE80002800F0A1804FF0010857
:100F800008FA04F1490000FA04F4484201430C4015
:100F900060420440641E200B00F01000C440610950
:100FA00001F00801CC40A20802F00402D44063081A
:100FB00003F002030818DC401018C4F340071818A7
:100FC0003818FC40241806F1280000EBC40AE7009A
:100FD000DAF80890D9F80400C008C000B84218BF79
:100FE00000F044FBD9F808B0D14508BF00F03EFB43
:100FF000D94508BF00F03AFBD9F80400C008C0008A
:10100000B84218BF00F032FBDA4506D1306808FA62
:1010100004F420EA040434600DE031698B4508D300
:10102000DBF80C00484504D1CAF808B0CBF80CA096
:1010300001E000F01BFB7F1B45F0030009F10402F7
:10104000C9F8040047F00101515109EB0502019272
:10105000D751B4684FEAD40ABAF1200F28BF00F084
:1010600005FB34B3CDF800A006F12800756900EB4C
:10107000CA0AD346102C38BF00F0F8FA316800983D
:1010800021FA00F2D30704D408FA00F008433060D4
:1010900007E0DAF80800316988422CBF834600F087
:1010A000E5FACAF80850CBF80C50C5F808B0C5F8F6
:1010B0000CA0B76009F108040198706150E07068F5
:1010C000C0B329463046FFF7EEFD040011D047E0DB
:1010D00015F1400F28BF4FF0FF350AD20B35ED0850
:1010E0007068ED0028B129463046FFF719FC04006E
:1010F00036D1B068A8421DD3411B726910290AD3AA
:1011000050197061B16041F001034360415045F0F6
:10111000030555600BE00021B1607161131D40F0C3
:1011200003015160111D1C5844F001040C5002F1E0
:10113000080415E0F06885420DD2401BB169F060EB
:101140004A19B26140F00100506045F003054D605E
:1011500001F1080404E029463046FFF7F7FA044697
:10116000AFF300802046FFF7EEBA002800D17047A9
:101170002DE9F047A0F10805AFF30080DFF8E06447
:1011800031698D42C0F05982686800F00302012A7B
:1011900000F05382C2084FEAC209C20705EB0908F2
:1011A00039D42C6810F0030F00F0498260420544E6
:1011B0008D42A144C0F041827069854200F0C68032
:1011C000E408202C5ED2D5F80CA0AF68554508BFC6
:1011D00000F04CFABD4208BF00F048FA6868C00849
:1011E000C000B0EBC40F18BF00F040FA06F12800B1
:1011F00000EBC400874205D031698F423FD3FA68C3
:10120000AA423CD1BA452CD13068012101FA04F43C
:1012100020EA04043460454580F00F82D8F8044089
:10122000E00740F10A82A10700F16881B0698045BA
:1012300040F09F80F168B5618944C6F80C9049F090
:101240000100686071698D4202D100207061B06058
:10125000F069484580F0F38100213046FFF728FB14
:10126000EDE1824506D03069824508D3DAF80810EE
:10127000A94204D1C7F80CA0CAF80870CBE700F067
:10128000F5F9C8E7EC68AF69AC420BD0A8688842B2
:1012900022D3C168A94204BFA268AA421CD1C4607B
:1012A000A0601BE005F11402146834B905F11002C6
:1012B00014689CB101E01A46146804F1140318681C
:1012C000002802BF04F1100318680028F3D18A42F5
:1012D00002D30021116001E000F0C8F9002F9AD07C
:1012E000E96906F5987000EB81000268954209D122
:1012F0000460200011D1E8697168012282409143A5
:10130000716088E73069874205D33969A94214BF03
:101310007C613C6101E000F0A9F9002C3FF47BAF57
:1013200031698C42ABD3A761286928B1884226BFB6
:101330002061846100F09AF9686900283FF46BAF7E
:10134000316988429BD36061846164E798F8040046
:1013500000F0030003287FF45EAFC6F8089049F060
:101360000101D8F8040040084000C8F80400696092
:101370000AE0706980450AD1B16875618944C6F890
:10138000089049F00100686045F8099057E1E408C9
:10139000E400A144E408202C3AD2D8F80CA0D8F8F4
:1013A0000870D04508BF00F061F9B84508BF00F0EB
:1013B0005DF9D8F80400C008C000B0EBC40F18BF36
:1013C00000F054F906F1280000EBC400874207D072
:1013D00031698F42C0F08580FA68424540F08180D3
:1013E000BA4507D13068012101FA04F420EA040467
:1013F000346078E0824506D03069824571D3DAF8EE
:10140000081041456DD1C7F80CA0CAF808706AE011
:10141000D8F80C40D8F8187044450DD0D8F808001A
:101420003169884223D3C268424504BFA16841455F
:101430001DD1C460A0601CE008F114010C6834B92F
:1014400008F110010C68A4B101E011460C6804F128
:1014500014021068002802BF04F11002106800286E
:10146000F3D13069814202D300220A6001E000F02A
:10147000FDF8002F37D0D8F81C1006F5987000EB57
:101480008100026890450AD10460200012D1D8F88A
:101490001C007168012282409143716023E0306931
:1014A000874205D33969414514BF7C613C6101E045
:1014B00000F0DCF8BCB131698C4212D3A761D8F8D6
:1014C000100028B1884226BF2061846100F0CEF868
:1014D000D8F8140038B13169884202D36061846160
:1014E00001E000F0C3F849F00100686045F8099098
:1014F00071698D420BD1C6F80890A0E064086400C1
:10150000C8F8044049F00100686045F809904FEAC6
:10151000D907202F22D206F1280000EBC704A046ED
:10152000B9F1100F38BF00F0A1F8306820FA07F1C8
:10153000CA0705D4012101FA07F70743376006E01F
:10154000A068316988422CBF804600F08FF8A56002
:10155000C8F80C50C5F80880EC6070E05FEA19200C
:1015600008BF002123D0B0F5803F28BF1F211ED225
:10157000A0F58072120C02F008029040A0F5805194
:10158000090C01F004018840A0F580431B0CC2F156
:101590000E0203F00203521AD21A984002EBD03224
:1015A000D01D29FA00F101F0010101EB420106F51D
:1015B0009872002302EB8100E9616B612B61726814
:1015C00022FA01F3DC0707D4012303FA01F11143E6
:1015D00071600560A8611DE002681F291DBF4908F0
:1015E000C1F1190109FA01F1494600E002465068CB
:1015F000C008C000484526D002F11003C80F03EB15
:101600008003490018680028F0D13069834204D370
:101610001D60AA61ED60AD6001E000F027F8306A5E
:10162000401E30620BD1D6F8C80100E08068002867
:10163000FCD14FF0FF30306201E000F017F8AFF35B
:101640000080BDE8F087316990688A4228BF8842EF
:10165000E3D3C5609560A860EA600020A861DEE77A
:101660005C09002030BC002070470000012000F021
:1016700053B8F0B40246106895681318506803EB2D
:101680005004C0071DD54D441BE013F8017B05F83D
:10169000017B491EF9D1A0B1B60813F8011B06F071
:1016A0000306032E08BF13F8016B01EB0621494224
:1016B000801C294405D011F8016B05F8016B401E10
:1016C000F9D1A3420ED013F8016B16F0030104BF49
:1016D00013F8011BC91C30090F28DAD113F8010BCC
:1016E0000F30D6E7F0BC02F10C00704707490868DC
:1016F00008B1002070470648C008C00008600549CE
:10170000C908C900091A0160704700BF5C0D0020BC
:101710007F1100207813002080B5AFF30080024ACB
:1017200011001820ABBEFBE7260002002DE9F04FA8
:101730000FF2A41CA1B0DCE90089CDE900892A9D43
:10174000DFF8DC9B049100248DF843500D944FF09A
:10175000FF38824616461F460FE0B3462C461BF85C
:10176000011B0498D0470028049000F0A2800D9837
:10177000401C641E0D90F2D176193078252808D1CE
:10178000002100220791089209910A920B910C9274
:101790000DE06A464146304600F0BAFF050001D12F
:1017A0000D98A1E0D9D50125E6E741F0010116F831
:1017B000010F2028F9D023280CD02B2804D02D2865
:1017C00005D0302809D076E041F00201EFE741F082
:1017D0000401ECE741F00801E9E741F01001E6E718
:1017E0000F9209E00F98484505DA00EB800402EB00
:1017F0004402303A0F92761C3278A2F130000A2867
:10180000F0D330782E2818BFCDF8388022D116F8C2
:10181000010F2A2807D138683860761C50F8042B4D
:1018200038600E9216E02D280CBF761C0020002296
:101830000E920AE040B90E9A4A4505DA02EB82049C
:1018400003EB4403303B0E93761C3378A3F1300254
:101850000A2AEFD3ADF8401021A0317800F062FFE2
:1018600008B116F8010B8DF842009DF84200682877
:1018700004D1307868280AD1622105E06C2804BFC1
:1018800030786C2803D171218DF84210761C12A893
:1018900006903A4616F8013B02A9504600F064F85B
:1018A00038B912AA02A9504600F0C8F900287FF5FD
:1018B00064AF404618E02A2892D13A683A6052F85C
:1018C000040B3A6000280F9003D540420F9041F07E
:1018D0000401761C95E700000000000000000000F5
:1018E000686A6C747A4C000021B0BDE8F08F622801
:1018F00020D0682811D06A2803D06C2827D07128FE
:1019000025D10868C01D20F007000860D0E9002339
:1019100008300860194610467047002A0A680A60B5
:10192000106803D0121D0A6000B217E0121D0A6091
:1019300080B217E0002A0A680A60106803D0121DFE
:101940000A6040B20AE0121D0A60C0B20AE0002A32
:101950000A680A60106803D0121D0A60C117704738
:10196000121D0A60002170477CB50D4611461C46C9
:101970002E69B4F1250200F04F811C3A00F08480FA
:10198000121F022A40F280800E3A00F00981521F95
:1019900059D0093A78D0921E16D0521E35D0521E18
:1019A000022A71D9121F30D0521F00F09880521EA7
:1019B00049D0521E00F0E280D21E00F0FF80921E3D
:1019C00041D0D21E3FD02DE195F83A406C2C09D081
:1019D0006869421C6A610A680A6052F8043B0A603E
:1019E000335429E10A680A6052F8043B0A60009304
:1019F000002201924FF0FF332B636A46294600F024
:101A000098F9002840F1188103E195F83A00012285
:101A1000FFF76DFFC5E90001002904D56869411C85
:101A200069612D220DE0288F810704D56869411C6A
:101A300069612B2205E0C00721D56869411C6961F5
:101A4000202232541BE095F83A000022FFF74FFFA6
:101A5000C5E9000195F83800010710D5D5E9002344
:101A6000002B08BF002A0AD044F02000782806D1B5
:101A7000686930213154401C421C6A61345421464B
:101A800068693044E86087E00868C01D20F00700FE
:101A90000860D0E9002308300860C5E90023D5E9D3
:101AA0000001C80F04D06869411C69612D220DE056
:101AB000288F810704D56869411C69612B2205E0E4
:101AC000C00704D56869411C6961202232546869E5
:101AD0003044E8602146284600F036FAACE005F1D3
:101AE0003A02507820B14FF0FF340FF6043074E022
:101AF0001078622808D0682824D06A2812D06C2870
:101B00002ED071280ED02BE00A680A6052F8040B20
:101B10000A6020B94FF0FF340FF6EC205DE0E96A6F
:101B2000017089E00A680A6052F8040B0A6020B963
:101B30004FF0FF340FF6D0204FE0EA6AD317C0E928
:101B4000002379E00A680A6052F8040B0A6020B9A1
:101B50004FF0FF340FF6B0203FE0E96A01806BE000
:101B60000A680A6052F8040B0A6020B94FF0FF348B
:101B70000FF6942031E0E96A01605DE00A680A60CE
:101B800052F8040B0A60002120F0000221F0FF331C
:101B9000C5E90023EE607821284600F02DF94BE0DE
:101BA0006C2285F83A200B680B6053F8042B0B600D
:101BB00052BB4FF0FF340FF684200EE095F83A2028
:101BC0006C2AF0D00868086050F8044B0860EC609C
:101BD0003CB94FF0FF340FF6482000F0BDFD201A4D
:101BE00076BD2E6B002E04D5204600F0D5FD0446B0
:101BF00008E032460021204600F0EAFD002814BF2C
:101C0000041B3446AC6117E0294600F092F8002826
:101C100012D54FF0FF3076BD6869411C69612522FD
:101C2000325409E06969481C686125227254210018
:101C300002D0431C6B613454002076BD2DE9F04185
:101C40000E4605469046726B7069316AB46A121A84
:101C5000B069521A716A121AF069521A121A96F879
:101C60003800141B41070DD4002C0BDD2746B0684B
:101C70002021A8470028B06057D0F06A401C7F1E82
:101C8000F062F4D1736942463146284600F098FC70
:101C900000284AD1376A002F0ADDB0683021A847F2
:101CA0000028B06041D0F06A401C7F1EF062F4D181
:101CB000B369F2683146284600F082FCA8BB776A17
:101CC000002F09DDB0683021A847B06068B3F06A22
:101CD000401C7F1EF062F5D1F068B169F3694218CB
:101CE0003146284600F06CFCF8B9B76A002F09DDD0
:101CF000B0683021A847B060B8B1F06A401C7F1EC0
:101D0000F062F5D196F8380041070BD5002C09DDBB
:101D1000B0682021A847B06038B1F06A401C641E4A
:101D2000F062F5D10020BDE8F0814FF0FF30BDE852
:101D3000F0812DE9F8470D46A3B02F6B002F064622
:101D4000904648BF6FF000470FF60C1400F06CFD92
:101D5000D4E90023696B4018CDE90123812828BF0D
:101D60004FF0FF3042D20024002F33DDD8F80010AE
:101D700001AA684600F0CEFC8146B9F1000F38D4C4
:101D8000D8F8000010B9B9F1010932D44F4521DB70
:101D90006869484481280AD30021696303AA294657
:101DA0003046FFF74BFF040014D40020686103ABFA
:101DB000D5F814A04A46694603EB0A0000F03AFD44
:101DC000CA44C5F814A058F8040B002818BFA7EBA4
:101DD0000907C9D14CB903AA29463046FFF72EFF9F
:101DE000044614B9002068616863204624B0BDE849
:101DF000F0874FF0FF34F8E72DE9FC4307466F29E1
:101E00003E6908BF082405D041F02000782814BF9F
:101E10000A2410243C25D7E90023642918BF692926
:101E20009046994605D1002B03D5D8F1000869EBFF
:101E30004909B9F1000F08BFB8F1000F1FD1386B85
:101E4000E8B9082C4CD197F83800010748D5302064
:101E50003B2586F83B0043E000280ED597F8380074
:101E600000F01400102808D17B6B7969386A5B1A7E
:101E70001B1A9A1A002AC8BF3A62BDE8F3838DF88C
:101E80000010404649462246E31700F027FD303255
:101E9000D0B26D1E3A28019504DB9DF80000A0F138
:101EA00051018A187255404649462246E31700F010
:101EB00015FD80465FEA010908BFB8F1000F03D0A5
:101EC000F86871198842DCD3082C09D197F83800DA
:101ED000010705D5705D302802D06D1E3020705589
:101EE000C5F13C02BA617119F960386B8242B3DA0C
:101EF000821A3A624FF6EF70398F01403987BDE898
:101F0000F3832DE9D04306460F4614464FF00008F0
:101F1000DFF8109412E0E00707D542464B46304602
:101F2000394600F0F3FD06460F4640464946424614
:101F30004B4600F0EBFD641080468946002CEAD148
:101F400030463946BDE8D0832DE9F84F05468A462C
:101F50004AF020048EB0D5E90089612C02AE09D088
:101F6000286B002848BF062003D408BF672C01D186
:101F700001202863D5E900014A005215521C0DD1F9
:101F80000B030BD0AAF1610103201A29A86102D228
:101F90000FF2CC6110E00FF2CC610DE04A00521557
:101FA000521C0ED10B030CD1AAF1610103201A2996
:101FB000A86116D30FF2B461E868032200F03AFC7E
:101FC000C0E1CDE90C01DDE90C2323F00043B3F5BA
:101FD000801F0DD20027002B08BF002A019703D1D4
:101FE00011E00FF28461E7E701AA00F061FE0AE068
:101FF000CD48CE4900EB1350DDE90C2301900B4096
:10200000CB4910461943C5E90001612C0DD1E868A0
:1020100030210170821CBAF1610FEA600CBF782197
:10202000582141706869801C6861D5E90001CDE9DB
:102030000C01DDE90C2333F0004104BF002800232C
:1020400000F04881612C40F0A080286B49460028B0
:102050004CBF4FF0210B00F1010B40460022002342
:10206000DDE90C8900F05CFE01990BF1010738BF36
:1020700089F00049091F002F01918DF808200DF10A
:10208000090040F33581A94900910646404649467A
:102090000022002300F05CFE80F029814800400D02
:1020A00000F11C0211D0002A0FDD40F2FF739A42AA
:1020B00005DBA04909F000400143002011E0009B2E
:1020C000194041EA025140460BE028F0000039F087
:1020D000004108BF00280FBF49461C22494600F0B6
:1020E0004FFE8046894600F0E9FEFF1F002F0446A0
:1020F00009DD00F001FF02460B464046494600F06C
:102100000DFF80468946F01D072104E004F00F0210
:1021100000F8012D2411002C01DD491EF6D5491EC1
:102120005CBF002200F8012DF9D5DCE00020194643
:1021300002AA0A4400E05B1E12F80149491E8442CB
:10214000F9D00F2804D10DF10900425C521C425411
:10215000002904D50198001D02AE5B1C0190581E99
:102160000CD43118AAF13A040A783032D7B23A2F97
:10217000A8BFA218401E01F80129F5D5286B002838
:1021800040F1A780591E2963A3E001996A4A47F2EA
:102190009750414391FBF2F2019229F00046D2F1AF
:1021A000070204DD40463146FFF7ABFE0AE052422B
:1021B00000206249FFF7A5FE02460B464046314625
:1021C00000F01EFF8046662C286B06BF019F0A3771
:1021D00006273F18142FC8BF142730208DF8080099
:1021E00089460DF1090000E03046002F34DD064637
:1021F0004046494601F028F801460A4606F1080320
:1022000004200A26B2FBF6F606EB860EA2EB4E027F
:10221000303203F8012C0A22B6FBF2F202EB820EF6
:10222000A6EB4E063036401E03F8026DE9D1083F9A
:10223000002F03F10806D7DD084601F019F8024621
:102240000B464046494600F069FE00223C4B00F038
:102250005DFC80468946CBE70DF10901401A0DF17E
:10226000090604E00199491E401E0191761C31784F
:102270003029F7D0662C02D10199491C03E0652C66
:102280000CBF012100212B6BCB189842B8BF431E15
:10229000002B1ED4834204DAF05C3528A8BF392015
:1022A00000DA30201946721E02EB010800E05B1EC6
:1022B00018F80199491E8145F9D0392802D1705C7E
:1022C000401C7054002904D50198401C16465B1C24
:1022D0000190019800B200901BB232465146284648
:1022E00000F034F82EE0C61D002F3FF7CFAE304689
:1022F0000DF10901401A03465845C8BF5B46002B43
:102300000DF109063FF53AAF8342BFF60FAF0DF16D
:102310000900C15C07297FF709AF0F2007E700001C
:10232000CBCCCC0C0000244002FCFFFFFFFF0F8051
:102330000000E03F0000F07FA08601000000F03FB9
:1023400084D797410FB0BDE8F08F00002DE9F84722
:1023500083B006468A461746984600F0DDF9B8F184
:10236000000F406A356B90F8009002DC4FF00108D6
:10237000BFA74AF02000BDF93040662808BF641CA2
:1023800015D0672840F0848014F1040FC0F28680D5
:10239000AC4280F2838096F83800641C010702D4B6
:1023A000A845B8BF454620B22D1A48BF00250FFAF0
:1023B00084FAF068B169BAF1000F25DC4A1C3023B9
:1023C0004354002D03DC96F83800010703D5F0686C
:1023D00000F80290521C15EB0A0FB8BF6C4220B2F5
:1023E000441941424445B8BFA046B26171620FFA38
:1023F00088F5F561F068B3692A463946184400F05B
:1024000019FA641BB462C4E022B29045084417DA9A
:102410004246394600F00EFAB0694044B061AAEB7A
:102420000801002D716203DC96F838100A0705D503
:10243000F16801F80090F069401CF061B562A8E015
:10244000394600F0F7F9B069002D5044A8EB0408B4
:1024500003DC96F838100A0703D5F16801F80090FC
:10246000401CB0610FFA88F08542F368B069B8BFCC
:10247000A8460FFA88F207EB0A01184400F0DAF9CF
:10248000B1690FFA88F00144B161281A706280E0E6
:10249000BAF1610F14D14FF0700A16E0A84504DAC2
:1024A00096F838100A0758BF45466D1E48BF0025EC
:1024B000BAF1670F14BF4FF0450A4FF0650A04E008
:1024C000BAF1410F08BF4FF0500AB169F368481CD8
:1024D000B061002D17F8012B5A5403DC96F8381020
:1024E0000A071BD5F168431CB36101F80090002D69
:1024F00014DDA8F101080FFA88F039468542F76823
:10250000B8BFA8460FFA88F2F81800F093F9B0693E
:102510000FFA88F108446D1AB0617562F068B1690C
:102520000844002C80F800A003D42B224270811CA8
:1025300003E02D2141706442811C00206A460AE0BC
:1025400023460A2493FBF4F404EB8405A3EB450330
:1025500002F8013B401C24B2002CF1DC012806DC0F
:102560004AF02002652A04BF302201F8012B48B945
:10257000302001F8010B07E0401E1DF80030303319
:1025800001F8013B0028F7DCF268B0691044091A31
:10259000F16196F8380000F0140010280DD172692E
:1025A000B169706A8A18F1698218B06A8A1882184B
:1025B000706B8242BCBF821A326204B0BDE8F08701
:1025C000F8B505460E4617461C46002074B117F8AC
:1025D000011BB068A847B06030B1F06A401CF062DF
:1025E0000020641EF3D1F2BD4FF0FF30F2BD0000B9
:1025F0007072696E74665F733A20256E2064697329
:10260000616C6C6F776564007072696E74663A20F5
:1026100062616420256E20617267756D656E74005D
:102620007072696E74665F733A206261642025730C
:1026300020617267756D656E740000007072696E5E
:1026400074665F733A2062616420256C7320617246
:1026500067756D656E7400000000000000000000EA
:102660006E616E004E414E00696E6600494E460036
:10267000300030B4002513E050F8042BD30744BFDA
:10268000A9F101039A18091F042942F8045BFAD240
:1026900013468C0744BF15809B1CC90748BF1D709B
:1026A00050F8041B0029E7D130BC70471B48704725
:1026B00070B45368D418042B09DA41B1057804F8D2
:1026C000015B10F8016B16B15B1C491EF3E7536008
:1026D00070BC704738B514461D4661B1FFF7E8FF7E
:1026E00061686A6B204690476FF00102811A02D040
:1026F000491E01D001E003E005E00021616032BD28
:102700006FF0010032BD4FF0FF3032BDDA6B104781
:10271000024BDFE7014BF9E70148704760000020FA
:1027200028000020C9B202788A421AB11CBF10F8F2
:10273000012FF9E718BF00207047B1F5807F02D361
:102740004FF0FF3070470170012070470078401E45
:102750008041C043C00F704780B500B906A005494D
:102760000B681BB122220021984701E0FEF77EFF93
:10277000222002BD600D0020636F6E737472616968
:102780006E742068616E646C65723A2062616420C8
:102790006D6573736167650000F10103810704D003
:1027A00010F8011B820781B1FAD10268A2F1013150
:1027B000914311F0803104BF50F8042FF6E709BAB5
:1027C000B1FA81F100EBD100401CC01A7047000043
:1027D000C9B2830706D0521E22D310F8013B99429A
:1027E000F7D11FE0083A13D302F1040241EA0121B4
:1027F00041EA014150F8043B121F21BF4B40A3F1B5
:10280000013C2CEA030C1CF0803FF3D0C9B2001F3E
:10281000083210F8013B521E28BF91EA030FF8D886
:1028200018BF0120401E704780B5FFF73FFF006CC6
:1028300002BD000062B38B0708D0521E11F8013BA5
:1028400000F8013B00F024808B07F6D1830740F0AD
:10285000208000BF103A07D330B4B1E83810103AE6
:10286000A0E83810F9D230BC530724BFB1E80810F3
:10287000A0E8081044BF51F8043B40F8043BD207DD
:1028800024BF31F8022B20F8022B44BF0B780370D1
:102890007047121F17D35B0009D151F8043B20F891
:1028A000023B1B0C121F20F8023BF6D20BE051F842
:1028B000043B00F8013B1B0A20F8023B1B0C121FD3
:1028C00000F8013BF3D238BF121D521E24BF11F88D
:1028D000013B00F8013BF8D870470000BBBBE1B1F9
:1028E000B2F5803F80F07E80022A1ED98C46B1FB73
:1028F000F2F102FB11C31B0443EA1043B3FBF2FCE9
:1029000002FB1C3380B240EA0343B3FBF2F002FB4C
:10291000103240EA0C4000237047022A05D9844651
:10292000B0FBF2F002FB10C270474AB105D100F0D3
:10293000010249085FEA3000704700220023704717
:1029400000F0A4BC0B000200002100207047904260
:1029500071EB030CF6D3B3F5803F2FD2F0B5B3FA89
:1029600083F7B1FA81F4A7F10F0E3D1B5340CEF16E
:10297000200602FA0EF2F3415340B5F10F0746D894
:102980000F3C2C444140C4F12006A040F14141409D
:10299000B1FBF3F603FB1611A2FB0645001BA94190
:1029A00002D2761E8018594180EA010221FA0EF304
:1029B00062FA0EF200215A403046F0BD30B4B1FB4D
:1029C000F3FC03FB1C11A2FB0C45001BA94103D225
:1029D000ACF1010C8018594130BC02460B466046F0
:1029E00000217047B2F1807F65D3F0B5B2FA82F76B
:1029F000B1FA81F4C7F10F063D1B22FA06F307F185
:102A0000110EF24120355A40B5F10F07B8D94140B7
:102A1000C4F12006A040F1414140B1FBF3FC03FBAF
:102A20001C11A2FB0C45001BA94103D2BCF1010CF7
:102A3000801859410F2F12D30F3FC90341EA50416B
:102A4000B1FBF3F603FB1611A2FB0645D4EBC03035
:102A5000A94102D2761E8018594146EACC3C07B300
:102A60004140C7F12006B840F1414140B1FBF3F6C7
:102A700003FB1611A2FB0645001BA94102D2761EDC
:102A80008018594180EA010221FA0EF3C7F12004AF
:102A900062FA0EF20CFA07F05A402CFA04F13043B5
:102AA000F0BD80EA010221FA0EF3002162FA0EF273
:102AB00060465A40F0BD8C46B1FBF2F102FB11C3F7
:102AC0001B0243EA1063B3FBF2FC02FB1C331B0244
:102AD0004CEA002043EA1063B3FBF2FC02FB1C3318
:102AE0001B024CEA002043EA1063B3FBF2FC02FB3A
:102AF0001C331B024CEA002043EA1063B3FBF2FCD8
:102B000002FB1C324CEA002000237047B0B581EA7A
:102B1000030C0CF0004C40F2FF7515EA11541DBF78
:102B200015EA1357AC42AF4239E0E41923EA4553A2
:102B300043F48013C90241F0004141EA505EC702EC
:102B40001100A7FB020200284FF00000EEFB01205D
:102B50004FF00001E3FB072118BF42F001024018CB
:102B600000214941E3FB0E01A4F580640F0302D26A
:102B700052004041494154F101046CDD470872F1B3
:102B8000004250F1000051EB0451A1F580115CBFEF
:102B900041EA0C01B0BD4CEA05510020B0BD05EA88
:102BA0001357AC4214BFAF4241E050EA410E1CBF84
:102BB00052EA430E02E061460020B0BD24423C448C
:102BC0001BD15FEA070EF6D0090302BF01460020C1
:102BD000AEF1140EB1FA81F7AEEB070401FA07FE6D
:102BE0000C37C7F1200100FA07F7C8404EEA000E83
:102BF00023EA455343F48013A2E733F00043B3FACA
:102C000083F704BFB2FA82FE77440B3FE41BB7F1AF
:102C1000200E2FBF02FA0EF3BB40C7F1200E22FA9E
:102C20000EFE38BF43EA0E03BA40641C82E750EA46
:102C3000410E14BF52EA430E6FF000014FF400172B
:102C400017EB430F8ABF194617EB410FB5E74CEA64
:102C500005510020B0BDD4F10104B4F120070FDA12
:102C6000C4F12007520828BF42F0010210FA07F50C
:102C700001FA07F7E1BF2A43E0403843E1400FE0A3
:102C8000352C98DCC7F1200452EA400220FA07F202
:102C900018BF42F0010231FA07F0A1400A430021B7
:102CA00072F1004250F1000051EB0C01B0BD000088
:102CB00010B5144600F002F8226010BDC1F30A53AB
:102CC00043B14A0012F5001F28D2A3F2FE32A1EB55
:102CD0000251704750EA410C20D001F0004C31EA1B
:102CE0000C01B1FA81F204BFB0FA80F3D2180B3AAA
:102CF000B2F120032CBF00FA03F1914041EA0C012C
:102D00003EBFC2F1200C20FA0CF31943904052420E
:102D100040F2FD33D21A01EB035170470022704795
:102D20004FF4001C1CEB410F94BF1CEB430F09E058
:102D300041EA030C50EA4C0C52EA0C0C03D29942C3
:102D400008BF9042704714BF8B4282427047000018
:102D50004FF4001C1CEB410F94BF1CEB430F09E028
:102D600041EA030C50EA4C0C52EA0C0C03D28B42A1
:102D700008BF8242704714BF9942904270470000DA
:102D8000124254D440F2FF7C1CEA11530FD0634529
:102D900031D09B1863453CBF01EB0251704701F0F5
:102DA000004141EA0C510020AFF30080704750EA27
:102DB000410320D001F0004C91EA0C011CD0B1FA83
:102DC00081F30B3B9A420DD9D21A994051EA0C017A
:102DD000C3F1200C20FA0CFC61449840531C40F2D3
:102DE000FF7CD7E7914041EA0C01C2F1200C20FAA8
:102DF0000CF3194390407047B0FA80F31533202B41
:102E0000E0D3202AEED3203A203B9A4209D9D21AA5
:102E100000FA03F141EA0C010020531C40F2FF7C50
:102E2000B8E700FA02F141EA0C0100207047524273
:102E300040F2FF7C1CEA11530DD06345DBD0B2EBAE
:102E4000030C3CBFA1EB025170470CF1010221EAD7
:102E5000035141F4801150EA410CCCD001F0004CF8
:102E6000352A27DC30B481EA0C01B2F1200309DAFB
:102E7000C2F12003044601FA03F5D0402843D140B3
:102E80009C400CE0C3F12002450020FA03F418BF77
:102E900044F0010421FA03F091400C43002174F145
:102EA000004550F1000051EB0C01244230BC7FF48E
:102EB0007BAF70476146002076E70000C1F30A53FC
:102EC00040F2FE329B1A14DDD3F120034FEAE17287
:102ED00008DDC90241EA505141F00040D840801855
:102EE0005040704703F2E13010B1D24382F000400D
:102EF0007047002070470000C11768B14840401A71
:102F0000B0FA80F29040D21CC907C2F5846241EA4F
:102F1000025202EBD02140057047000070B44FF020
:102F2000004591EA030F40F1B3816B40841A71EBC5
:102F3000030603D2001BB141121973414FF4001C68
:102F40001CEB410F34BF7CEB430442E00C0DA4EBBF
:102F50001356352E4FDC45EAC323DB0A45EAC1216F
:102F6000C912B6F120050DDD63FA05F6EB4086EADD
:102F70000305124218BF45F00105C01851F10001C8
:102F80000CD213E062FA06F5F2405540F3415A4084
:102F9000B340F3405A408018594107D349085FEACB
:102FA00030005FEA350528BF45F0010501F58011C5
:102FB000420875F1004250F1000041EB04514E000F
:102FC00016F5001F70BC38BF70470020090D0905B9
:102FD00070471CEB410F10D252EA43060BD0BCEBFA
:102FE000410F05D80C0DAB43661E342EB6DD02E052
:102FF000AB438018594170BC704770BC70470000EB
:10300000F0B540F2FF7581EA030C0CF0004C15EAB4
:1030100011541DBF15EA1357AC42AF42E5E0BC4165
:10302000C1F31301C3F31303801A994143F48013CE
:1030300004D2641E4000494180185941C90241EA46
:103040005051B1FBF3F603FB1611A2FB0675D7EB4B
:10305000C020A94102D2761E80185941C90241EA16
:103060005051B1FBF3FE03FB1E11A2FB0E75D7EB13
:10307000C020A94103D2AEF1010E80185941890246
:1030800041EA9051760546EA8E2EB1FBF3F603FB3A
:103090001611A2FB0675D7EB8020A94102D2761E3D
:1030A00080185941C90241EA50514EEA060EB1FB5F
:1030B000F3F603FB1611A2FB0675D7EBC020A9415E
:1030C00002D2761E80185941C90241EA5051B1FB23
:1030D000F3F703FB1711A2FB0735D3EBC020A9417F
:1030E00067F100070CBF004247F0010766F3D527E0
:1030F0004FEA1E31B80814F5806412DDBD0775F182
:10310000004250EB0E5051EB045111F5801F5CBF93
:1031100041EA0C01F0BD4CF07F6141F0E04100203C
:10312000F0BDBD076D0840EA0E5041F48011D4F1A6
:103130000104B4F120060ADAC4F120060200E040DE
:1031400001FA06F3E1401843B24015430EE0342C77
:1031500013DCC6F1200445EA40056D0820FA06F2AA
:10316000154321FA06F0A1400D43002175F10042FC
:1031700050F1000051EB0C01F0BD00205FEA0C01A2
:10318000F0BDCFB992185B41B3FA83F704BFB2FA2E
:1031900082F6BF190B3FB7F120062FBF02FA06F3E4
:1031A000BB40C7F1200622FA06F638BF3343BA40C7
:1031B0001CB1E419641E33E77F4231F00041B1FADB
:1031C00081F404BFB0FA80F6A4190B3CB4F12006D8
:1031D0002FBF00FA06F1A140C4F1200620FA06F63E
:1031E00038BF3143A0403C1B1AE7AC421ABF05EA86
:1031F0001357AF4212E050EA41061CBF52EA4306A1
:10320000BFE750EA4107304661461CBF41EA05511D
:10321000F0BD52EA430C08BFC143F0BD00204FF49B
:10322000001616EB410F98BF16EB430F08BF16EBC5
:10323000410F24BFC14305E016EB430F0CBF6146AD
:103240004CEA0551F0BD0000400D491840EA8120CC
:103250000CD2490DA1F58061491C40F0004005DB0E
:10326000D1F11F0154BFC840C017704700207047FC
:10327000014648B1B0FA80F18840C91CC1F58461AB
:10328000090501EBD02140057047000070470000A0
:10329000841A71EB030604D26E40001BB14112196F
:1032A00073414FF4001C1CEB410F34BF7CEB430611
:1032B00083E00C0DA4EB1356362E00F37C80012E18
:1032C00045EAC32341DC43EA525312BFD2029202C1
:1032D0005B08240545EAC12141EA5051D2EBC020E8
:1032E000994125D407D1B0FA80F610FA06F162D0E0
:1032F0000020203608E0B1FA81F6B140C6F1200284
:1033000020FA02F21143B0404FEAF474B4EB465491
:1033100034F001064FEA74040AD8D6F50016760D8B
:1033200004F00044F04061FA06F25040F140484099
:10333000C00A40EA415021F0004128BF5FEA500531
:1033400050F1000044EBD12135E0DB0A45EAC12110
:10335000C90AB6F120050EDD42EA0242120CC5F19F
:10336000200603FA06F6EB4042EA06056D42984154
:1033700061F100010DE062FA06F5F240554063FA92
:1033800006FC82EA0C02F3405A406D42904161EB28
:10339000030111F4801F05D1641E620502D06D0087
:1033A0004041494121F48011430875F1004350F137
:1033B000000041EB045170BC70471CEB410F15D26B
:1033C00023F0004352EA43060BD04FEA4C0CBCEB0F
:1033D000410F04D80C0D661E342EB7DDEBE7801AC2
:1033E000994150EA410608BF0021E4E708BF1CEB01
:1033F000430F28BF6FF00001DDE7000070B5DFF874
:103400005849206850F00100206000F013FD0500CD
:103410002068800706D400F00DFD401B0328F7D379
:1034200003205EE0206830F0F00050F06000206083
:10343000DFF8285900202860DFF82409DFF8241974
:103440000860DFF8A009006800F0FAFC002801D04D
:10345000012046E000F0EEFC0600286810F00C0F9A
:1034600008D000F0E7FC801B41F289318842F4D398
:10347000032036E02168DFF870090140216000F088
:10348000D9FC0500206810F0206F06D000F0D2FCB7
:10349000401B0328F6D3032023E0DFF85009002166
:1034A0000160016851F480510160DFF84409002196
:1034B0000160016851F480510160206830F480207F
:1034C00020600020DFF82C1908605FF0FF30DFF883
:1034D00028190860DFF82409016851F4000101602F
:1034E000002070BD2DE9FC470500002D01D1012011
:1034F00022E3DFF86888D8F8004014F00C04DFF805
:10350000EC783E6816F003062878C00640F1AC80DF
:10351000002C03D00C2C76D1012E74D1DFF8389812
:10352000D9F80000800704D5A869002801D101203E
:1035300002E3D9F80000000704D5D9F8000010F024
:10354000F00005E0DFF8B4080068000910F0F000B2
:10355000296A884237D2286A00F006FC002801D088
:103560000120E9E2D9F8000050F00800C9F8000095
:10357000D9F8001031F0F001286A0143C9F80010B1
:10358000DFF87C08016831F47F41EA6951EA0221E1
:10359000016000F077FBDFF86C18D8F80020C2F368
:1035A0000312895C11F01F01C840DFF8B8170860EA
:1035B000DFF83008006800F043FC0100C9B20029C0
:1035C00052D0C0B2B8E2D9F8000050F00800C9F8F3
:1035D0000000D9F8001031F0F001286A0143C9F861
:1035E0000010DFF81C08016831F47F41EA6951EAF4
:1035F00002210160002CCCD1286A00F0B5FB002824
:10360000C7D0012098E2A869002840D0DFF8488799
:10361000D8F8000050F00100C8F8000000F00AFCE3
:103620008146D8F80000800707D400F003FCB0EB17
:1036300009000328F5D303207EE2D8F8000050F0FB
:103640000800C8F80000D8F8001031F0F001286A2E
:103650000143C8F80010DFF8A807016831F47F4182
:10366000EA6951EA022101602878C0076DD5082C6B
:1036700003D00C2C22D1032E20D1DFF8DC06006809
:10368000800362D5686800285FD1012054E2DFF82A
:10369000C886D8F8000040084000C8F8000000F0D4
:1036A000C9FB8146D8F800008007DDD500F0C2FBD9
:1036B000B0EB09000328F5D303203DE26868B0F5BC
:1036C000803F06D1DFF89006016851F48031016037
:1036D00018E06868B0F5A02F0AD1DFF87C06016811
:1036E00051F480210160016851F48031016009E0EA
:1036F000DFF86406016831F480310160016831F45B
:1037000080210160686800280FD000F093FB80469C
:10371000DFF844060068800317D400F08BFBB0EBA1
:1037200008006528F4D3032006E200F083FB8046FE
:10373000DFF824060068800307D500F07BFBB0EBC0
:1037400008006528F4D30320F6E12878800718D50F
:10375000042C03D00C2C30D1022E2ED1DFF8F8052A
:103760000068400504D5E868002801D10120E3E1A4
:10377000DFF88C06016831F0FE412A6951EA0261E6
:1037800001602878000767D5686900284ED0DFF807
:103790006C86D8F8000050F00100C8F8000000F076
:1037A00049FB0600D8F80000800755D400F042FB22
:1037B000801B0328F6D30320BEE1E86800281FD051
:1037C000DFF89485D8F8000050F48070C8F8000045
:1037D00000F030FB0600D8F80000400506D400F0E9
:1037E00029FB801B0328F6D30320A5E1DFF8100690
:1037F000016831F0FE412A6951EA02610160C0E7C7
:10380000DFF85485D8F8000030F48070C8F8000064
:1038100000F010FB0600D8F800004005B1D500F01C
:1038200009FB801B0328F6D3032085E1DFF8CC8554
:10383000D8F8000040084000C8F8000000F0FAFA8C
:103840000600D8F80000800706D500F0F3FA801BC8
:103850000328F6D303206FE12878400740F17F80EA
:103860005FF00008DFF8A0653068C0000AD4306857
:1038700050F080503060306810F080500090009818
:103880005FF00108DFF88495D9F80000C00514D472
:10389000D9F8000050F48070C9F8000000F0CAFAAE
:1038A0008246D9F80000C00507D400F0C3FAB0EB97
:1038B0000A000328F5D303203EE1A868012806D1B9
:1038C000DFF84C05016851F00101016017E0A868BC
:1038D00005280AD1DFF83805016851F004010160BC
:1038E000016851F00101016009E0DFF82405016879
:1038F000490849000160016831F004010160A868CD
:10390000002811D000F096FA8146DFF8040500681F
:1039100080071BD400F08EFAB0EB090041F2893128
:103920008842F2D3032007E100F084FA8146DFF8F1
:10393000E0040068800709D500F07CFAB0EB0900CC
:1039400041F289318842F2D30320F5E05FFA88F82A
:10395000B8F1010F03D1306830F080503060287822
:1039600080062ED5686A002815D0DFF8A884D8F81C
:10397000000050F00100C8F8000000F05BFA0600FB
:10398000D8F8000080071CD400F054FA801B0328EC
:10399000F6D30320D0E0DFF87C84D8F8000040089C
:1039A0004000C8F8000000F045FA0600D8F8000012
:1039B000800706D500F03EFA801B0328F6D30320CB
:1039C000BAE0A86A002800F0B680A86A022840F091
:1039D0008F80386810F00301EA6A914222D110F01A
:1039E00070012A6B521EB1EB021F1BD110F4FE4175
:1039F0006A6BB1EB022F15D110F07841AA6BB1EBD5
:103A0000C26F0FD110F4C001EA6B5208521EB1EB25
:103A1000425F07D110F0C060296C4908491EB0EB25
:103A2000416F4BD00C2C47D0DFF82C43206840016D
:103A300001D5012080E0206830F08070206000F027
:103A4000F9F906002068800106D500F0F3F9801B23
:103A50000328F7D303206FE03968DFF8BC03014087
:103A6000E86A0143286B401E51EA0011686B51EA75
:103A70000021E86B4008401E51EA4051286C400884
:103A8000401E51EA4061A86B51EAC061396020686C
:103A900050F080702060386850F08070386000F01E
:103AA000C9F905002068800145D400F0C3F9401B26
:103AB0000328F7D303203FE001203DE0DFF89842E0
:103AC0002068800137D4206850F08070206038680A
:103AD00050F08070386000F0ADF90500206880017A
:103AE00029D400F0A7F9401B0328F7D3032023E0D3
:103AF0000C2C1ED0DFF86042206830F0807020600F
:103B00002068000103D43868800880003860396874
:103B1000DFF808030140396000F08CF905002068E7
:103B2000800108D500F086F9401B0328F7D3032055
:103B300002E0012000E00020BDE8F6872DE9F04119
:103B400004000E00002C01D1012099E0DFF8D052D2
:103B5000286810F00700B0420BD22868C008C000E7
:103B600030432860286810F00700B04201D00120DF
:103B700086E02078C00740D56068032806D1DFF8CA
:103B8000D801006880011CD4012079E06068022817
:103B900006D1DFF8C4010068800312D401206FE071
:103BA0006068002806D1DFF8B0010068800708D4FB
:103BB000012065E0DFF8A0010068400501D4012084
:103BC0005EE0DFF898713968890889006068014310
:103BD000396000F02FF98046386810F00C006168F9
:103BE000B0EB810F09D000F025F9B0EB080041F2ED
:103BF00089318842F0D3032042E02078800706D53F
:103C000056490A6832F0F002A06802430A60286848
:103C100010F0070086420BD22868C008C00030436D
:103C20002860286810F00700B04201D0012027E08A
:103C30002078400706D549490A6832F4E062E06816
:103C400002430A602078000707D54448016831F430
:103C50006051226951EAC201016000F013F8DFF8F7
:103C6000A4113E4A1268C2F30312895C11F01F01CD
:103C7000C8403C4908605B48006800F0E1F8C0B209
:103C8000BDE8F08110B4002300213448006810F032
:103C90000C00564A146814F00304002803D00C28C2
:103CA00014D1012C12D12C4B1C68240704D4534B83
:103CB0001B68C3F3032302E01B68C3F30313594CCF
:103CC00054F82330002808D1190006E0042801D157
:103CD000554902E0082800D154490C281CD110682D
:103CE00010F00300022802D0032802D003E04E4B5C
:103CF00001E04E4BFFE71068C0F30211491C106849
:103D0000C0F306204343B3FBF1F01168C1F34161F6
:103D1000491C4900B0FBF1F1080010BC7047114884
:103D20000068704780B5FFF7FAFF41490B4A1268F7
:103D3000C2F30222895C11F01F01C84002BD80B5A8
:103D4000FFF7EDFF3A49054A1268C2F3C222895CC7
:103D500011F01F01C84002BD0010024008100240CF
:103D600000093D00240000207CB505000024264EFB
:103D70003068C00002D500F091F80EE0306850F0D5
:103D800080503060306810F080500090009800F053
:103D900085F8316831F080513160B0F5007F07D18E
:103DA000812D10D3A12D01D302240CE001240AE0BF
:103DB000812D01D3032406E0802D01D1022402E0ED
:103DC000702D00D1012416480168C908C90021439B
:103DD0000160006810F00700A04201D0012000E05F
:103DE000002076BD00000020FFF4FEFA0C10024017
:103DF000101002401810024020100240941002409F
:103E000004100240406A0008581002400070004050
:103E100090100240981002408C809D01FFFFEEFE42
:103E2000002002409C6800080024F40000127A0080
:103E3000786A000801480068704700BF580D0020EC
:103E400038B5040000251249087800281BD04FF42B
:103E50007A700978B0FBF1F00E490968B1FBF0F017
:103E600000F0E5F800280CD1102C08D20022210027
:103E70005FF0FF3000F0C5F80748046004E001255A
:103E800002E0012500E001252800C0B232BD00BFDC
:103E9000F00000202400002000000020DFF87C005B
:103EA000006810F4C0607047B0F5007F25D1DFF8DE
:103EB0006C00016811F4C061B1F5007F2BD001687E
:103EC00031F4C06151F400710160DFF85400016801
:103ED00032204143DFF84C00B1FBF0F0401C00E021
:103EE000401EDFF844100A68520501D50028F7D1BA
:103EF000086840050FD503200EE0DFF820000168B8
:103F000011F4C061B1F5806F05D0016831F4C06172
:103F100051F4806101600020704700000070004093
:103F20002400002040420F001470004010F00700F1
:103F3000414B1A684FF6FF010A40404951EA0021FF
:103F40000A431A6070473C480068C0F3022070477B
:103F5000010049B2002908D4012210F01F018A4053
:103F6000374940B2400941F820207047020052B260
:103F7000002A04D40901334A40B2115407E0090170
:103F8000314A40B210F00F00104400F8041C704792
:103F900010B410F00700D0F10703052B01D3042360
:103FA00001E0D0F10703041D072C01D2002000E03E
:103FB000C01E012414FA03F35B1E1940814014FA59
:103FC00000F0401E1040084310BC704780B5411EF1
:103FD000B1F1807F01D301200EE0401E1B49086033
:103FE0000F215FF0FF30FFF7C1FF00201849086084
:103FF000072018490860002002BD80B5FFF796FF32
:1040000001BD70B504000D0016000020FFF79BFFF6
:1040100032002900FFF7BCFF0100200040B2FFF78B
:10402000A5FF70BD80B540B2FFF792FF01BD80B51E
:10403000FFF7CCFF02BD00000CED00E00000FA0528
:1040400000E100E000E400E018ED00E014E000E032
:1040500018E000E010E000E010B50400002C01D1F1
:10406000012035E0A0690028FFD1606F002805D14C
:10407000002084F87000200000F0EEFC242060672F
:10408000206800684008400021680860200000F0B7
:10409000C5F9012801D101201AE0606A002802D088
:1040A000200000F017FB2068406830F49040216841
:1040B00048602068806830F02A00216888602068A5
:1040C000006850F0010021680860200000F06FFBDC
:1040D00010BD2DE9FC4106000D0014001F00706F9B
:1040E00020285AD1002D03D0200080B2002801D111
:1040F000012053E096F87000012801D102204DE024
:10410000012086F870000020F06721207067FFF71B
:1041100091FE8046A6F85040A6F85240B068B0F52F
:10412000805F04D13069002801D1002401E02C0017
:104130000025002086F8700011E02078316808859D
:10414000641C07E0002CF8D12888C005C00D316838
:104150000885AD1CB6F85200401EA6F85200B6F80D
:10416000520000280AD000974346002280213000E8
:1041700000F051FB0028E5D003200FE000974346F4
:1041800000224021300000F046FB002801D003202F
:1041900004E020207067002000E00220BDE8F681E6
:1041A000836F202B6AD1002903D013009BB2002B10
:1041B00001D1012063E090F87030012B01D1022081
:1041C0005DE0012380F870304165A0F85820A0F828
:1041D0005A20002101668168B1F5805F0BD1016929
:1041E000002904D140F2FF11A0F85C1023E0FF2168
:1041F000A0F85C101FE0816800290AD1016900293C
:1042000003D1FF21A0F85C1015E07F21A0F85C101D
:1042100011E08168B1F1805F0AD10169002903D101
:104220007F21A0F85C1006E03F21A0F85C1002E0BE
:104230000021A0F85C100021C1672221816701687C
:10424000896851F00101026891608168B1F5805F71
:1042500006D10169002903D1DFF8B811016602E037
:10426000DFF8B4110166002180F870100168096858
:1042700051F4907100680160002000E00220704756
:1042800038B504002068C169206802682068836826
:1042900040F60F00084000280AD18D0608D5950683
:1042A00006D5206E002802D02000216E8847AFE09E
:1042B000002800F08E80D80704D4DFF8F40302420F
:1042C00000F0878011F00100C0B2002808D0D005AE
:1042D00006D5012025682862E06F50F00100E067F4
:1042E00088070BD513F00100C0B2002806D00220C9
:1042F00025682862E06F50F00400E06748070BD59E
:1043000013F00100C0B2002806D0042025682862FE
:10431000E06F50F00200E06708070DD5900604D466
:1043200013F00103DBB2002B06D0082023681862CB
:10433000E06F50F00800E067080509D5500107D587
:104340004FF4006023681862E06F50F02000E067CF
:10435000E06F00283CD0880607D5900605D5206E72
:10436000002802D02000216E8847E06F216889680C
:10437000490602D410F0280F25D0200000F0A3FA3F
:104380002068806840061AD52068806830F04000B8
:1043900021688860E06E00280DD00FF24D50E16E6C
:1043A0008863E06E00F0DAFB002811D0E06EE16E69
:1043B000896B88470CE0200000F0FCFB08E020003F
:1043C00000F0F8FB04E0200000F0F4FB0020E067C0
:1043D0001EE0C80209D5580207D55FF48010216895
:1043E0000862200000F0E7FB12E0080608D510067E
:1043F00006D5606E002802D02000616E884707E075
:10440000480605D5500603D5200000F079FAFFE7ED
:1044100031BD00007F4900081D49000838B504007F
:104420000025A44920688842FFD0A2682069024381
:1044300060690243E0690243206803689E480340C4
:104440001A43206802602068426832F44052E068F3
:10445000024320684260A2692068884201D0206A35
:1044600002432068806830F4306002432068826034
:104470002068924A904215D19148006810F00300DC
:10448000002805D0022805D006D3032806D007E06F
:1044900001205BE0022059E0042057E0082055E0AD
:1044A000102053E02068874A904216D18448006863
:1044B00010F00C00002806D0042808D0082804D0EA
:1044C0000C2806D007E0002040E002203EE0042057
:1044D0003CE008203AE0102038E020687A4A904218
:1044E00016D17748006810F03000002806D0102858
:1044F00008D0202804D0302806D007E0002025E08E
:10450000022023E0042021E008201FE010201DE00D
:104510002068884219D16A48006810F44060002879
:1045200009D0B0F5806F0AD0B0F5006F05D0B0F5B6
:10453000406F06D007E0002008E0022006E00420DB
:1045400004E0082002E0102000E0102022688A42E7
:104550003DD1C0B2002806D0022808D0042808D0D7
:1045600008280AD00CE0FFF7DDFB02000AE0574AFA
:1045700008E0FFF787FB020004E04FF4004201E08F
:1045800000220125002A00F08B806168032041434E
:104590008A4205D361684FF480504143914201D271
:1045A00001257DE04FF48073606840080021E3FB43
:1045B000020162680023FEF791F9B0F54071444AA8
:1045C000914202D22168C8606AE0012568E0E16991
:1045D000B1F5004F35D1C0B2002808D0012809D06C
:1045E00002280AD004280AD008280BD00DE0FFF7D3
:1045F00099FB0CE0FFF7A3FB09E0344807E0FFF765
:1046000041FB04E04FF4004001E0002001250028B8
:1046100046D06168490811EB40016068B1FBF0F0D9
:1046200080B24FF6F071B0F110028A4207D2014019
:10463000C0F34200014389B22068C16030E0012527
:104640002EE0C0B2002808D0012809D002280AD0E4
:1046500004280AD008280BD00DE0FFF763FB0CE01C
:10466000FFF76DFB09E0194807E0FFF70BFB04E0DB
:104670004FF4004001E000200125002810D06168BF
:1046800010EB51006168B0FBF1F080B2B0F11001A5
:104690004FF6F072914202D22168C86000E0012515
:1046A00000202066002060662800C0B232BD0000F5
:1046B0002001000400800040F369FFEF0038014052
:1046C0008810024000440040004800400024F400EC
:1046D00000FD0F0090F82410C90707D501684A684B
:1046E00032F40032816A0A4301684A6090F824106B
:1046F000890707D501684A6832F48032C16A0A43E3
:1047000001684A6090F82410490707D501684A6893
:1047100032F48022016B0A4301684A6090F8241049
:10472000090707D501684A6832F40042416B0A4321
:1047300001684A6090F82410C90607D501688A68A4
:1047400032F48052816B0A4301688A6090F8241029
:10475000890607D501688A6832F40052C16B0A43A2
:1047600001688A6090F82410490613D501684A68E8
:1047700032F48012016C0A4301684A60016CB1F5A1
:10478000801F07D101684A6832F4C002416C0A43B5
:1047900001684A6090F82410090607D501684A6844
:1047A00032F40022816C0A4300684260704738B5D9
:1047B00004000020E067FFF73DFB0500206800686B
:1047C00000070DD57FF07E4000902B0000225FF4A3
:1047D0000011200000F01FF8002801D0032019E08C
:1047E0002068006840070DD57FF07E4000902B00C8
:1047F00000225FF48001200000F00DF8002801D0B5
:10480000032007E0202060672020A067002084F8B4
:104810007000002032BD2DE9F04105000E009046E9
:104820001F00069C2868C0693040B04201D10120B9
:1048300000E000204146C9B2884241D114F1010F85
:10484000F0D0FFF7F7FAC01B844201D3002C14D13B
:104850002868006830F4D07029680860286880688B
:104860004008400029688860202068672020A867E9
:10487000002085F87000032023E0286800684007C6
:10488000D0D52868C0690005CCD54FF400602968F0
:1048900008622868006830F4D070296808602868C9
:1048A00080684008400029688860202068672020D0
:1048B000A8672020E867002085F87000032000E04A
:1048C0000020BDE8F0810168096831F49071026848
:1048D00011600168896849084900026891602021D7
:1048E000816700210166704780B5806A0021A0F8C9
:1048F0005A100021A0F8521000F05CF901BD000030
:1049000080B50168096831F040010268116020211A
:1049100041670021416600F04FF901BD80B5B0F854
:104920005C10826F222A23D10268928C1140426D62
:104930001170416D491C4165B0F85A10491EA0F82C
:104940005A10B0F85A10002918D10168096831F4DA
:10495000907102681160016889684908490002681D
:104960009160202181670021016600F03FF905E098
:104970000168098B51F008010068018301BD80B511
:10498000B0F85C20816F222923D101688B8C416DA6
:104990001A400A80416D891C4165B0F85A10491EC1
:1049A000A0F85A10B0F85A10002918D10168096807
:1049B00031F4907102681160016889684908490002
:1049C00002689160202181670021016600F00EF9E4
:1049D00005E00168098B51F008010068018301BD01
:1049E00080B55648564901605FF46121416000215D
:1049F00081600021C160002101610C214161002121
:104A000081610021C1610021016200214162FFF743
:104A100023FB002801D000F0C9FB01BD80B5494847
:104A2000494901605FF461214160002181600021FA
:104A3000C160002101610C214161002181610021DF
:104A4000C1610021016200214162FFF705FB0028DE
:104A500001D000F0ABFB01BD10B586B00400684684
:104A6000142100F0A5FB2068354988422AD1374837
:104A7000016851F480410160006810F480400590A5
:104A800005983348016851F002010160006810F098
:104A9000020005900598C02000900220019001209E
:104AA000029003200390072004906946294800F0F3
:104AB00083FB002200212520FFF7A3FA2520FFF722
:104AC000B1FA2EE02068204988422AD122480168A4
:104AD00051F400310160006810F400300590059831
:104AE0001B48016851F001010160006810F00100ED
:104AF000059005980C200090022001900120029062
:104B0000032003900720049069465FF0904000F076
:104B100053FB002200212620FFF773FA2620FFF71F
:104B200081FA06B010BD01B54FF6FF730122694648
:104B30000248FFF7CEFA009802BD0000340B0020B7
:104B400000380140B40B00200044004060100240D7
:104B50004C100240000400485810024010B50024D8
:104B600090F82510022903D00421C16301241EE01E
:104B70000168096831F00E01026811600168096876
:104B80004908490002681160012190F8442012F0A0
:104B90001C029140026C5160012180F82510002117
:104BA00080F82410816B002901D0816B8847200098
:104BB000C0B210BD70477047704700000168DFF851
:104BC00070251268914205D1DFF868050188491CFB
:104BD00001800AE00068DFF860150968884204D1A6
:104BE000DFF858050188491C01807047F8B5016855
:104BF000DFF84C25914246D1DFF84845DFF84855AB
:104C0000DFF848653078218868542088401C20806F
:104C1000DFF82075002038802088022803DADFF8CA
:104C2000100500F005FCDFF82815087800280CD1E5
:104C30002088042809DB01200870A878EA7852EA65
:104C40000022DFF81005028004E02878FF2801D058
:104C500000202080087801280ED1DFF8F8040088B1
:104C60002288121F904207D1062008700020388049
:104C7000DFF8C40400F0C5FB01223100DFF8D804DE
:104C8000FFF78EFA4AE00068DFF8D014884245D179
:104C9000DFF8CC44DFF8CC54DFF8CC6430782188DE
:104CA00068542088401C2080DFF8907400203880F1
:104CB0002088022803DADFF8780400F0B9FBDFF877
:104CC000AC14087800280CD12088042809DB0120C6
:104CD0000870A878EA7852EA0022DFF8940402808B
:104CE00004E02878FF2801D00020208008780128DF
:104CF0000ED1DFF87C0400882288121F904207D171
:104D00000620087000203880DFF82C0400F079FBC2
:104D100001223100DFF85C04FFF742FAF1BD70B503
:104D200088B004000D00002000200020A91E89B2D8
:104D3000200000F0C1FC80B2290089B2214411F8A2
:104D4000022C120292B2ADB204EB050111F8011C63
:104D50000A43904201D00120F8E0DFF81C0461789A
:104D600001700078012808D0022859D00A2800F0E4
:104D7000A5800B2800F0E880E7E0A078E27852EA0E
:104D80000022101F10F0070F05D0DFF8F00300F02D
:104D9000B3FC0120DAE02079617951EA002189B27F
:104DA000C80010F0070F05D0DFF8D40300F0A4FC12
:104DB0000120CBE0EE218DF800106D4601216970D5
:104DC0000021A9700521E970C6003000000A287191
:104DD0006E71121FA11D300000F0FCFC002807D1ED
:104DE0000020A8713100DFF89C0300F085FC06E08C
:104DF0000120A8713100DFF8900300F07DFC07214D
:104E0000684600F059FC010089B2090AE97128726C
:104E10004FF6FF7309226946CF48FFF75AF994E02D
:104E2000A078E27852EA0022101F10F0070F04D099
:104E3000D24800F061FC012088E02179607950EAD5
:104E4000012080B210F0070F04D0CD4800F054FCD0
:104E500001207BE0EE218DF800106D460221697083
:104E60000021A9700521E970C6003000000A2871F0
:104E70006E71121FA11D300000F0ACFC002806D19D
:104E80000020A8713100BF4800F036FC05E0012089
:104E9000A8713100BC4800F02FFC0721684600F0E3
:104EA0000BFC010089B2090AE97128724FF6FF7301
:104EB00009226946AF48FFF70CF946E02079657989
:104EC00055EA0025ADB2A079E679360256EA0046E9
:104ED000207A0643B60A802E00D340263100AB4824
:104EE00000F00AFCEE208DF800006C460A2060708D
:104EF0000020A0700520E0702800000A2071657174
:104F0000310089B2280000F00BFC002802D10020FB
:104F1000A07101E00120A0710721684600F0CCFBE0
:104F2000010089B2090AE17120724FF6FF74230073
:104F3000092269468F48FFF7CCF823000922694609
:104F40008548FFF7C6F800E0FFE7002008B070BD15
:104F500038B500F0A9FC00F08EF800F0E1FC00F09C
:104F600009FDFFF73DFDFFF759FD00F02DFD00F0B5
:104F700052FD012275497848FFF712F901227A495A
:104F80007C48FFF70DF9824800F0B6FB3DE077481A
:104F90000178062912D101217E4A11700021017089
:104FA000704C6F4D29882000FFF7B9FE40F2324166
:104FB0000022200000F090FD00202880642000F0F6
:104FC000BFFD74480078002812D173490888401C3E
:104FD000088008880A2290FBF2F302FB13000028E5
:104FE00006D108880A2190FBF1F16C4800F084FB9F
:104FF0006948018840F22D12914206DB00210180B0
:10500000674800F079FB00F019FC514C207801282A
:105010000BD148480188652907DB06212170002152
:105020000180434800F0EDF90EE050480178012975
:105030000AD142490A88652A06DB0622027000204E
:1050400008803D4800F0DDF9207806289FD1012036
:1050500050490870002020703B4C3A4D29882000B0
:10506000FFF75DFE40F232410022200000F034FDE7
:1050700000202880A2E700B5ADB005A8442100F0CB
:1050800097F86846142100F093F816A85C2100F008
:105090008FF800F069FD4348016831F018010160A4
:1050A000052005905FF480300690012007900220D3
:1050B0000F900320109001201190142012900720CF
:1050C0001390022014900220159005A8FEF70AFA0A
:1050D000002801D000F06AF80F2000900320019012
:1050E00000200290002003900020049004216846D4
:1050F000FEF724FD002801D000F058F82A48169049
:1051000000201E9000201F904FF480702C9016A855
:1051100000F032FD002801D000F048F84FF4007094
:10512000FEF7C2FE002801D000F040F82DB000BD0F
:10513000840C00206A0D0020D00C00206C0D002093
:1051400000380140640D0020F4000020740D0020A0
:10515000720D00206E0D0020340B00200044004032
:10516000660D002028050020750D0020730D00201D
:10517000700D0020B40B0020770D0020C0690008DE
:105180002C6A00086C69000888690008A469000896
:10519000D8690008760D0020680D0020606A0008BC
:1051A000F069000890100240030002007047000000
:1051B000002200F01BBF0000F8B40200002433E01E
:1051C000072704E0DFF898319A42F9D1042714F058
:1051D0000303DBB29B009F403E4323009B0845F83E
:1051E0002360DFF880512B6883434E68F60300D5B7
:1051F00003432B605C4D2B6883434E68B60300D598
:1052000003432B60594D2B6883434E68F60200D54B
:1052100003432B60564D2B6883434E68B60201D57D
:10522000184303002B60641C0868E040002800F06D
:1052300094800125086815FA04F318400028F2D07C
:105240004B68012B08D04B68022B05D04B68112B03
:1052500002D04B68122B16D1966803272300DBB2CD
:105260005B009F40BE43CF682300DBB25B009F40E2
:105270003E4396605368A540AB434D68C5F30015A7
:10528000A5402B435360D66803252300DBB25B00A7
:1052900015FA03F39E438F682300DBB25B009F4047
:1052A0003E43D6604B68022B02D04B68122B17D1BD
:1052B0002300DB0802EB83031E6A0F2714F00703A9
:1052C000DBB29B009F40BE430F6914F00703DBB2C3
:1052D0009B009F403E432300DB0802EB83031E62DA
:1052E00016682300DBB25B009D40AE430D7915F0DC
:1052F00003052300DBB25B009D402E4316604B6824
:10530000DB0090D51B4B1D6855F001051D601B6827
:1053100013F001030093009B174D23009B0855F8E1
:1053200023600F2714F00303DBB29B009F40BE43B2
:10533000B2F1904F01D1002749E7104B9A4201D1B9
:10534000012744E70E4B9A4201D102273FE70D4B5C
:105350009A427FF437AF032739E7F1BC704700006A
:10536000001000480004014004040140080401400A
:105370000C04014060100240080001400004004895
:1053800000080048000C004810B50400002C01D1B2
:10539000012035E094F83D00002805D1002084F874
:1053A0003C00200000F05EFB022084F83D00211D3F
:1053B000206800F043F9012084F84800012084F8B7
:1053C0003E00012084F83F00012084F840000120C5
:1053D00084F84100012084F84200012084F8430051
:1053E000012084F84400012084F84500012084F85D
:1053F0004600012084F84700012084F83D00002089
:1054000010BD0168096A41F2111211420BD1016805
:10541000096A40F24442114205D10168096849080D
:10542000490002681160012180F83D10002070479A
:1054300090F83D10012901D001202EE0022180F8D2
:105440003D100168C96851F001010268D16001682E
:10545000DFF84820914208D00168B1F1804F04D0B4
:105460000168DFF83C20914210D101688A68DFF8BA
:1054700034100A40062A0FD0B2F5803F0CD00168E4
:10548000096851F001010068016005E001680968E0
:1054900051F001010068016000207047002C0140BC
:1054A000004001400700010010B5040020680069B9
:1054B00080071AD52068C068800716D57FF00200E3
:1054C00021680861012020772068806910F0030FAF
:1054D00003D0200000F0A3FD05E0200000F0A0FDB7
:1054E000200000F09EFD0020207720680069400722
:1054F0001AD52068C068400716D57FF004002168DF
:105500000861022020772068806910F4407F03D072
:10551000200000F084FD05E0200000F081FD200067
:1055200000F07FFD002020772068006900071AD571
:105530002068C068000716D57FF008002168086160
:10554000042020772068C06910F0030F03D02000EA
:1055500000F065FD05E0200000F062FD200000F095
:1055600060FD0020207720680069C0061AD52068F9
:10557000C068C00616D57FF01000216808610820B9
:1055800020772068C06910F4407F03D0200000F02D
:1055900046FD05E0200000F043FD200000F041FD45
:1055A0000020207720680069C0070AD52068C068FD
:1055B000C00706D57FF00100216808612000FFF7D1
:1055C000FDFA2068006900060AD52068C068000658
:1055D00006D57FF0800021680861200000F022FDE0
:1055E00020680069C0050AD52068C068000606D595
:1055F0007FF4807021680861200000F014FD2068AD
:10560000006940060AD52068C068400606D57FF0CC
:10561000400021680861200000F006FD2068006954
:1056200080060AD52068C068800606D57FF0200075
:1056300021680861200000F0F8FC10BD10B4036878
:10564000DFF86840A04202D0B0F1804F03D133F0C0
:1056500070034A681343A0420AD0B0F1804F07D0CC
:10566000DFF84C20904203D0DFF84820904203D16D
:1056700033F44073CA68134333F080034A69134319
:1056800003608A68C2620A688262A04207D0DFF8BB
:105690002020904203D0DFF81C20904201D10969FC
:1056A00001630121416110BC70470000002C0140E2
:1056B000004001400044014010B40300FF200400FA
:1056C0000AE0C0B21A78504002005B1C0848805CB7
:1056D00044402000074CA45C0A00511E92B2002AEC
:1056E000EFD1E4B2C0B250EA042080B210BC7047DF
:1056F000D4650008D46600080EB4C0B5024603A8FD
:1057000000210190009101AB0121044878440C3044
:10571000FCF70CF806BC5DF810FB00BFED120000B2
:1057200030B585B005000C000020009055484519A3
:1057300000F0D5FC5448016851F0404101604CF242
:10574000FA3052490860ED0A0020019001200290D1
:10575000EDB20395A4B20494694601A800F040FD9F
:10576000002801D0012000E0002005B030BDF8B5D0
:1057700007000E001400200080B240F20121884290
:1057800001DB012025E000F0AAFC3F48016851F050
:10579000404101604CF2FA303C490860002501E0CC
:1057A00008376D1C2800210080B289B288420DD2D2
:1057B000280080B206EBC000D0E9002339000020A9
:1057C00000F034FC0028EBD0012002E000F097FC50
:1057D0000020F2BD2DE9F84305000E00170000205F
:1057E00017F10800FBF766FB0400002C01D1012033
:1057F00022E017F0070F01D001201DE0B8465FEA54
:10580000D80817F10801FF22A146484600F064F9C4
:10581000FA00270031003800FDF70CF8424692B23A
:105820002100184845192800FFF7A1FF05002000B6
:1058300000F0AAFD2800C0B2BDE8F28310B51448FC
:105840000468FDF7DBFD00F040F800201149086016
:10585000002011490860002010490860002008E07D
:105860005FF0FF310E4A42F820100E4A42F8201035
:10587000401C0828F4DB0348006880F30888A04730
:1058800010BD000000000208182002401020024055
:105890000400020810E000E014E000E018E000E07E
:1058A00080E100E080E200E010B500240320FEF774
:1058B000A4FB0020FEF7C4FA002801D0012401E077
:1058C00000F064FD2000C0B210BD80B50E485FF04E
:1058D000FF3101600D4A1160002303600020106059
:1058E0000B480160002202600A4801600022026049
:1058F000094801600022026008480160002101603F
:1059000000F060FD002002BD381002403C10024053
:1059100040100240281002402C100240301002407B
:1059200081B01348016851F004010160016811F071
:10593000040100910099016851F080010160016843
:1059400011F0800100910099016851F0010101609E
:10595000016811F0010100910099016851F0020104
:105960000160006810F002000090009801B07047DC
:105970004C10024080B5114811490160002141607E
:105980007F218160FF21C16000210161002141610F
:10599000002181610021C16100F016FD002801D0C5
:1059A000FFF704FC01BD00680549884204D10548A1
:1059B000016851F400410160704700001C0D002097
:1059C00000280040901002401FB5684600210022C8
:1059D000002380E80E003B4C3B4820604F20606075
:1059E0000020A0604FF47A70E0608020A061200069
:1059F000FFF7CAFC002801D0FFF7D8FB0020009079
:105A0000002002906946200000F0A6FD002801D089
:105A1000FFF7CCFB1FBD1FB5684600210022002305
:105A200080E80E00294C2A4820604F20606000204A
:105A3000A0604FF47A70E0600020A0612000FFF7C2
:105A4000A3FC002801D0FFF7B1FB0020009000204C
:105A500002906946200000F07FFD002801D0FFF78A
:105A6000A5FB1FBD80B50168174A914212D11948A4
:105A7000016851F010010160006810F01000009002
:105A80000098002200213620FEF7BBFA3620FEF7F0
:105A9000C9FA15E000680E49884211D10D48016825
:105AA00051F020010160006810F020000090009883
:105AB000002200213720FEF7A4FA3720FEF7B2FAC1
:105AC00001BD0000840C002000100040D00C00201C
:105AD000001400405810024062F30F2262F31F428C
