:020000040800F2
:1000000078110020CD6B0008316A0008336A0008BF
:10001000356A0008376A0008396A000800000000E5
:100020000000000000000000000000003B6A000823
:100030003D6A0008000000003F6A0008416A0008AD
:10004000036C0008076C00080B6C00080F6C0008BC
:10005000136C0008176C00081B6C00081F6C00086C
:10006000236C0008276C00082B6C00082F6C00081C
:10007000336C0008376C00083B6C00083F6C0008CC
:10008000436C0008476C00084B6C00084F6C00087C
:10009000536C0008576C00085B6C00085F6C00082C
:1000A000636C0008676C00086B6C00086F6C0008DC
:1000B000736C00080000000000000000776C00086E
:1000C0007B6C00087F6C0008836C0008876C00085C
:1000D0008B6C0008496A0008536A00088F6C00089E
:1000E000936C0008976C00080000000000000000FE
:1000F0000000000000000000000000000000000000
:10010000000000009B6C0008000000009F6C0008CD
:1001100000000000000000005D6A0008676A000837
:10012000A36C0008A76C0008AB6C0008AF6C00085B
:10013000B36C000800000000000000000000000098
:10014000B76C0008BB6C0008BF6C00080000000022
:10015000C36C0008C76C0008CB6C0008CF6C0008AB
:10016000D36C0008D76C0008DB6C000800000000AE
:10017000DF6C0008E36C00080000000000000000D5
:10018000E76C0008EB6C0008EF6C000800F5E0700D
:100190000268914203D343681A44914202D38068B3
:1001A0000028F5D17047DFF86C17086890B94FF454
:1001B000805048604FF480324FF0FF30C8600861D3
:1001C0000420DFF854378A604861C3F8BC01DFF8C7
:1001D0004C0708600120704701F1080313F0070F76
:1001E0000EBF0023C3F1080303F007031944D21A1A
:1001F0008161C26042F001034B60091D4FF0280C81
:1002000041F802C0DFF80C271369C36170472DE97C
:10021000FC4B074601F1080010F0070F0FBF89469D
:10022000C0F1080000F0070001EB000902F108012D
:1002300011F0070F06D002F10800C0F1080000F02D
:10024000070002441546A5EB090009EB0306A0EBE5
:10025000030B43F00303C9F80430AE4228BF01F09A
:1002600005FA2879C10758BF01F000FABBF1100F59
:1002700038BF01F0FBF9B869854208D1F9688B44B1
:10028000C7F80CB0BE614BF00100706051E17869B5
:1002900085420AD1B9688B44C7F808B07E614BF03B
:1002A0000100706046F80BB043E1686800F003019C
:1002B000012940F0AC80C008C0000190C0081F2890
:1002C00039D8AC68D5F80C800090454508BF01F0DE
:1002D000CDF9A54208BF01F0C9F968680099C008C6
:1002E000C000B0EBC10F18BF01F0C0F9009907F1D1
:1002F000280000EBC100844206D039698C42C0F06E
:100300008180E268AA427DD1A04506D10098396873
:10031000012383409943396076E0804506D03969EE
:1003200088456FD3D8F80800A8426BD1C4F80C8078
:10033000C8F8084068E0EC68D5F81880AC420CD0EA
:10034000A8683969884223D3C268AA4204BFA16859
:10035000A9421DD1C460A0601CE005F114010C6825
:1003600034B905F110010C68A4B101E011460C6824
:1003700004F114021068002802BF04F11002106892
:100380000028F3D13869814202D300220A6001E0DB
:1003900001F06CF9B8F1000F36D0E96907F59870F3
:1003A00000EB81000268954208D10460A4B9E869B5
:1003B0007968012282409143796025E0386980455F
:1003C00008D3D8F81010A94214BFC8F81440C8F8D0
:1003D000104001E001F04AF9B4B139698C4211D3FF
:1003E000C4F81880286928B1884226BF206184613A
:1003F00001F03CF9686938B13969884202D360611B
:10040000846101E001F032F901996D188B4469684B
:100410004908490069604BF0010070604FEADB0455
:1004200046F80BB01F2C23D807F1280000EBC408B6
:100430004546BBF1100F38BF01F018F9386820FAB3
:1004400004F1CA0705D4012101FA04F404433C6015
:1004500007E0D8F80800396988422CBF054601F04A
:1004600005F9C8F80860EE60B560C6F80C8060E079
:100470005FEA1B2008BF002123D0B0F5803F28BFD2
:100480001F211ED2A0F58072120C02F008029040CB
:10049000A0F58051090C01F004018840A0F58043CB
:1004A0001B0CC2F10E0203F00203521AD21A98403A
:1004B00002EBD032D01D2BFA00F101F0010101EB6B
:1004C0004201F161002307F59872736102EB81002C
:1004D00033617A6822FA01F3DC0707D4012303FAB7
:1004E00001F1114379600660B0611DE002681F29C7
:1004F0001DBF4908C1F119010BFA01F1594600E08D
:1005000002465068C008C000584516D002F11003DA
:10051000C80F03EB8003490018680028F0D1386940
:10052000834204D31E60B261F660B66001E001F060
:100530009DF809F10800BDE8F68B396990688A4298
:1005400028BF8842F3D3C6609660B060F260002096
:10055000B061EEE72DE9FE4F04468B46A5692E46B5
:10056000904699463146FFF711FE0268416802EB5A
:10057000010AAAF1270111F007000EBF0021C1F105
:10058000080101F007010AEB0100A0F12F0706F1B5
:1005900010018F4238BF374607F11802002101923F
:1005A0000091A8F1280259462046FFF715FE07F1F1
:1005B000080010F0070F18BF01F058F81B207860F2
:1005C00007F1080104F5E07090E80C5081E80C5048
:1005D000C0F800B0C0F80480C0F80C908160072219
:1005E0000198009900E0001D491C00F108035345E3
:1005F0004260F8D30129D8BF01F038F8B74200F0C3
:100600009580BF1B301D321DC15949084900D15189
:1006100047F0010070604FEAD70BF751BBF11F0F95
:1006200021D804EBCB0000F12805A846102F38BFD5
:1006300001F01CF8206820FA0BF1CA0705D401214B
:1006400001FA0BF10843206006E0A868216988429E
:100650002CBF804601F00AF8AE60C8F80C60C6F8FE
:100660000880F5606FE0380A08BF002123D0B0F59C
:10067000803F28BF1F211ED2A0F58072120C02F00D
:1006800008029040A0F58051090C01F00401884057
:10069000A0F580431B0CC2F10E0203F00203521AB4
:1006A000D21A984002EBD032D01D27FA00F101F0A7
:1006B000010101EB420104EB8102002302F5987075
:1006C000F16173613361626822FA01F3DB0707D4D9
:1006D000012303FA01F1114361600660B0611DE07E
:1006E00002681F291DBF4908C1F1190107FA01F16C
:1006F000394600E002465068C008C000B84216D033
:1007000002F11003C80F03EB8003490018680028AA
:10071000F0D12069834204D31E60B261F660B560F7
:1007200011E003B0BDE8F04F00F0A0BF0BE021697D
:1007300090688A4228BF8842F3D3C6609560B06053
:10074000F2600020B06103B0BDE8F08F2DE9F04108
:10075000704F05463868884608B9FFF724FDB96828
:1007600001EB08002F30491E20EA010188457DD2A7
:1007700005F5D876B06828B1326889188A4275D2F2
:10078000884273D300F0B2FF01001CBF0C6811F166
:10079000010F6BD03068201805F5D87230605368AF
:1007A000984238BF18467060A86960BB286908B1D4
:1007B000814200D22961316174610020F0614FF003
:1007C000FF303A686A62286205F128020020D26090
:1007D000926002F1080757611761801C10322028CF
:1007E000F5D34D48854208BFA4F1280228D055F81A
:1007F000040CC00805EBC002A2F108000A19121A85
:10080000283A01461CE005F5E070024600E09268D7
:100810007AB3136857681F44B942F8D1137B1F0796
:1008200027D4AB691768BB4223D3D2F804C067440E
:10083000BB421ED2A444C2F804C0E868A9692218C9
:100840002846FFF7C9FC1FE08068C0B103689342E7
:10085000FAD1027B130712D4026801604368E418DE
:10086000446043462846BDE8F041D0E40020BDE89E
:10087000F0812A69914238BF29610A19E5E700230E
:1008800022462846FFF766FEE8688045EED2A0EBD8
:100890000800A969E86001EB0802AA6140F00100C4
:1008A000506048F00300486001F10800BDE8F081A5
:1008B00030B4184B1A6882B94FF480525A604FF422
:1008C00080344FF0FF32DA601A610422124D9C60CE
:1008D0005A61C5F8BC21114A1A6011F1400F17D2B4
:1008E0008269AAB1C368283199420BD200F5E07140
:1008F0000C68A24203D34D682C44A24202D38968FB
:100900000029F5D1C16999423CBF4FF0FF32C26165
:1009100000F0A8BE400D00205C0900206859883C0A
:100920002DE9F84F00258946090AC9F1000B08BFD7
:10093000002323D0B1F5803F28BF1F231ED2A1F58D
:100940008072120C02F008029140A1F580531B0C3A
:1009500003F004039940A1F58044240CC2F10E0277
:1009600004F00204D21A121BA14002EBD132D11DB5
:1009700029FA01F303F0010303EB4203074607F5ED
:10098000987858F8230030B31F2B0FBF4C465C08F3
:10099000C4F1190409FA04F4AC46594600E06400B5
:1009A0004268D208D200A2EB09028A4203D21100A7
:1009B000054600F06981426910304FEAD47B50F857
:1009C0002B00002A1CBF824294460028E7D18B46A8
:1009D0006046B0BBBDBB012202FA03F35B00584284
:1009E000796803430B4000F04E81584203405B1E80
:1009F000180B00F01000C340590901F00801CB406A
:100A00009A0802F00402D3405C0804F002040818BB
:100A1000E3401018C3F3400620183044F3401B187D
:100A200058F823000DE008464168C908C900A1EB49
:100A3000090159453CBF8B46054601690029F2D1A1
:100A400040690028F0D1002D00F01D81B868A0EBAE
:100A50000900834580F0178139698D42C0F011810A
:100A60006868C008C00009EB0B01884218BF00F09D
:100A7000FDFD05EB0906B54280F00381EC68D5F871
:100A800018A0AC420CD0A8683969884223D3C26848
:100A9000AA4204BFA168A9421DD1C460A0601CE0A5
:100AA00005F114010C6834B905F110010C68A4B10A
:100AB00001E011460C6804F114021068002802BF1E
:100AC00004F1100210680028F3D13869814202D382
:100AD00000220A6001E000F0C9FDBAF1000F36D033
:100AE000E86908EB800001688D4209D104602000AC
:100AF00014D1E8697968012282409143796026E047
:100B00003869824508D3DAF81010A94214BFCAF830
:100B10001440CAF8104001E000F0A8FDBCB13869EB
:100B2000844212D3C4F818A0286930B139698842C8
:100B300026BF2061846100F099FD686938B1396988
:100B4000884202D36061846101E000F08FFDBBF157
:100B5000100F0CD2D94449F00300291D6860281DEC
:100B600051F8092042F0010240F8092088E049F0DC
:100B7000030068604BF0010070604FEADB0046F84C
:100B80000BB01F281DD807EBC00101F128043968FC
:100B900021FA00F2D307A34605D4012202FA00F09D
:100BA0000843386006E0A068396988422CBF834654
:100BB00000F05CFDA660CBF80C60C6F808B0F460ED
:100BC0005EE05FEA1B2008BF002123D0B0F5803F24
:100BD00028BF1F211ED2A0F58072120C02F008025D
:100BE0009040A0F58051090C01F004018840A0F567
:100BF00080431B0CC2F10E0203F00203521AD21AF8
:100C0000984002EBD032D01D2BFA00F101F0010127
:100C100001EB4201F16100227261326108EB810057
:100C20007A6822FA01F4E30707D4012404FA01F1F7
:100C3000114379600660B0611DE002681F291DBF85
:100C40004908C1F119010BFA01F1594600E00246C9
:100C50005068C008C000584518D002F11003C80FF2
:100C600003EB8003490018680028F0D138698342FB
:100C700004D31E60B261F660B66001E000F0F6FCDD
:100C800014E100F0F3FC0EE18B46A2E639699068AE
:100C90008A4228BF8842F1D3C6609660B060F26095
:100CA0000020B061ECE72DE9F84F064688467168F0
:100CB00048420140491E080B00F01000C1404A099B
:100CC00002F00802D1408B0803F00403D9404D081C
:100CD00005F002051018E9401818C1F3400428185F
:100CE00006F5987A2044E14009185AF8211048681E
:100CF000C008C0000D46A0EB080909E0014648689D
:100D0000C008C000A0EB080048453CBF81460D4626
:100D100008690028F2D149690029F0D1306985427B
:100D2000C0F0BF806968C90808EB090BC9005945C4
:100D300018BF00F09BFC05EB08008542009080F096
:100D4000B080EF68AC69AF420CD0A86831698842C6
:100D500023D3C268AA4204BFB968A9421DD1C760A3
:100D6000B8601CE005F114010F6837B905F11001F6
:100D70000F68A7B101E011460F6807F1140210686F
:100D8000002802BF07F1100210680028F3D1306973
:100D9000814202D300220A6001E000F067FC002CCF
:100DA00031D0E8690AEB800001688D4208D1076004
:100DB0008FB9E8697168012282409143716022E035
:100DC0003069844205D32169A94214BF6761276154
:100DD00001E000F04BFCB7B13069874211D3BC6130
:100DE000286930B13169884226BF3861876100F0D7
:100DF0003DFC686938B13169884202D37861876106
:100E000001E000F033FCB9F1100F0BD24BF00300FE
:100E1000291D6860281D51F80B2042F0010240F89E
:100E20000B203DE048F003012A1D696049F00100F4
:100E300042F80800009941F80990D6F808804FEA76
:100E4000D80BBBF1200F28BF00F010FCB8F1000F49
:100E500022D006EBCB00776900F12804A246B8F156
:100E6000100F38BF00F002FC306820FA0BF1CA07FF
:100E700005D4012101FA0BF10843306006E0A068B7
:100E8000316988422CBF824600F0F0FBA760CAF8A7
:100E90000C70C7F808A0FC60C6F808900098706154
:100EA00004E000F0E3FB0020BDE8F28F05F108004C
:100EB000BDE8F28F2DE9FE4F0546AFF30080F52D1A
:100EC000DFF89C6780F004810B2D31BF10250B35B6
:100ED000ED08ED003068EC08E04010F0030F46D05C
:100EE000C04300F00100041906F1280000EBC4081B
:100EF000E700D8F808506868C008C000B84218BFBA
:100F000000F0B4FBD5F80890454508BF00F0AEFBF3
:100F10004D4508BF00F0AAFB6868C008C000B84291
:100F200018BF00F0A3FBC84507D13068012101FAC2
:100F300004F420EA040434600DE03069814508D3EC
:100F4000D9F80C10A94204D1C8F80890C9F80C804F
:100F500001E000F08BFB47F00300291D6860281DAD
:100F6000CA5942F00102C25105F10804F8E0B16823
:100F7000A94280F0BE80002800F0A1804FF0010857
:100F800008FA04F1490000FA04F4484201430C4015
:100F900060420440641E200B00F01000C440610950
:100FA00001F00801CC40A20802F00402D44063081A
:100FB00003F002030818DC401018C4F340071818A7
:100FC0003818FC40241806F1280000EBC40AE7009A
:100FD000DAF80890D9F80400C008C000B84218BF79
:100FE00000F044FBD9F808B0D14508BF00F03EFB43
:100FF000D94508BF00F03AFBD9F80400C008C0008A
:10100000B84218BF00F032FBDA4506D1306808FA62
:1010100004F420EA040434600DE031698B4508D300
:10102000DBF80C00484504D1CAF808B0CBF80CA096
:1010300001E000F01BFB7F1B45F0030009F10402F7
:10104000C9F8040047F00101515109EB0502019272
:10105000D751B4684FEAD40ABAF1200F28BF00F084
:1010600005FB34B3CDF800A006F12800756900EB4C
:10107000CA0AD346102C38BF00F0F8FA316800983D
:1010800021FA00F2D30704D408FA00F008433060D4
:1010900007E0DAF80800316988422CBF834600F087
:1010A000E5FACAF80850CBF80C50C5F808B0C5F8F6
:1010B0000CA0B76009F108040198706150E07068F5
:1010C000C0B329463046FFF7EEFD040011D047E0DB
:1010D00015F1400F28BF4FF0FF350AD20B35ED0850
:1010E0007068ED0028B129463046FFF719FC04006E
:1010F00036D1B068A8421DD3411B726910290AD3AA
:1011000050197061B16041F001034360415045F0F6
:10111000030555600BE00021B1607161131D40F0C3
:1011200003015160111D1C5844F001040C5002F1E0
:10113000080415E0F06885420DD2401BB169F060EB
:101140004A19B26140F00100506045F003054D605E
:1011500001F1080404E029463046FFF7F7FA044697
:10116000AFF300802046FFF7EEBA002800D17047A9
:101170002DE9F047A0F10805AFF30080DFF8E06447
:1011800031698D42C0F05982686800F00302012A7B
:1011900000F05382C2084FEAC209C20705EB0908F2
:1011A00039D42C6810F0030F00F0498260420544E6
:1011B0008D42A144C0F041827069854200F0C68032
:1011C000E408202C5ED2D5F80CA0AF68554508BFC6
:1011D00000F04CFABD4208BF00F048FA6868C00849
:1011E000C000B0EBC40F18BF00F040FA06F12800B1
:1011F00000EBC400874205D031698F423FD3FA68C3
:10120000AA423CD1BA452CD13068012101FA04F43C
:1012100020EA04043460454580F00F82D8F8044089
:10122000E00740F10A82A10700F16881B0698045BA
:1012300040F09F80F168B5618944C6F80C9049F090
:101240000100686071698D4202D100207061B06058
:10125000F069484580F0F38100213046FFF728FB14
:10126000EDE1824506D03069824508D3DAF80810EE
:10127000A94204D1C7F80CA0CAF80870CBE700F067
:10128000F5F9C8E7EC68AF69AC420BD0A8688842B2
:1012900022D3C168A94204BFA268AA421CD1C4607B
:1012A000A0601BE005F11402146834B905F11002C6
:1012B00014689CB101E01A46146804F1140318681C
:1012C000002802BF04F1100318680028F3D18A42F5
:1012D00002D30021116001E000F0C8F9002F9AD07C
:1012E000E96906F5987000EB81000268954209D122
:1012F0000460200011D1E8697168012282409143A5
:10130000716088E73069874205D33969A94214BF03
:101310007C613C6101E000F0A9F9002C3FF47BAF57
:1013200031698C42ABD3A761286928B1884226BFB6
:101330002061846100F09AF9686900283FF46BAF7E
:10134000316988429BD36061846164E798F8040046
:1013500000F0030003287FF45EAFC6F8089049F060
:101360000101D8F8040040084000C8F80400696092
:101370000AE0706980450AD1B16875618944C6F890
:10138000089049F00100686045F8099057E1E408C9
:10139000E400A144E408202C3AD2D8F80CA0D8F8F4
:1013A0000870D04508BF00F061F9B84508BF00F0EB
:1013B0005DF9D8F80400C008C000B0EBC40F18BF36
:1013C00000F054F906F1280000EBC400874207D072
:1013D00031698F42C0F08580FA68424540F08180D3
:1013E000BA4507D13068012101FA04F420EA040467
:1013F000346078E0824506D03069824571D3DAF8EE
:10140000081041456DD1C7F80CA0CAF808706AE011
:10141000D8F80C40D8F8187044450DD0D8F808001A
:101420003169884223D3C268424504BFA16841455F
:101430001DD1C460A0601CE008F114010C6834B92F
:1014400008F110010C68A4B101E011460C6804F128
:1014500014021068002802BF04F11002106800286E
:10146000F3D13069814202D300220A6001E000F02A
:10147000FDF8002F37D0D8F81C1006F5987000EB57
:101480008100026890450AD10460200012D1D8F88A
:101490001C007168012282409143716023E0306931
:1014A000874205D33969414514BF7C613C6101E045
:1014B00000F0DCF8BCB131698C4212D3A761D8F8D6
:1014C000100028B1884226BF2061846100F0CEF868
:1014D000D8F8140038B13169884202D36061846160
:1014E00001E000F0C3F849F00100686045F8099098
:1014F00071698D420BD1C6F80890A0E064086400C1
:10150000C8F8044049F00100686045F809904FEAC6
:10151000D907202F22D206F1280000EBC704A046ED
:10152000B9F1100F38BF00F0A1F8306820FA07F1C8
:10153000CA0705D4012101FA07F70743376006E01F
:10154000A068316988422CBF804600F08FF8A56002
:10155000C8F80C50C5F80880EC6070E05FEA19200C
:1015600008BF002123D0B0F5803F28BF1F211ED225
:10157000A0F58072120C02F008029040A0F5805194
:10158000090C01F004018840A0F580431B0CC2F156
:101590000E0203F00203521AD21A984002EBD03224
:1015A000D01D29FA00F101F0010101EB420106F51D
:1015B0009872002302EB8100E9616B612B61726814
:1015C00022FA01F3DC0707D4012303FA01F11143E6
:1015D00071600560A8611DE002681F291DBF4908F0
:1015E000C1F1190109FA01F1494600E002465068CB
:1015F000C008C000484526D002F11003C80F03EB15
:101600008003490018680028F0D13069834204D370
:101610001D60AA61ED60AD6001E000F027F8306A5E
:10162000401E30620BD1D6F8C80100E08068002867
:10163000FCD14FF0FF30306201E000F017F8AFF35B
:101640000080BDE8F087316990688A4228BF8842EF
:10165000E3D3C5609560A860EA600020A861DEE77A
:101660005C09002030BC002070470000012000F021
:1016700053B8F0B40246106895681318506803EB2D
:101680005004C0071DD54D441BE013F8017B05F83D
:10169000017B491EF9D1A0B1B60813F8011B06F071
:1016A0000306032E08BF13F8016B01EB0621494224
:1016B000801C294405D011F8016B05F8016B401E10
:1016C000F9D1A3420ED013F8016B16F0030104BF49
:1016D00013F8011BC91C30090F28DAD113F8010BCC
:1016E0000F30D6E7F0BC02F10C00704707490868DC
:1016F00008B1002070470648C008C00008600549CE
:10170000C908C900091A0160704700BF5C0D0020BC
:101710007F1100207813002080B5AFF30080024ACB
:1017200011001820ABBEFBE7260002002DE9F04FA8
:101730000FF2A41CA1B0DCE90089CDE900892A9D43
:10174000DFF8DC9B049100248DF843500D944FF09A
:10175000FF38824616461F460FE0B3462C461BF85C
:10176000011B0498D0470028049000F0A2800D9837
:10177000401C641E0D90F2D176193078252808D1CE
:10178000002100220791089209910A920B910C9274
:101790000DE06A464146304600F0BAFF050001D12F
:1017A0000D98A1E0D9D50125E6E741F0010116F831
:1017B000010F2028F9D023280CD02B2804D02D2865
:1017C00005D0302809D076E041F00201EFE741F082
:1017D0000401ECE741F00801E9E741F01001E6E718
:1017E0000F9209E00F98484505DA00EB800402EB00
:1017F0004402303A0F92761C3278A2F130000A2867
:10180000F0D330782E2818BFCDF8388022D116F8C2
:10181000010F2A2807D138683860761C50F8042B4D
:1018200038600E9216E02D280CBF761C0020002296
:101830000E920AE040B90E9A4A4505DA02EB82049C
:1018400003EB4403303B0E93761C3378A3F1300254
:101850000A2AEFD3ADF8401021A0317800F062FFE2
:1018600008B116F8010B8DF842009DF84200682877
:1018700004D1307868280AD1622105E06C2804BFC1
:1018800030786C2803D171218DF84210761C12A893
:1018900006903A4616F8013B02A9504600F064F85B
:1018A00038B912AA02A9504600F0C8F900287FF5FD
:1018B00064AF404618E02A2892D13A683A6052F85C
:1018C000040B3A6000280F9003D540420F9041F07E
:1018D0000401761C95E700000000000000000000F5
:1018E000686A6C747A4C000021B0BDE8F08F622801
:1018F00020D0682811D06A2803D06C2827D07128FE
:1019000025D10868C01D20F007000860D0E9002339
:1019100008300860194610467047002A0A680A60B5
:10192000106803D0121D0A6000B217E0121D0A6091
:1019300080B217E0002A0A680A60106803D0121DFE
:101940000A6040B20AE0121D0A60C0B20AE0002A32
:101950000A680A60106803D0121D0A60C117704738
:10196000121D0A60002170477CB50D4611461C46C9
:101970002E69B4F1250200F04F811C3A00F08480FA
:10198000121F022A40F280800E3A00F00981521F95
:1019900059D0093A78D0921E16D0521E35D0521E18
:1019A000022A71D9121F30D0521F00F09880521EA7
:1019B00049D0521E00F0E280D21E00F0FF80921E3D
:1019C00041D0D21E3FD02DE195F83A406C2C09D081
:1019D0006869421C6A610A680A6052F8043B0A603E
:1019E000335429E10A680A6052F8043B0A60009304
:1019F000002201924FF0FF332B636A46294600F024
:101A000098F9002840F1188103E195F83A00012285
:101A1000FFF76DFFC5E90001002904D56869411C85
:101A200069612D220DE0288F810704D56869411C6A
:101A300069612B2205E0C00721D56869411C6961F5
:101A4000202232541BE095F83A000022FFF74FFFA6
:101A5000C5E9000195F83800010710D5D5E9002344
:101A6000002B08BF002A0AD044F02000782806D1B5
:101A7000686930213154401C421C6A61345421464B
:101A800068693044E86087E00868C01D20F00700FE
:101A90000860D0E9002308300860C5E90023D5E9D3
:101AA0000001C80F04D06869411C69612D220DE056
:101AB000288F810704D56869411C69612B2205E0E4
:101AC000C00704D56869411C6961202232546869E5
:101AD0003044E8602146284600F036FAACE005F1D3
:101AE0003A02507820B14FF0FF340FF6043074E022
:101AF0001078622808D0682824D06A2812D06C2870
:101B00002ED071280ED02BE00A680A6052F8040B20
:101B10000A6020B94FF0FF340FF6EC205DE0E96A6F
:101B2000017089E00A680A6052F8040B0A6020B963
:101B30004FF0FF340FF6D0204FE0EA6AD317C0E928
:101B4000002379E00A680A6052F8040B0A6020B9A1
:101B50004FF0FF340FF6B0203FE0E96A01806BE000
:101B60000A680A6052F8040B0A6020B94FF0FF348B
:101B70000FF6942031E0E96A01605DE00A680A60CE
:101B800052F8040B0A60002120F0000221F0FF331C
:101B9000C5E90023EE607821284600F02DF94BE0DE
:101BA0006C2285F83A200B680B6053F8042B0B600D
:101BB00052BB4FF0FF340FF684200EE095F83A2028
:101BC0006C2AF0D00868086050F8044B0860EC609C
:101BD0003CB94FF0FF340FF6482000F0BDFD201A4D
:101BE00076BD2E6B002E04D5204600F0D5FD0446B0
:101BF00008E032460021204600F0EAFD002814BF2C
:101C0000041B3446AC6117E0294600F092F8002826
:101C100012D54FF0FF3076BD6869411C69612522FD
:101C2000325409E06969481C686125227254210018
:101C300002D0431C6B613454002076BD2DE9F04185
:101C40000E4605469046726B7069316AB46A121A84
:101C5000B069521A716A121AF069521A121A96F879
:101C60003800141B41070DD4002C0BDD2746B0684B
:101C70002021A8470028B06057D0F06A401C7F1E82
:101C8000F062F4D1736942463146284600F098FC70
:101C900000284AD1376A002F0ADDB0683021A847F2
:101CA0000028B06041D0F06A401C7F1EF062F4D181
:101CB000B369F2683146284600F082FCA8BB776A17
:101CC000002F09DDB0683021A847B06068B3F06A22
:101CD000401C7F1EF062F5D1F068B169F3694218CB
:101CE0003146284600F06CFCF8B9B76A002F09DDD0
:101CF000B0683021A847B060B8B1F06A401C7F1EC0
:101D0000F062F5D196F8380041070BD5002C09DDBB
:101D1000B0682021A847B06038B1F06A401C641E4A
:101D2000F062F5D10020BDE8F0814FF0FF30BDE852
:101D3000F0812DE9F8470D46A3B02F6B002F064622
:101D4000904648BF6FF000470FF60C1400F06CFD92
:101D5000D4E90023696B4018CDE90123812828BF0D
:101D60004FF0FF3042D20024002F33DDD8F80010AE
:101D700001AA684600F0CEFC8146B9F1000F38D4C4
:101D8000D8F8000010B9B9F1010932D44F4521DB70
:101D90006869484481280AD30021696303AA294657
:101DA0003046FFF74BFF040014D40020686103ABFA
:101DB000D5F814A04A46694603EB0A0000F03AFD44
:101DC000CA44C5F814A058F8040B002818BFA7EBA4
:101DD0000907C9D14CB903AA29463046FFF72EFF9F
:101DE000044614B9002068616863204624B0BDE849
:101DF000F0874FF0FF34F8E72DE9FC4307466F29E1
:101E00003E6908BF082405D041F02000782814BF9F
:101E10000A2410243C25D7E90023642918BF692926
:101E20009046994605D1002B03D5D8F1000869EBFF
:101E30004909B9F1000F08BFB8F1000F1FD1386B85
:101E4000E8B9082C4CD197F83800010748D5302064
:101E50003B2586F83B0043E000280ED597F8380074
:101E600000F01400102808D17B6B7969386A5B1A7E
:101E70001B1A9A1A002AC8BF3A62BDE8F3838DF88C
:101E80000010404649462246E31700F027FD303255
:101E9000D0B26D1E3A28019504DB9DF80000A0F138
:101EA00051018A187255404649462246E31700F010
:101EB00015FD80465FEA010908BFB8F1000F03D0A5
:101EC000F86871198842DCD3082C09D197F83800DA
:101ED000010705D5705D302802D06D1E3020705589
:101EE000C5F13C02BA617119F960386B8242B3DA0C
:101EF000821A3A624FF6EF70398F01403987BDE898
:101F0000F3832DE9D04306460F4614464FF00008F0
:101F1000DFF8109412E0E00707D542464B46304602
:101F2000394600F0F3FD06460F4640464946424614
:101F30004B4600F0EBFD641080468946002CEAD148
:101F400030463946BDE8D0832DE9F84F05468A462C
:101F50004AF020048EB0D5E90089612C02AE09D088
:101F6000286B002848BF062003D408BF672C01D186
:101F700001202863D5E900014A005215521C0DD1F9
:101F80000B030BD0AAF1610103201A29A86102D228
:101F90000FF2CC6110E00FF2CC610DE04A00521557
:101FA000521C0ED10B030CD1AAF1610103201A2996
:101FB000A86116D30FF2B461E868032200F03AFC7E
:101FC000C0E1CDE90C01DDE90C2323F00043B3F5BA
:101FD000801F0DD20027002B08BF002A019703D1D4
:101FE00011E00FF28461E7E701AA00F061FE0AE068
:101FF000CD48CE4900EB1350DDE90C2301900B4096
:10200000CB4910461943C5E90001612C0DD1E868A0
:1020100030210170821CBAF1610FEA600CBF782197
:10202000582141706869801C6861D5E90001CDE9DB
:102030000C01DDE90C2333F0004104BF002800232C
:1020400000F04881612C40F0A080286B49460028B0
:102050004CBF4FF0210B00F1010B40460022002342
:10206000DDE90C8900F05CFE01990BF1010738BF36
:1020700089F00049091F002F01918DF808200DF10A
:10208000090040F33581A94900910646404649467A
:102090000022002300F05CFE80F029814800400D02
:1020A00000F11C0211D0002A0FDD40F2FF739A42AA
:1020B00005DBA04909F000400143002011E0009B2E
:1020C000194041EA025140460BE028F0000039F087
:1020D000004108BF00280FBF49461C22494600F0B6
:1020E0004FFE8046894600F0E9FEFF1F002F0446A0
:1020F00009DD00F001FF02460B464046494600F06C
:102100000DFF80468946F01D072104E004F00F0210
:1021100000F8012D2411002C01DD491EF6D5491EC1
:102120005CBF002200F8012DF9D5DCE00020194643
:1021300002AA0A4400E05B1E12F80149491E8442CB
:10214000F9D00F2804D10DF10900425C521C425411
:10215000002904D50198001D02AE5B1C0190581E99
:102160000CD43118AAF13A040A783032D7B23A2F97
:10217000A8BFA218401E01F80129F5D5286B002838
:1021800040F1A780591E2963A3E001996A4A47F2EA
:102190009750414391FBF2F2019229F00046D2F1AF
:1021A000070204DD40463146FFF7ABFE0AE052422B
:1021B00000206249FFF7A5FE02460B464046314625
:1021C00000F01EFF8046662C286B06BF019F0A3771
:1021D00006273F18142FC8BF142730208DF8080099
:1021E00089460DF1090000E03046002F34DD064637
:1021F0004046494601F028F801460A4606F1080320
:1022000004200A26B2FBF6F606EB860EA2EB4E027F
:10221000303203F8012C0A22B6FBF2F202EB820EF6
:10222000A6EB4E063036401E03F8026DE9D1083F9A
:10223000002F03F10806D7DD084601F019F8024621
:102240000B464046494600F069FE00223C4B00F038
:102250005DFC80468946CBE70DF10901401A0DF17E
:10226000090604E00199491E401E0191761C31784F
:102270003029F7D0662C02D10199491C03E0652C66
:102280000CBF012100212B6BCB189842B8BF431E15
:10229000002B1ED4834204DAF05C3528A8BF392015
:1022A00000DA30201946721E02EB010800E05B1EC6
:1022B00018F80199491E8145F9D0392802D1705C7E
:1022C000401C7054002904D50198401C16465B1C24
:1022D0000190019800B200901BB232465146284648
:1022E00000F034F82EE0C61D002F3FF7CFAE304689
:1022F0000DF10901401A03465845C8BF5B46002B43
:102300000DF109063FF53AAF8342BFF60FAF0DF16D
:102310000900C15C07297FF709AF0F2007E700001C
:10232000CBCCCC0C0000244002FCFFFFFFFF0F8051
:102330000000E03F0000F07FA08601000000F03FB9
:1023400084D797410FB0BDE8F08F00002DE9F84722
:1023500083B006468A461746984600F0DDF9B8F184
:10236000000F406A356B90F8009002DC4FF00108D6
:10237000BFA74AF02000BDF93040662808BF641CA2
:1023800015D0672840F0848014F1040FC0F28680D5
:10239000AC4280F2838096F83800641C010702D4B6
:1023A000A845B8BF454620B22D1A48BF00250FFAF0
:1023B00084FAF068B169BAF1000F25DC4A1C3023B9
:1023C0004354002D03DC96F83800010703D5F0686C
:1023D00000F80290521C15EB0A0FB8BF6C4220B2F5
:1023E000441941424445B8BFA046B26171620FFA38
:1023F00088F5F561F068B3692A463946184400F05B
:1024000019FA641BB462C4E022B29045084417DA9A
:102410004246394600F00EFAB0694044B061AAEB7A
:102420000801002D716203DC96F838100A0705D503
:10243000F16801F80090F069401CF061B562A8E015
:10244000394600F0F7F9B069002D5044A8EB0408B4
:1024500003DC96F838100A0703D5F16801F80090FC
:10246000401CB0610FFA88F08542F368B069B8BFCC
:10247000A8460FFA88F207EB0A01184400F0DAF9CF
:10248000B1690FFA88F00144B161281A706280E0E6
:10249000BAF1610F14D14FF0700A16E0A84504DAC2
:1024A00096F838100A0758BF45466D1E48BF0025EC
:1024B000BAF1670F14BF4FF0450A4FF0650A04E008
:1024C000BAF1410F08BF4FF0500AB169F368481CD8
:1024D000B061002D17F8012B5A5403DC96F8381020
:1024E0000A071BD5F168431CB36101F80090002D69
:1024F00014DDA8F101080FFA88F039468542F76823
:10250000B8BFA8460FFA88F2F81800F093F9B0693E
:102510000FFA88F108446D1AB0617562F068B1690C
:102520000844002C80F800A003D42B224270811CA8
:1025300003E02D2141706442811C00206A460AE0BC
:1025400023460A2493FBF4F404EB8405A3EB450330
:1025500002F8013B401C24B2002CF1DC012806DC0F
:102560004AF02002652A04BF302201F8012B48B945
:10257000302001F8010B07E0401E1DF80030303319
:1025800001F8013B0028F7DCF268B0691044091A31
:10259000F16196F8380000F0140010280DD172692E
:1025A000B169706A8A18F1698218B06A8A1882184B
:1025B000706B8242BCBF821A326204B0BDE8F08701
:1025C000F8B505460E4617461C46002074B117F8AC
:1025D000011BB068A847B06030B1F06A401CF062DF
:1025E0000020641EF3D1F2BD4FF0FF30F2BD0000B9
:1025F0007072696E74665F733A20256E2064697329
:10260000616C6C6F776564007072696E74663A20F5
:1026100062616420256E20617267756D656E74005D
:102620007072696E74665F733A206261642025730C
:1026300020617267756D656E740000007072696E5E
:1026400074665F733A2062616420256C7320617246
:1026500067756D656E7400000000000000000000EA
:102660006E616E004E414E00696E6600494E460036
:10267000300030B4002513E050F8042BD30744BFDA
:10268000A9F101039A18091F042942F8045BFAD240
:1026900013468C0744BF15809B1CC90748BF1D709B
:1026A00050F8041B0029E7D130BC70471B48704725
:1026B00070B45368D418042B09DA41B1057804F8D2
:1026C000015B10F8016B16B15B1C491EF3E7536008
:1026D00070BC704738B514461D4661B1FFF7E8FF7E
:1026E00061686A6B204690476FF00102811A02D040
:1026F000491E01D001E003E005E00021616032BD28
:102700006FF0010032BD4FF0FF3032BDDA6B104781
:10271000024BDFE7014BF9E70148704760000020FA
:1027200028000020C9B202788A421AB11CBF10F8F2
:10273000012FF9E718BF00207047B1F5807F02D361
:102740004FF0FF3070470170012070470078401E45
:102750008041C043C00F704780B500B906A005494D
:102760000B681BB122220021984701E0FEF77EFF93
:10277000222002BD600D0020636F6E737472616968
:102780006E742068616E646C65723A2062616420C8
:102790006D6573736167650000F10103810704D003
:1027A00010F8011B820781B1FAD10268A2F1013150
:1027B000914311F0803104BF50F8042FF6E709BAB5
:1027C000B1FA81F100EBD100401CC01A7047000043
:1027D000C9B2830706D0521E22D310F8013B99429A
:1027E000F7D11FE0083A13D302F1040241EA0121B4
:1027F00041EA014150F8043B121F21BF4B40A3F1B5
:10280000013C2CEA030C1CF0803FF3D0C9B2001F3E
:10281000083210F8013B521E28BF91EA030FF8D886
:1028200018BF0120401E704780B5FFF73FFF006CC6
:1028300002BD000062B38B0708D0521E11F8013BA5
:1028400000F8013B00F024808B07F6D1830740F0AD
:10285000208000BF103A07D330B4B1E83810103AE6
:10286000A0E83810F9D230BC530724BFB1E80810F3
:10287000A0E8081044BF51F8043B40F8043BD207DD
:1028800024BF31F8022B20F8022B44BF0B780370D1
:102890007047121F17D35B0009D151F8043B20F891
:1028A000023B1B0C121F20F8023BF6D20BE051F842
:1028B000043B00F8013B1B0A20F8023B1B0C121FD3
:1028C00000F8013BF3D238BF121D521E24BF11F88D
:1028D000013B00F8013BF8D870470000BBBBE1B1F9
:1028E000B2F5803F80F07E80022A1ED98C46B1FB73
:1028F000F2F102FB11C31B0443EA1043B3FBF2FCE9
:1029000002FB1C3380B240EA0343B3FBF2F002FB4C
:10291000103240EA0C4000237047022A05D9844651
:10292000B0FBF2F002FB10C270474AB105D100F0D3
:10293000010249085FEA3000704700220023704717
:1029400000F0A4BC0B000200002100207047904260
:1029500071EB030CF6D3B3F5803F2FD2F0B5B3FA89
:1029600083F7B1FA81F4A7F10F0E3D1B5340CEF16E
:10297000200602FA0EF2F3415340B5F10F0746D894
:102980000F3C2C444140C4F12006A040F14141409D
:10299000B1FBF3F603FB1611A2FB0645001BA94190
:1029A00002D2761E8018594180EA010221FA0EF304
:1029B00062FA0EF200215A403046F0BD30B4B1FB4D
:1029C000F3FC03FB1C11A2FB0C45001BA94103D225
:1029D000ACF1010C8018594130BC02460B466046F0
:1029E00000217047B2F1807F65D3F0B5B2FA82F76B
:1029F000B1FA81F4C7F10F063D1B22FA06F307F185
:102A0000110EF24120355A40B5F10F07B8D94140B7
:102A1000C4F12006A040F1414140B1FBF3FC03FBAF
:102A20001C11A2FB0C45001BA94103D2BCF1010CF7
:102A3000801859410F2F12D30F3FC90341EA50416B
:102A4000B1FBF3F603FB1611A2FB0645D4EBC03035
:102A5000A94102D2761E8018594146EACC3C07B300
:102A60004140C7F12006B840F1414140B1FBF3F6C7
:102A700003FB1611A2FB0645001BA94102D2761EDC
:102A80008018594180EA010221FA0EF3C7F12004AF
:102A900062FA0EF20CFA07F05A402CFA04F13043B5
:102AA000F0BD80EA010221FA0EF3002162FA0EF273
:102AB00060465A40F0BD8C46B1FBF2F102FB11C3F7
:102AC0001B0243EA1063B3FBF2FC02FB1C331B0244
:102AD0004CEA002043EA1063B3FBF2FC02FB1C3318
:102AE0001B024CEA002043EA1063B3FBF2FC02FB3A
:102AF0001C331B024CEA002043EA1063B3FBF2FCD8
:102B000002FB1C324CEA002000237047B0B581EA7A
:102B1000030C0CF0004C40F2FF7515EA11541DBF78
:102B200015EA1357AC42AF4239E0E41923EA4553A2
:102B300043F48013C90241F0004141EA505EC702EC
:102B40001100A7FB020200284FF00000EEFB01205D
:102B50004FF00001E3FB072118BF42F001024018CB
:102B600000214941E3FB0E01A4F580640F0302D26A
:102B700052004041494154F101046CDD470872F1B3
:102B8000004250F1000051EB0451A1F580115CBFEF
:102B900041EA0C01B0BD4CEA05510020B0BD05EA88
:102BA0001357AC4214BFAF4241E050EA410E1CBF84
:102BB00052EA430E02E061460020B0BD24423C448C
:102BC0001BD15FEA070EF6D0090302BF01460020C1
:102BD000AEF1140EB1FA81F7AEEB070401FA07FE6D
:102BE0000C37C7F1200100FA07F7C8404EEA000E83
:102BF00023EA455343F48013A2E733F00043B3FACA
:102C000083F704BFB2FA82FE77440B3FE41BB7F1AF
:102C1000200E2FBF02FA0EF3BB40C7F1200E22FA9E
:102C20000EFE38BF43EA0E03BA40641C82E750EA46
:102C3000410E14BF52EA430E6FF000014FF400172B
:102C400017EB430F8ABF194617EB410FB5E74CEA64
:102C500005510020B0BDD4F10104B4F120070FDA12
:102C6000C4F12007520828BF42F0010210FA07F50C
:102C700001FA07F7E1BF2A43E0403843E1400FE0A3
:102C8000352C98DCC7F1200452EA400220FA07F202
:102C900018BF42F0010231FA07F0A1400A430021B7
:102CA00072F1004250F1000051EB0C01B0BD000088
:102CB00010B5144600F002F8226010BDC1F30A53AB
:102CC00043B14A0012F5001F28D2A3F2FE32A1EB55
:102CD0000251704750EA410C20D001F0004C31EA1B
:102CE0000C01B1FA81F204BFB0FA80F3D2180B3AAA
:102CF000B2F120032CBF00FA03F1914041EA0C012C
:102D00003EBFC2F1200C20FA0CF31943904052420E
:102D100040F2FD33D21A01EB035170470022704795
:102D20004FF4001C1CEB410F94BF1CEB430F09E058
:102D300041EA030C50EA4C0C52EA0C0C03D29942C3
:102D400008BF9042704714BF8B4282427047000018
:102D50004FF4001C1CEB410F94BF1CEB430F09E028
:102D600041EA030C50EA4C0C52EA0C0C03D28B42A1
:102D700008BF8242704714BF9942904270470000DA
:102D8000124254D440F2FF7C1CEA11530FD0634529
:102D900031D09B1863453CBF01EB0251704701F0F5
:102DA000004141EA0C510020AFF30080704750EA27
:102DB000410320D001F0004C91EA0C011CD0B1FA83
:102DC00081F30B3B9A420DD9D21A994051EA0C017A
:102DD000C3F1200C20FA0CFC61449840531C40F2D3
:102DE000FF7CD7E7914041EA0C01C2F1200C20FAA8
:102DF0000CF3194390407047B0FA80F31533202B41
:102E0000E0D3202AEED3203A203B9A4209D9D21AA5
:102E100000FA03F141EA0C010020531C40F2FF7C50
:102E2000B8E700FA02F141EA0C0100207047524273
:102E300040F2FF7C1CEA11530DD06345DBD0B2EBAE
:102E4000030C3CBFA1EB025170470CF1010221EAD7
:102E5000035141F4801150EA410CCCD001F0004CF8
:102E6000352A27DC30B481EA0C01B2F1200309DAFB
:102E7000C2F12003044601FA03F5D0402843D140B3
:102E80009C400CE0C3F12002450020FA03F418BF77
:102E900044F0010421FA03F091400C43002174F145
:102EA000004550F1000051EB0C01244230BC7FF48E
:102EB0007BAF70476146002076E70000C1F30A53FC
:102EC00040F2FE329B1A14DDD3F120034FEAE17287
:102ED00008DDC90241EA505141F00040D840801855
:102EE0005040704703F2E13010B1D24382F000400D
:102EF0007047002070470000C11768B14840401A71
:102F0000B0FA80F29040D21CC907C2F5846241EA4F
:102F1000025202EBD02140057047000070B44FF020
:102F2000004591EA030F40F1B3816B40841A71EBC5
:102F3000030603D2001BB141121973414FF4001C68
:102F40001CEB410F34BF7CEB430442E00C0DA4EBBF
:102F50001356352E4FDC45EAC323DB0A45EAC1216F
:102F6000C912B6F120050DDD63FA05F6EB4086EADD
:102F70000305124218BF45F00105C01851F10001C8
:102F80000CD213E062FA06F5F2405540F3415A4084
:102F9000B340F3405A408018594107D349085FEACB
:102FA00030005FEA350528BF45F0010501F58011C5
:102FB000420875F1004250F1000041EB04514E000F
:102FC00016F5001F70BC38BF70470020090D0905B9
:102FD00070471CEB410F10D252EA43060BD0BCEBFA
:102FE000410F05D80C0DAB43661E342EB6DD02E052
:102FF000AB438018594170BC704770BC70470000EB
:10300000F0B540F2FF7581EA030C0CF0004C15EAB4
:1030100011541DBF15EA1357AC42AF42E5E0BC4165
:10302000C1F31301C3F31303801A994143F48013CE
:1030300004D2641E4000494180185941C90241EA46
:103040005051B1FBF3F603FB1611A2FB0675D7EB4B
:10305000C020A94102D2761E80185941C90241EA16
:103060005051B1FBF3FE03FB1E11A2FB0E75D7EB13
:10307000C020A94103D2AEF1010E80185941890246
:1030800041EA9051760546EA8E2EB1FBF3F603FB3A
:103090001611A2FB0675D7EB8020A94102D2761E3D
:1030A00080185941C90241EA50514EEA060EB1FB5F
:1030B000F3F603FB1611A2FB0675D7EBC020A9415E
:1030C00002D2761E80185941C90241EA5051B1FB23
:1030D000F3F703FB1711A2FB0735D3EBC020A9417F
:1030E00067F100070CBF004247F0010766F3D527E0
:1030F0004FEA1E31B80814F5806412DDBD0775F182
:10310000004250EB0E5051EB045111F5801F5CBF93
:1031100041EA0C01F0BD4CF07F6141F0E04100203C
:10312000F0BDBD076D0840EA0E5041F48011D4F1A6
:103130000104B4F120060ADAC4F120060200E040DE
:1031400001FA06F3E1401843B24015430EE0342C77
:1031500013DCC6F1200445EA40056D0820FA06F2AA
:10316000154321FA06F0A1400D43002175F10042FC
:1031700050F1000051EB0C01F0BD00205FEA0C01A2
:10318000F0BDCFB992185B41B3FA83F704BFB2FA2E
:1031900082F6BF190B3FB7F120062FBF02FA06F3E4
:1031A000BB40C7F1200622FA06F638BF3343BA40C7
:1031B0001CB1E419641E33E77F4231F00041B1FADB
:1031C00081F404BFB0FA80F6A4190B3CB4F12006D8
:1031D0002FBF00FA06F1A140C4F1200620FA06F63E
:1031E00038BF3143A0403C1B1AE7AC421ABF05EA86
:1031F0001357AF4212E050EA41061CBF52EA4306A1
:10320000BFE750EA4107304661461CBF41EA05511D
:10321000F0BD52EA430C08BFC143F0BD00204FF49B
:10322000001616EB410F98BF16EB430F08BF16EBC5
:10323000410F24BFC14305E016EB430F0CBF6146AD
:103240004CEA0551F0BD0000400D491840EA8120CC
:103250000CD2490DA1F58061491C40F0004005DB0E
:10326000D1F11F0154BFC840C017704700207047FC
:10327000014648B1B0FA80F18840C91CC1F58461AB
:10328000090501EBD02140057047000070470000A0
:10329000841A71EB030604D26E40001BB14112196F
:1032A00073414FF4001C1CEB410F34BF7CEB430611
:1032B00083E00C0DA4EB1356362E00F37C80012E18
:1032C00045EAC32341DC43EA525312BFD2029202C1
:1032D0005B08240545EAC12141EA5051D2EBC020E8
:1032E000994125D407D1B0FA80F610FA06F162D0E0
:1032F0000020203608E0B1FA81F6B140C6F1200284
:1033000020FA02F21143B0404FEAF474B4EB465491
:1033100034F001064FEA74040AD8D6F50016760D8B
:1033200004F00044F04061FA06F25040F140484099
:10333000C00A40EA415021F0004128BF5FEA500531
:1033400050F1000044EBD12135E0DB0A45EAC12110
:10335000C90AB6F120050EDD42EA0242120CC5F19F
:10336000200603FA06F6EB4042EA06056D42984154
:1033700061F100010DE062FA06F5F240554063FA92
:1033800006FC82EA0C02F3405A406D42904161EB28
:10339000030111F4801F05D1641E620502D06D0087
:1033A0004041494121F48011430875F1004350F137
:1033B000000041EB045170BC70471CEB410F15D26B
:1033C00023F0004352EA43060BD04FEA4C0CBCEB0F
:1033D000410F04D80C0D661E342EB7DDEBE7801AC2
:1033E000994150EA410608BF0021E4E708BF1CEB01
:1033F000430F28BF6FF00001DDE70000F8B5DFF8EC
:10340000D849206850F00100206000F05BFD050005
:103410002068800706D400F055FD401B0328F7D331
:1034200003205EE0206830F0F00050F06000206083
:10343000DFF8A86900203060DFF8A409DFF8A419DC
:103440000860DFF8A409006800F042FD002801D000
:10345000012046E000F036FD0700306810F00C0F48
:1034600008D000F02FFDC01B41F289318842F4D30F
:10347000032036E02168DFF874090140216000F084
:1034800021FD0500206810F0206F06D000F01AFD25
:10349000401B0328F6D3032023E0DFF85409002162
:1034A0000160016851F480510160DFF8D409002106
:1034B0000160016851F480510160206830F480207F
:1034C00020600020DFF8BC1908605FF0FF30DFF8F3
:1034D000B8190860DFF8B409016851F4000101600F
:1034E0000020F2BD2DE9FE4F0500002D01D1012085
:1034F00043E3DFF8E898D9F8004014F00C04DFF853
:10350000F088D8F8007017F003072878C00640F15B
:10351000C680002C03D00C2C7AD1012F78D1DFF893
:10352000B8A8DAF80000800704D5A869002801D1FE
:10353000012022E3DAF80000000704D5DAF80000E1
:1035400010F0F00005E0DFF844090068000910F011
:10355000F000296A88421ED2286A00F04BFC00283D
:1035600001D0012009E3DAF8000050F00800CAF8A1
:103570000000DAF8001031F0F001286A0143CAF8BF
:103580000010DFF80C09016831F47F41EA6951EA63
:10359000022101601FE0DAF8000050F00800CAF8CC
:1035A0000000DAF8001031F0F001286A0143CAF88F
:1035B0000010DFF8DC08016831F47F41EA6951EA64
:1035C00002210160002C06D1286A00F013FC0028BB
:1035D00001D00120D1E200F078FBDFF8B818D9F86B
:1035E0000020C2F30312895C11F01F01C840DFF80C
:1035F000F4170860DFF8F007006800F069FC8DF848
:1036000000009DF80000002849D09DF80000B4E2B9
:10361000A86900282DD0DFF8C097D9F8000050F035
:103620000100C9F8000000F04DFC0600D9F80000C8
:10363000800706D400F046FC801B0328F6D3032045
:103640009BE2D9F8000050F00800C9F80000D9F852
:10365000001031F0F001286A0143C9F80010DFF8CA
:103660003008016831F47F41EA6951EA02210160C2
:1036700015E0DFF86497D9F8000040084000C9F869
:10368000000000F01FFC0600D9F80000800706D5F6
:1036900000F018FC801B0328F6D303206DE2287885
:1036A000C00754D5082C03D00C2C0BD1032F09D103
:1036B000DFF824070068800349D56868002846D1F0
:1036C00001205AE26868B0F5803F06D1DFF80807AC
:1036D000016851F48031016018E06868B0F5A02FEE
:1036E0000AD1DFF8F406016851F480210160016815
:1036F00051F48031016009E0DFF8DC06016831F443
:1037000080310160016831F480210160686800281F
:103710000ED000F0D7FB0600DFF8BC06006880037F
:1037200015D400F0CFFB801B6528F5D3032024E2DD
:1037300000F0C8FB0600DFF8A0060068800306D58D
:1037400000F0C0FB801B6528F5D3032015E2287824
:10375000800752D5042C03D00C2C15D1022F13D185
:10376000DFF874060068400504D5E868002801D138
:10377000012002E2DFF81807016831F0FE412A69F2
:1037800051EA0261016038E0E86800281FD0DFF8E4
:103790004896D9F8000050F48070C9F8000000F095
:1037A00091FB0600D9F80000400506D400F08AFB22
:1037B000801B0328F6D30320DFE1DFF8D40601687D
:1037C00031F0FE412A6951EA0261016015E0DFF83B
:1037D0000896D9F8000030F48070C9F8000000F0B5
:1037E00071FB0600D9F80000400506D500F06AFB21
:1037F000801B0328F6D30320BFE1287800072ED5CD
:103800006869002815D0DFF88496D9F8000050F0D8
:103810000100C9F8000000F055FB0600D9F80000CF
:1038200080071CD400F04EFB801B0328F6D3032036
:10383000A3E1DFF85896D9F8000040084000C9F825
:10384000000000F03FFB0600D9F80000800706D515
:1038500000F038FB801B0328F6D303208DE1287885
:10386000400740F181805FF00009DFF82CA6DAF80C
:103870000000C0000DD4DAF8000050F08050CAF803
:103880000000DAF8000010F080500190019801204B
:103890008146DFF808B6DBF80000C00513D4DBF87A
:1038A000000050F48070CBF8000000F00BFB060025
:1038B000DBF80000C00506D400F004FB801B0328E1
:1038C000F6D3032059E1A868012806D1DFF8D00516
:1038D000016851F00101016017E0A86805280AD1CC
:1038E000DFF8BC05016851F004010160016851F086
:1038F0000101016009E0DFF8A805016849084900F5
:103900000160016831F004010160A868002810D04E
:1039100000F0D8FA0600DFF888050068800719D49F
:1039200000F0D0FA801B41F289318842F3D30320A2
:1039300023E100F0C7FA0600DFF86405006880079D
:1039400008D500F0BFFA801B41F289318842F3D3D9
:10395000032012E14846C0B2012805D1DAF8000080
:1039600030F08050CAF80000287880062ED5686AAA
:10397000002815D0DFF82C95D9F8000050F0010090
:10398000C9F8000000F09EFA0600D9F80000800790
:103990001CD400F097FA801B0328F6D30320ECE038
:1039A000DFF80095D9F8000040084000C9F8000091
:1039B00000F088FA0600D9F80000800706D500F06C
:1039C00081FA801B0328F6D30320D6E0A86A0028DA
:1039D00000F0D280A86A022840F0A380D8F8000046
:1039E000070017F00300E96A884222D117F070003F
:1039F000296B491EB0EB011F1BD117F4FE40696B08
:103A0000B0EB012F15D117F07840A96BB0EBC16F67
:103A10000FD117F4C000E96B4908491EB0EB415FB4
:103A200007D117F0C060296C4908491EB0EB416FFF
:103A300057D00C2C53D0DFF8A0A3DAF800004001D7
:103A400001D5012099E0DAF8000030F08070CAF862
:103A5000000000F037FA8146DAF80000800107D54F
:103A600000F030FAB0EB09000328F5D3032084E01E
:103A7000D8F80010DFF830040140E86A0143286BF1
:103A8000401E51EA0011686B51EA0021E86B4008C2
:103A9000401E51EA4051286C4008401E51EA4061E6
:103AA000A86B51EAC061C8F80010DAF8000050F0C5
:103AB0008070CAF80000D8F8000050F08070C8F894
:103AC000000000F0FFF90600DAF80000800153D48E
:103AD00000F0F8F9801B0328F6D303204DE0012005
:103AE0004BE0DFF8F492D9F80000800144D4D9F813
:103AF000000050F08070C9F80000D8F8000050F0C5
:103B00008070C8F8000000F0DDF90600D9F8000068
:103B1000800131D400F0D6F9801B0328F6D30320AE
:103B20002BE00C2C26D0DFF8B092D9F8000030F052
:103B30008070C9F80000D9F80000000105D4D8F859
:103B4000000080088000C8F80000D8F80010DFF8F6
:103B50005C030140C8F8001000F0B4F90600D9F881
:103B60000000800108D500F0ADF9801B0328F6D3D2
:103B7000032002E0012000E00020BDE8FE8F2DE9D7
:103B8000F04104000D00002C01D101209BE0DFF882
:103B90002073386810F00700A8420BD23868C008BC
:103BA000C00028433860386810F00700A84201D0F0
:103BB000012088E02078C00742D56068032806D13C
:103BC000DFF81402006880011CD401207BE06068EB
:103BD000022806D1DFF800020068800312D4012019
:103BE00071E06068002806D1DFF8EC01006880070A
:103BF00008D4012067E0DFF8E0010068400501D447
:103C0000012060E0DFF8D481D8F80010890889002D
:103C100060680143C8F8001000F054F90600D8F8B5
:103C2000000010F00C006168B0EB810F08D000F0CC
:103C300049F9801B41F289318842F0D3032042E0E8
:103C40002078800706D565490A6832F0F002A0683E
:103C500002430A60386810F0070085420BD23868CA
:103C6000C008C00028433860386810F00700A84238
:103C700001D0012027E02078400706D557490A687F
:103C800032F4E062E06802430A602078000707D55A
:103C90005248016831F46051226951EAC201016061
:103CA00000F013F8DFF8EC114C4A1268C2F303126B
:103CB000895C11F01F01C8404A4908604A48006801
:103CC00000F006F9C0B2BDE8F0812DE9F041002610
:103CD00000204249096811F00C01DFF814C1DCF83A
:103CE000007017F00307002903D00C291AD1012F07
:103CF00018D1DFF8E4E0DEF800805FEA087806D447
:103D0000DFF888E1DEF800E0CEF3032E03E0DEF812
:103D100000E0CEF3031E674E56F82E6000290CD14A
:103D200030000AE0042903D1DFF88CE1704604E09A
:103D3000082902D1DFF884E170460C292DD1DCF886
:103D400000E01EF0030E73469E46BEF1020F03D044
:103D5000BEF1030F03D005E0DFF85CE103E0DFF81C
:103D60005CE100E0B646DCF80020C2F30212521C0F
:103D70001500DCF80020C2F3062202FB0EFEBEFB9B
:103D8000F5F2DCF800C0CCF3416C1CF1010C5FEAE9
:103D90004C0C6446B2FBF4FC6046BDE8F08111486F
:103DA0000068704780B5FFF7FAFF45490B4A126873
:103DB000C2F30222895C11F01F01C84002BD80B528
:103DC000FFF7EDFF3E49054A1268C2F3C222895C43
:103DD00011F01F01C84002BD00100240081002404F
:103DE00000093D002400002000000020FFF4FEFA3E
:103DF0000C1002407CB504000025274E3068C0003E
:103E000003D500F095F801000FE0306850F08050C5
:103E10003060306810F080500090009800F088F812
:103E20000100306830F080503060B1F5007F09D17A
:103E3000812C15D3A12C02D30220050010E0012013
:103E400005000DE0812C02D30320050008E0802C42
:103E500002D10220050003E0702C01D101200500F1
:103E600013480268D208D2002A430260006810F0AA
:103E70000700A84201D0012000E0002076BD00002C
:103E8000101002401810024020100240941002400E
:103E900004100240BC6B0008581002400070004043
:103EA00090100240981002408C809D01FFFFEEFEB2
:103EB00000200240986A00080024F40000127A00F2
:103EC000F46B000801480068704700BF580D0020DF
:103ED00038B5040000251349087800281DD04FF498
:103EE0007A700978B0FBF1F00F490968B1FBF0F086
:103EF00000F0FFF800280DD1102C08D2002221007C
:103F00005FF0FF3000F0D9F80848046007E00120B6
:103F1000050004E00120050001E001200500280063
:103F2000C0B232BDF00000202400002000000020BC
:103F3000DFF88000006810F4C06070470200B2F53E
:103F4000007F26D1DFF86C00036813F4C063B3F57B
:103F5000007F2CD0036833F4C06353F40073036014
:103F6000DFF85400036832204343DFF85000B3FB0E
:103F7000F0F0401C0100DFF8480003685B0503D542
:103F8000002901D0491EF6E7006840050FD503203F
:103F90000EE0DFF82000036813F4C063B3F5806F10
:103FA00005D0036833F4C06353F4806303600020DA
:103FB00070470000007000402400002040420F00C5
:103FC0001470004010B410F00703DFF83441226889
:103FD0004FF6FF010A40DFF82C1151EA03210A4392
:103FE000226010BC7047DFF818010068C0F302209F
:103FF00070470000010049B2002909D4012210F0E5
:104000001F018A40404903005BB25B0941F823204D
:10401000704710B4020052B2002A05D40A013B4B8B
:10402000040064B21A5508E00A01394B040064B276
:1040300014F00F04234403F8042C10BC704770B430
:10404000030013F00704D4F10700052801D304206E
:1040500001E0D4F10700251D072D01D2002500E065
:10406000E51E012616FA00F0401E0140A94016FA8E
:1040700005F56D1E2A401143080070BC704710B54D
:104080000400601EB0F1807F01D301200EE0601EAD
:10409000204908600F215FF0FF30FFF7BAFF0020D2
:1040A0001D49086007201D490860002010BD10B59B
:1040B00004002000FFF786FF10BD2DE9F041040049
:1040C0000D0016000027FFF78EFF80463200290002
:1040D0004046FFF7B4FF0100200040B2FFF799FF10
:1040E000BDE8F08110B50400200040B2FFF782FF68
:1040F00010BD10B504002000FFF7C1FF10BD000087
:104100000CED00E00000FA0500E100E000E400E052
:1041100018ED00E014E000E018E000E010E000E03E
:1041200010B50400002C01D1012035E0A069002861
:10413000FFD1606F002805D1002084F870002000B6
:1041400000F038FD242060672068006840084000C7
:1041500021680860200000F0DDF9012801D101206C
:104160001AE0606A002802D0200000F053FB2068AB
:10417000406830F49040216848602068806830F0E2
:104180002A00216888602068006850F001002168DA
:104190000860200000F0ABFB10BD2DE9FC470600D5
:1041A0000D0017009846706F202860D1002D03D0B5
:1041B000380080B2002801D1012059E096F8700043
:1041C000012801D1022053E0012086F87000002070
:1041D000F06721207067FFF775FE8146A6F85070E2
:1041E000A6F85270B068B0F5805F05D1306900283C
:1041F00002D10024AA4602E02C005FF0000A002051
:1042000086F87000B6F85200002820D0CDF8008063
:104210004B4600228021300000F09DFB002801D099
:10422000032025E0002C08D1BAF80000C005C00D1D
:10423000316808851AF1020A03E0207831680885A0
:10424000641CB6F85200401EA6F85200DAE7CDF81A
:1042500000804B4600224021300000F07CFB00280B
:1042600001D0032004E020207067002000E002203D
:10427000BDE8F68710B40300986F20286AD10029A2
:1042800003D0100080B2002801D1012063E093F830
:104290007000012801D102205DE0012083F8700048
:1042A0005965A3F85820A3F85A200020186698688A
:1042B000B0F5805F0BD11869002804D140F2FF10DF
:1042C000A3F85C0023E0FF20A3F85C001FE09868DF
:1042D00000280AD11869002803D1FF20A3F85C0048
:1042E00015E07F20A3F85C0011E09868B0F1805FD2
:1042F0000AD11869002803D17F20A3F85C0006E0EA
:104300003F20A3F85C0002E00020A3F85C0000203E
:10431000D867222098671868806850F001001C68F0
:10432000A0609868B0F5805F06D11869002803D1B5
:10433000DFF8D801186602E0DFF8D4011866002023
:1043400083F870001868006850F490701C68206052
:10435000002000E0022010BC70472DE9F843060061
:104360003068C7693068D0F800803068D0F80890AD
:1043700040F60F043C40002C0BD1B80609D55FEA8B
:10438000886006D5306E002802D03000316E884734
:10439000B9E0002C00F095805FEAC97005D4DFF821
:1043A000540418EA000F00F08C8017F00100C0B22E
:1043B000002809D05FEAC85006D50120316808629C
:1043C000F06F50F00100F067B8070BD519F001004D
:1043D000C0B2002806D0022031680862F06F50F0A9
:1043E0000400F06778070BD519F00100C0B200286F
:1043F00006D0042031680862F06F50F00200F067C8
:1044000038070ED55FEA886004D419F00100C0B205
:10441000002806D0082031680862F06F50F00800CC
:10442000F06738050AD55FEA481007D54FF40060F9
:1044300031680862F06F50F02000F067F06F0028DC
:104440003ED0B80608D55FEA886005D5306E0028F2
:1044500002D03000316E8847F06F05003068806808
:10446000400602D415F0280F25D0300000F0CBFA1A
:104470003068806840061AD53068806830F04000A7
:1044800031688860F06E00280DD00FF29D50F16EFB
:104490008863F06E00F012FC002811D0F06EF16E0F
:1044A000896B88470CE0300000F037FC08E03000F2
:1044B00000F033FC04E0300000F02FFC0020F06737
:1044C00021E0F8020AD55FEA492007D55FF48010A1
:1044D00031680862300000F021FC14E0380609D58C
:1044E0005FEA086006D5706E002802D03000716E59
:1044F000884708E0780606D55FEA486003D53000B3
:1045000000F0A0FAFFE7BDE8F1830000CF4A000801
:10451000654A00082DE9F04704000026DFF8D812AC
:1045200020688842FFD0A268206902436069024384
:10453000E069024320680368DFF8C00203401343C8
:10454000206803602068436833F44053E068034305
:1045500020684360D4F818802068884202D0206A1E
:1045600050EA08082068806830F4306058EA00009B
:10457000226890602068A24A904215D1A148006844
:1045800010F00300002805D0022805D006D3032828
:1045900006D007E001275BE0022759E0042757E037
:1045A000082755E0102753E02068974A904216D11B
:1045B0009448006810F00C00002806D0042808D0A9
:1045C000082804D00C2806D007E0002740E0022786
:1045D0003EE004273CE008273AE0102738E0206856
:1045E0008A4A904216D18748006810F030000028AF
:1045F00006D0102808D0202804D0302806D007E0A4
:10460000002725E0022723E0042721E008271FE0F8
:1046100010271DE02068884219D17A48006810F4FC
:104620004060002809D0B0F5806F0AD0B0F5006F67
:1046300005D0B0F5406F06D007E0002708E002275C
:1046400006E0042704E0082702E0102700E0102716
:104650002068884246D13800C0B2002806D002281F
:1046600008D0042809D008280BD00DE0FFF79AFBEA
:1046700081460DE0DFF898910AE0FFF726FB8146BE
:1046800006E04FF4004903E05FF000090120060056
:10469000B9F1000F00F0A58061680320414389450E
:1046A00005D361684FF480504143494502D201204F
:1046B000060096E04FF48072606840080021E2FB3B
:1046C000090162680023FEF709F90500B5F5407F8E
:1046D00005D3B5F5801F02D22068C56081E00120B6
:1046E00006007EE0E069B0F5004F42D13800C0B26C
:1046F000002808D001280AD002280CD004280DD0A8
:1047000008280FD011E0FFF74DFB814611E0FFF7BD
:1047100056FB81460DE0DFF8F8900AE0FFF7D5FA86
:10472000814606E04FF4004903E05FF000090120F4
:104730000600B9F1000F54D06068400810EB490042
:104740006168B0FBF1F080B20500102D0ED3B5F515
:10475000803F0BD24FF6F0712940C5F34200014370
:104760008A46504680B22168C8603AE001200600BF
:1047700037E03800C0B2002808D001280AD002284B
:104780000CD004280DD008280FD011E0FFF70AFB49
:10479000814611E0FFF713FB81460DE0DFF87090D2
:1047A0000AE0FFF792FA814606E04FF4004903E081
:1047B0005FF0000901200600B9F1000F11D0606818
:1047C00019EB50006168B0FBF1F080B20500102DCC
:1047D00005D3B5F5803F02D22068C56001E0012015
:1047E000060000202066002060663000C0B2BDE8F0
:1047F000F08700002001000400800040F369FFEF13
:104800000038014088100240004400400048004049
:104810000024F40090F82410C90707D501684A68FD
:1048200032F40032816A0A4301684A6090F8241029
:10483000890707D501684A6832F48032C16A0A43A1
:1048400001684A6090F82410490707D501684A6852
:1048500032F48022016B0A4301684A6090F8241008
:10486000090707D501684A6832F40042416B0A43E0
:1048700001684A6090F82410C90607D501688A6863
:1048800032F48052816B0A4301688A6090F82410E8
:10489000890607D501688A6832F40052C16B0A4361
:1048A00001688A6090F82410490613D501684A68A7
:1048B00032F48012016C0A4301684A60016CB1F560
:1048C000801F07D101684A6832F4C002416C0A4374
:1048D00001684A6090F82410090607D501684A6803
:1048E00032F40022816C0A4301684A60704738B58F
:1048F00004000020E067FFF7E5FA05002068006883
:1049000000070DD57FF07E4000902B0000225FF461
:104910000011200000F01FF8002801D0032019E04A
:104920002068006840070DD57FF07E4000902B0086
:1049300000225FF48001200000F00DF8002801D073
:10494000032007E0202060672020A067002084F873
:104950007000002032BD2DE9F04105000E009046A8
:104960001F00069C2868C0693040B04201D1012078
:1049700000E000204146C9B2884241D114F1010F44
:10498000F0D0FFF79FFAC01B844201D3002C14D152
:104990002868006830F4D07029680860286880684A
:1049A0004008400029688860202068672020A867A8
:1049B000002085F87000032023E028680068400785
:1049C000D0D52868C0690005CCD54FF400602968AF
:1049D00008622868006830F4D07029680860286888
:1049E000806840084000296888602020686720208F
:1049F000A8672020E867002085F87000032000E009
:104A00000020BDE8F0810168096831F49071026806
:104A10001160016889684908490002689160202195
:104A2000816700210166704738B50400A56A00203F
:104A3000A5F85A000020A5F85200280000F06DF9F2
:104A400031BD000010B504002068006830F040005F
:104A5000216808602020606700206066200000F068
:104A60005EF910BD70B50500B5F85C60A86F22282E
:104A700026D12868808C040016EA0400696D08704D
:104A8000686D401C6865B5F85A00401EA5F85A00CC
:104A9000B5F85A00002819D12868006830F49070E1
:104AA0002968086028688068400840002968886094
:104AB0002020A86700202866280000F049F905E0BA
:104AC0002868008B50F008002968088370BDF8B58D
:104AD0000500B5F85C70A86F222827D12868808C63
:104AE0000400686D060017EA04003080686D801CC1
:104AF0006865B5F85A00401EA5F85A00B5F85A0086
:104B0000002819D12868006830F49070296808607E
:104B10002868806840084000296888602020A867CD
:104B200000202866280000F013F905E02868008BB3
:104B300050F0080029680883F1BD000080B557488F
:104B4000574901605FF461214160002181600021CB
:104B5000C160002101610C214161002181610021BE
:104B6000C1610021016200214162FFF7D9FA0028EA
:104B700001D000F0D1FB01BD80B54A484A4901602F
:104B80005FF461214160002181600021C16000214A
:104B900001610C214161002181610021C16100217D
:104BA000016200214162FFF7BBFA002801D000F04A
:104BB000B3FB01BD10B586B004006846142100F0B7
:104BC000ADFB2068364988422AD13848016851F443
:104BD00080410160006810F48040059005983448D9
:104BE000016851F002010160006810F002000590B8
:104BF0000598C0200090022001900120029003201F
:104C000003900720049069462A4800F08BFB00229D
:104C100000212520FFF751FA2520FFF763FA2EE047
:104C20002068214988422AD12348016851F4003183
:104C30000160006810F40030059005981C48016878
:104C400051F001010160006810F001000590059825
:104C50000C2000900220019001200290032003907C
:104C60000720049069465FF0904000F05BFB002253
:104C700000212620FFF721FA2620FFF733FA06B09D
:104C800010BD11B581B00C004FF6FF73012201A9D0
:104C90000248FFF782FA019816BD0000340B00208D
:104CA00000380140B40B0020004400406010024076
:104CB0004C100240000400485810024038B504006F
:104CC000002594F82500022804D00420E063012088
:104CD00005001FE02068006830F00E0021680860C1
:104CE000206800684008400021680860012094F8AE
:104CF000441011F01C018840216C4860012084F8A8
:104D00002500002084F82400A06B002802D0200099
:104D1000A16B88472800C0B232BD7047704770470A
:104D20000168DFF88C251268914205D1DFF88415FF
:104D30000A88521C0A800AE00168DFF87C251268A4
:104D4000914204D1DFF874150A88521C0A8070471A
:104D50002DE9F04104002068DFF86415884242D153
:104D6000DFF86055DFF86065DFF86075387829880E
:104D700070542888401C2880DFF838850020A8F867
:104D800000002888022803DADFF8240500F019FC67
:104D9000DFF83C15087800280BD12888042808DBA8
:104DA00001200870B078F27852EA0022DFF824057A
:104DB0000280087801280FD1DFF8180500882A88BA
:104DC000121F904208D1062008700020A8F80000A9
:104DD000DFF8E40400F0DDFB01223900DFF8F8041D
:104DE000FFF748FA48E02068DFF8F014884243D122
:104DF000DFF8EC54DFF8EC64DFF8EC7438782988DD
:104E000070542888401C2880DFF8B0840020A8F85F
:104E100000002888022803DADFF8940400F0D1FBB0
:104E2000DFF8C814087800280BD12888042808DB8C
:104E300001200870B078F27852EA0022DFF8B0045E
:104E400002800878012811D1DFF8A4040088DFF877
:104E500074241288121F904208D106200870002086
:104E6000A8F80000DFF8500400F093FB012239009D
:104E7000DFF88004FFF7FEF9BDE8F0812DE9F84383
:104E800088B004000D00002600275FF00009A91E6D
:104E900089B2200000F0DCFC8046414689B228003F
:104EA00080B2204410F8022C120292B2280080B284
:104EB000204410F8010C0243914201D001201BE173
:104EC000DFF83404617801700078012808D00228E6
:104ED0005FD00A2800F0B6800B2800F00B810AE1B1
:104EE000A078E17851EA00210F00380080B2001F5D
:104EF000082190FBF1F201FB1200002801D00120F3
:104F0000FAE02079617951EA00210E00300080B288
:104F1000082190FBF1F201FB1200002801D00120D2
:104F2000EAE0EE208DF80000E946012089F8010052
:104F3000002089F80200052089F80300300080B2C3
:104F4000000A89F8040089F805603A1F92B2A11D91
:104F5000300080B200F0FBFC002803D1002089F86B
:104F6000060002E0012089F806000721684600F0EB
:104F70006FFC8046404680B2000A89F8070089F835
:104F800008804FF6FF7309226946D348FFF705F9F9
:104F9000B1E0A078E17851EA00210F00380080B23A
:104FA000001F082190FBF1F201FB1200002801D044
:104FB0000120A1E02079617951EA00210E00300042
:104FC00080B2082190FBF1F201FB1200002801D011
:104FD000012091E0EE208DF80000E946022089F8DA
:104FE0000100002089F80200052089F80300300044
:104FF00080B2000A89F8040089F805603A1F92B26D
:10500000A11D300080B200F0A2FC002803D10020D6
:1050100089F8060002E0012089F8060007216846A9
:1050200000F016FC8046404680B2000A89F807006E
:1050300089F808804FF6FF7309226946AD48FFF7EB
:10504000ACF858E0A078E17851EA00210F00380070
:1050500080B2001F082190FBF1F201FB1200002832
:1050600001D0012048E02079617951EA00210E0049
:10507000300080B2082190FBF1F201FB1200002801
:1050800001D0012038E0EE208DF80000E9460A202A
:1050900089F80100002089F80200052089F8030042
:1050A000300080B2000A89F8040089F805603900F0
:1050B00089B2300080B200F0EDFB002803D100205F
:1050C00089F8060002E0012089F8060007216846F9
:1050D00000F0BEFB8046404680B2000A89F8070017
:1050E00089F808804FF6FF73092269467A48FFF76E
:1050F00054F800E0FFE7002009B0BDE8F083F8B500
:1051000000F09EFC00F076F800F0D8FC00F000FD06
:10511000FFF714FDFFF730FD00F024FD00F049FD1E
:1051200001226A496C48FFF7A5F801226E497148CF
:10513000FFF7A0F8714800F09DFD654C207801282C
:105140000BD15C480188652907DB0621217000210D
:105150000180574800F01DFA0EE0644801780129EB
:105160000AD156490A88652A06DB06220270002009
:105170000880514800F00DFA2078062814D101204B
:105180005F490870002020704F4C4E4D2988200048
:10519000FFF774FE40F2324600273A00310020004B
:1051A00000F07CFD00202880642000F0ABFD544816
:1051B0000078002812D153490878401C08700878FC
:1051C0000A2290FBF2F302FB1300002806D10878B4
:1051D0000A2190FBF1F14C4800F04CFD4948017860
:1051E0003329AADB00210170484800F043FD00F09C
:1051F000F1FBA2E700B5ADB005A8442100F08EF8A0
:105200006846142100F08AF816A85C2100F086F8A0
:1052100000F08CFD3E48016831F018010160052066
:1052200005905FF4803006900120079002200F90D7
:105230000320109001201190142012900720139049
:10524000022014900220159005A8FEF74BF90028C3
:1052500001D000F061F80F200090032001900020A1
:105260000290002003900020049004216846FEF77D
:1052700086FC002801D000F04FF826481690002048
:105280001E9000201F904FF480702C9016A800F004
:1052900055FD002801D000F03FF84FF40070FEF7F4
:1052A0004DFE002801D000F037F82DB000BD000001
:1052B000840C0020680D0020D00C00206A0D002016
:1052C00000380140640D0020F4000020720D002021
:1052D000700D00206C0D0020340B002000440040B5
:1052E000660D002028050020730D0020710D0020A0
:1052F0006E0D0020B40B0020760D0020686B0008B6
:10530000750D0020740D0020DC6B0008806B000818
:10531000901002400300020070470000002200F0DD
:105320005DBF0000F8B4030000250868E8400028CD
:1053300000F0DB8001260F6816FA05F007403A00FE
:10534000002A00F0D0804868012808D04868022868
:1053500005D04868112802D0486812281DD19F68DE
:105360005FF0030C2800C0B240001CFA00FC37EAD2
:105370000C07D1F80CC02800C0B240001CFA00FC99
:105380005CEA07079F605868AE40B0434E68C6F3BA
:105390000016AE40304304005C60DE68032728003E
:1053A000C0B2400017FA00F08643D1F808C02800C8
:1053B000C0B240001CFA00FC5CEA0606DE604868E9
:1053C000022802D0486812281ED12800C00803EB2A
:1053D0008000046A5FF00F0C15F00700C0B2800077
:1053E0001CFA00FC34EA0C04D1F810C015F00700D8
:1053F000C0B280001CFA00FC5CEA0404260028000D
:10540000C00803EB800006621C682800C0B24000A0
:105410008740BC430F7917F003072800C0B2400053
:1054200087403C431C604868C0005CD53048066833
:1054300056F001060660006810F001000090009828
:105440002C4F2800800857F820605FF00F0C15F0F3
:105450000300C0B280001CFA00FC36EA0C06B3F16F
:10546000904F01D1002414E02348834201D101244C
:105470000FE02248834201D102240AE020488342FF
:1054800001D1032405E01F48834201D1042400E038
:10549000072415F00300C0B2800084402643280092
:1054A000800847F82060184C206890434F68FF033D
:1054B00000D510432060154E346894434F68BF03F5
:1054C00000D514433460124E306890434F68FF0299
:1054D00000D5104330600F4E346894434F68BF02CC
:1054E00000D5144334606D1C1FE7F1BC7047000009
:1054F0006010024008000140000400480008004815
:10550000000C004800100048000401400404014061
:10551000080401400C04014010B50400002C01D126
:10552000012035E094F83D00002805D1002084F8E2
:105530003C00200000F064FB022084F83D00211DA7
:10554000206800F047F9012084F84800012084F821
:105550003E00012084F83F00012084F84000012033
:1055600084F84100012084F84200012084F84300BF
:10557000012084F84400012084F84500012084F8CB
:105580004600012084F84700012084F83D000020F7
:1055900010BD01000868006A41F2111210420BD1DF
:1055A0000868006A40F24442104205D10868006869
:1055B000400840000A681060012081F83D0000208A
:1055C0007047010091F83D00012801D001202FE033
:1055D000022081F83D000868C06850F001000B68A7
:1055E000D8600868DFF84C30984208D00868B0F1FD
:1055F000804F04D00868DFF84030984211D1086825
:105600008368DFF8380003401A00062A0FD0B2F58D
:10561000803F0CD00868006850F001000B681860EB
:1056200005E00868006850F001000B681860002071
:1056300070470000002C01400040014007000100BD
:1056400010B504002068006980071AD52068C0687A
:10565000800716D57FF002002168086101202077BD
:105660002068806910F0030F03D0200000F0CFFD08
:1056700005E0200000F0CCFD200000F0CAFD002075
:1056800020772068006940071AD52068C068400765
:1056900016D57FF004002168086102202077206879
:1056A000806910F4407F03D0200000F0B0FD05E0D9
:1056B000200000F0ADFD200000F0ABFD00202077C1
:1056C0002068006900071AD52068C068000716D551
:1056D0007FF0080021680861042020772068C069F5
:1056E00010F0030F03D0200000F091FD05E0200032
:1056F00000F08EFD200000F08CFD00202077206857
:105700000069C0061AD52068C068C00616D57FF0AB
:10571000100021680861082020772068C06910F413
:10572000407F03D0200000F072FD05E0200000F073
:105730006FFD200000F06DFD0020207720680069DB
:10574000C0070AD52068C068C00706D57FF00100F1
:10575000216808612000FFF7E3FA2068006900066D
:105760000AD52068C068000606D57FF08000216851
:105770000861200000F04EFD20680069C0050AD5D0
:105780002068C068000606D57FF480702168086133
:10579000200000F040FD2068006940060AD520681E
:1057A000C068400606D57FF04000216808612000EF
:1057B00000F032FD2068006980060AD52068C068C4
:1057C000800606D57FF0200021680861200000F0E7
:1057D00024FD10BD10B40368DFF86840A04202D079
:1057E000B0F1804F03D133F070034A681343A042F5
:1057F0000AD0B0F1804F07D0DFF84C20904203D0A0
:10580000DFF84820904203D133F44073CA68134351
:1058100033F080034A69134303608A68C2620A68EE
:105820008262A04207D0DFF82020904203D0DFF848
:105830001C20904201D10A6902630122426110BC1E
:1058400070470000002C014000400140004401402E
:1058500070B40300FF2004000A00511E92B2002A17
:105860000DD00600F6B21A78564035005B1C074A88
:10587000525D62401000064A525D1400ECE7E4B24B
:10588000C0B250EA042080B270BC7047D0670008F4
:10589000D068000878B585B005000C0000200090A5
:1058A0005E48451900F012FD5D48016851F0404125
:1058B00001604CF2FA305B4908602E00F60A0020C5
:1058C0000190012002903000C0B20390200080B20D
:1058D0000490694601A800F07DFD002801D0012058
:1058E00000E0002006B070BDF8B507000C00150000
:1058F000280080B240F20121884201DB012025E02E
:1059000000F0E4FC4648016851F0404101604CF26F
:10591000FA304449086000263000290080B289B27C
:10592000884210D2300080B204EBC000D0E90023DE
:105930003900002000F072FC002802D10837761CE4
:10594000EAE7012002E000F0D2FC0020F2BD2DE9E0
:10595000F84F04000D00160000208DF80000300004
:1059600080B20830FBF7A6FA0700300080B20821A9
:1059700090FBF1F201FB1200002801D0012027E08A
:10598000300080B2082190FBF1F8B1461FFA89F986
:1059900019F108094FF0FF0ABB46524649465846DE
:1059A00000F07CF90020310089B2884203DA295CDA
:1059B0003954401CF7E7424692B2390017480019A3
:1059C000FFF792FF8146380000F0D6FD4846C0B28E
:1059D000BDE8F28F38B5144804682500FDF70EFDC8
:1059E00000F040F8002011490860002010490860CC
:1059F0000020104908600020082809DA5FF0FF3114
:105A00000D4A42F820100D4A42F82010401CF3E7DE
:105A10000248006880F30888A84731BD00000208EA
:105A200018200240102002400400020810E000E0AC
:105A300014E000E018E000E080E100E080E200E037
:105A400010B500240320FEF732FB0020FEF740FAD9
:105A5000002802D00120040001E000F08FFD2000AA
:105A6000C0B210BD80B50F485FF0FF3101600E4A33
:105A7000116000230360002010600C4801600022C8
:105A800002600B480160002202600A4801600022A7
:105A90000260094801600021016000F08BFD0020D8
:105AA00002BD0000381002403C100240401002408D
:105AB000281002402C1002403010024081B01348E0
:105AC000016851F004010160016811F004010091C6
:105AD0000099016851F080010160016811F08001B6
