:020000040800F2
:10000000800500200D210008B51F0008B71F00085B
:10001000B91F0008BB1F0008BD1F0008000000003A
:10002000000000000000000000000000BF1F0008EA
:10003000C11F000800000000C31F0008C51F000802
:100040004121000845210008492100084D210008F0
:100050005121000855210008592100085D210008A0
:100060006121000865210008692100086D21000850
:100070007121000875210008792100087D21000800
:100080008121000885210008892100088D210008B0
:100090009121000895210008992100089D21000860
:1000A000A1210008A5210008A9210008AD21000810
:1000B000B12100080000000000000000B521000888
:1000C000B9210008BD210008C1210008C521000890
:1000D000C9210008C91F0008CF1F0008CD21000852
:1000E000D1210008D5210008000000000000000018
:1000F0000000000000000000000000000000000000
:1001000000000000D921000800000000DD210008E7
:100110000000000000000000D51F0008E1210008D9
:10012000E5210008E9210008ED210008F12100087F
:10013000F5210008000000000000000000000000A1
:10014000F9210008FD21000801220008000000003C
:1001500005220008092200080D22000811220008CB
:1001600015220008192200081D22000800000000C6
:1001700021220008252200080000000000000000E5
:10018000292200082D220008312200082DE9FC4711
:10019000050017D0DFF83C77DFF84867BC68F868DF
:1001A00000F003082878C10604F00C0453D524B1EC
:1001B0000C2C08BFB8F1010F2FD13868810703D587
:1001C000A869002800F06381396808074EBF3968C4
:1001D00071680909286A01F0F001814206D200F035
:1001E0003DFB002809D100F040FA08E000F03DFA9C
:1001F0002CB9286A00F032FB002840F0488100F05A
:10020000D0FABA6800F0C3FADFF8D006006800F050
:1002100081FB010000F02B8121E2A86990B13968CF
:1002200041F00101396000F097FB81463868810791
:1002300000F11B8100F090FBA0EB09000328F5D32F
:1002400003200CE2386840084000386000F084FB6E
:1002500081463868810740F10A8100F07DFBA0EB00
:1002600009000328F5D3EBE76868B0F5803F04D1B7
:10027000386840F48030386011E0B0F5A02F38685D
:1002800006D140F480203860396841F4803105E0BF
:1002900020F480303860396821F480213960686842
:1002A00068B100F059FB81463868810300F1F180A4
:1002B00000F052FBA0EB09006528F5D3C0E700F081
:1002C0004BFB81463868810340F1E38000F044FB3A
:1002D000A0EB09006528F5D3B2E700F03DFB00F084
:1002E000C0F9C0F0FC80ABE7E86880B1396841F440
:1002F0008071396000F030FB80463868410500F1BC
:10030000D98000F029FB00F0ACF9F6D398E7386803
:1003100020F48070386000F01FFB8046386841058B
:1003200040F1CF8000F018FB00F09BF9F6D387E78F
:1003300040084000706000F00FFB80467068810745
:1003400040F1D18000F008FB00F08BF9F6D377E79D
:100350000528306806D140F004003060316841F073
:10036000010105E0400840003060316821F00401DF
:100370003160A86841F2893968B100F0EDFA82462F
:100380003068810700F1E58000F0E6FAA0EB0A0092
:100390004845F5D354E700F0DFFA8246306881071C
:1003A00040F1D78000F0D8FAA0EB0A004845F5D319
:1003B00046E700F0D1FA00F054F9C0F0DF803FE7E3
:1003C00040084000B06000F0C7FA8046B06881077E
:1003D00040F1D88000F0C0FA00F043F9F6D32FE7DF
:1003E00000F0BAFA001B0328C0F00A8128E700F0E9
:1003F000B3FA001B0328C0F02D8121E73868810182
:100400000CD4386840F080703860F96841F0807131
:10041000F96000F0A1FA04463868810100F11E81FC
:1004200000F09AFA001B0328F6D309E70C2C2ED013
:10043000386820F0807038603968080103D4F968A2
:1004400089088900F960F968DFF89C040140F960C7
:1004500000F082FA04463868810140F1FF8000F024
:100460007BFA001B0328F6D3EAE600F0FEF82878B2
:10047000C1070ED5082C05D00C2C08BFB8F1030F0E
:100480007FF4F2AE3868810303D5686808B90120AB
:10049000E5E02878810714D5042C05D00C2C08BF82
:1004A000B8F1020F7FF420AF3868410502D5E86843
:1004B0000028ECD07868296920F0FE4040EA01600D
:1004C0007860287801070ED56869002870683FF4C5
:1004D0002FAF40F00100706000F03EFA8046706877
:1004E00081077FF5FAAE2878410739D5B86DC1008C
:1004F0004FF000080AD4B86D40F08050B8654FF056
:100500000108B86D00F0805000900098DFF8DC938F
:10051000D9F80000C10513D4D9F8000040F4807068
:10052000C9F8000000F018FA8246D9F80000C105A9
:1005300006D400F011FAA0EB0A000328F5D37FE6F9
:10054000A86801287FF404AF306840F001003060F3
:100550000FE7B8F1000F03D0B86D20F08050B865F8
:10056000287881060ED5686A0028B0683FF428AF65
:1005700040F00100B06000F0EFF98046B0688107FC
:100580007FF517AFA86A002868D002287FF44EAF25
:10059000F868EA6A00F00301914201BF00F07001BF
:1005A0002A6B521EB1EB021F1CD16A6B00F4FE4194
:1005B000B1EB022F02BF00F07841AA6BB1EBC26F22
:1005C00010D1EA6B520800F4C001521EB1EB425F39
:1005D00008D1296C490800F0C060491EB0EB416F9A
:1005E0003FF40CAF0C2C3FF452AF386841013FF59B
:1005F0004EAF386820F08070386000F0ADF90446E6
:10060000386881013FF5ECAEFA68DFF8E412E86A79
:100610000A40296B0243491E686B42EA0112E96BEA
:10062000490842EA0022286C491E400842EA415229
:10063000401E42EA4062A86B42EAC062FA60396832
:1006400041F080713960F86840F08070F86000F027
:1006500083F90446386881017FF5C9AE0020BDE802
:10066000F687A0EB080003287047386840F00800C0
:1006700038603968286A21F0F001014339607968EF
:10068000E86921F47F4141EA0021796070472DE952
:10069000F0410400884678D0DFF85862306800F0F6
:1006A0000700404509D23168C90848EAC1013160F4
:1006B000306800F00700404567D12078DFF8145219
:1006C000C1074AD56068032802D129688A0108E079
:1006D000022802D129688A0303E00028296802D190
:1006E0008A0702D451E04A054FD5A968890840EA33
:1006F0008100A86000F030F90746A868616800F042
:100700000C00B0EB810F28D000F026F9C01B41F29D
:1007100089318842F1D303201DE02078410705D5B7
:10072000AA68E06822F4E0620243AA602178080720
:1007300006D5A968206921F4605141EAC001A96089
:1007400000F02FF8AA6800F022F8BDE8F0416348F5
:10075000006800F0DFB8BDE8F0812078810705D59A
:10076000AA68A06822F0F0020243AA60316801F092
:1007700007018845D1D23068C00848EAC00030601F
:10078000316801F007014145C7D00120E3E75A492C
:10079000C2F30312895C504A01F01F01C840106087
:1007A000704770B54B4A564B9068D66800250021BB
:1007B00010F00C0006F00306524C03D00C2812D1A6
:1007C000012E1AD115682E0704D4454D2E68C6F3A4
:1007D000032502E01568C5F303154B4E56F8255066
:1007E00048B9294624E0042808BF214620D008281B
:1007F0001ED119461CE00C281AD1D06800F0030065
:10080000022803D0032808BF1D4600E02546D16812
:10081000D068D268C0F306204543C1F30210C2F38A
:100820004161401C491CB5FBF0F04900B0FBF1F1FF
:10083000084670BD2848314A006813683349C3F33D
:10084000022206E024482D4A006813682F49C3F3AA
:10085000C222895C01F01F01C84070477CB52C4E54
:10086000054630680024C10002D500F07BF80EE098
:10087000306840F080503060316801F08051009164
:10088000009800F06FF8316821F080513160B0F5C8
:10089000007F04D1802D0CD9A12D09D304E0802D37
:1008A00088BF032405D801D1022402E0702D00D1B5
:1008B000012410480168C90844EAC10101600068C8
:1008C00000F00700A04201D0012076BD002076BDD7
:1008D00000000000001002400C0000200800002072
:1008E0009410024090100240FFFFEEFE00700040A6
:1008F0008C809D0100200240A41F000808100240C7
:1009000000127A000024F400F81F000838210008C3
:100910005810024070B50E4E044630780025A0B144
:100920004FF47A710B4AB1FBF0F11068B0FBF1F0B3
:1009300000F09FF848B9102C07D2002221464FF052
:10094000FF3000F06DF8B46000E00125284670BD6E
:10095000000000200C00002001484068704700BFE4
:1009600000000020DFF87800006800F4C0607047E5
:1009700010B5DFF86C10B0F5007F086800F4C060B7
:1009800015D1B0F5007F1BD00868DFF85820DFF8DC
:10099000584020F4C06040F4007000F018F84A6934
:1009A00053050FD5002818BF401EF8D10AE0B0F556
:1009B000806F05D0086820F4C06040F48060086053
:1009C000002010BD48694105FAD5032010BD08601C
:1009D000322013684343B3FBF4F0401C704700001F
:1009E000007000400C00002040420F00090102008E
:1009F00002D42A4881547047294B02F00F021A444E
:100A000002F8041C7047274B19684FF6FF020002DA
:100A1000114000F4E0600843234908431860704720
:100A200038B5204B1C68C4F30223C3F10704052C1E
:100A300028BF04241D1D072D34BF0023DB1E012504
:100A400005FA04F4641E2140994005FA03F35B1E85
:100A50001A401143BDE83440C8E70000010007D444
:100A6000012200F01F01114B8A40400943F8202069
:100A7000704710B5401EB0F1807F01D3012010BD3A
:100A80000B4C60600F214FF0FF30FFF7AFFF0021EC
:100A9000A16007202060002010BD000000E400E0FD
:100AA00018ED00E00CED00E00000FA0500E100E0C8
:100AB00010E000E038B5040009D004F17005696861
:100AC00009B900F01EF800F021F8012801D1012039
:100AD00032BD606A08B100F02AF800F00AF821F08F
:100AE0002A01FFE7816000F01BF8BDE8324000F00A
:100AF00034BA2068416821F49041416020688168DF
:100B0000704700202870204600F0D6BA2421696082
:100B100020680268520852000260204600F0C0B807
:100B20002068016841F001010160204670472046BD
:100B300000F0B0B970B5044640F60F002568E969C9
:100B40002A68AB6808400AD188067BD5960679D515
:100B5000216E002975D02046BDE870400847D807AF
:100B600003D4DFF80C6332426CD0C80707D5D60532
:100B700005D501202862E56F45F00105E567880786
:100B800008D5DD0706D5266802203062E06F40F008
:100B90000400E067480708D5DD0706D5266804206D
:100BA0003062E06F40F00200E06708070AD5950662
:100BB00001D4D80706D5256808232B62E06F40F0E2
:100BC0000800E067080509D5530107D525684FF4EB
:100BD00000602862E06F40F02000E067E06F0028CE
:100BE00057D0880605D5910603D5216E09B1204658
:100BF0008847E06F21688A68510602D410F0280FF8
:100C00001AD0204600F01DFA206881684A060ED5E9
:100C100000F040F858B10FF249418163E06E00F0F6
:100C2000A9FAB0B3E06E816BBDE87040084720467A
:100C3000BDE8704000F0C3BA204600F0C0FA0020C2
:100C4000E06770BDC80209D55B0207D54FF480107C
:100C500028622046BDE8704000F0B2BA080607D509
:100C6000130605D5616EA1B12046BDE87040084766
:100C700048060ED551060CD5286820F040002860A3
:100C800020216167002060662046BDE8704000F0CA
:100C900098BA70BD816821F040018160E06E7047B4
:100CA000F8B5044674482268744F1368A16803407D
:100CB00020690B4361690343E0690B4303431360FD
:100CC00000255168E06821F4405101435160A36957
:100CD00068498A421CBF206A03439668684826F424
:100CE000306633439360BA424FF40043654E30D1CF
:100CF000366806F00306032E38D8DFE806F00270E7
:100D00005D720127E169B1F5004F4FF6F07640F0D2
:100D1000878047B1012F7BD0022F08D0042F7AD0D3
:100D2000082F7BD09EE0FFF785FD002810D061687A
:100D30004A0802EB4002B2FBF1F080B2A0F11001D0
:100D4000B142EFD20640C0F3420006432068C660BD
:100D500089E04D4FBA4221D1366816F00C063CD0DE
:100D6000042E3CD0082E27D00C2E3AD010278A42D1
:100D7000C8D137B1022F08D0042F34D0082F35D076
:100D800070E0FFF757FD00286DD0626802EB42016A
:100D9000884267D3130383422AD263E03B4FBA42AF
:100DA0000CD1366816F0300617D0102E17D0202E32
:100DB00002D0302E15D0D9E70227D8E78A42D5D104
:100DC000366816F4406608D0B6F5806F07D0B6F5E1
:100DD000006FF1D0B6F5406FECE70027C7E70427B6
:100DE000C5E70827C3E7FFF7DCFCCCE71846CCE7EC
:100DF000010E560816EB00206941002300F0E2F9CD
:100E0000A0F54071224A91422CD22168C8602AE0A4
:100E1000FFF718FD89E7FFF7C4FC86E7184686E769
:100E200047B1012F16D0022F07D0042F15D0082F5D
:100E300016D017E0FFF7FEFCA8B1616800EB510087
:100E4000B0FBF1F080B2A0F11001B1420AD22268E9
:100E5000D06008E0FFF7F6FCEEE7FFF7A2FCEBE757
:100E60001846EAE701250020206660662846F2BDA4
:100E70002001000400800040F369FFEF00380140CA
:100E80000024F40088100240004400400048004064
:100E900000FD0F0090F82410CA0706D502685368B9
:100EA000816A23F400330B43536090F824108A07BF
:100EB00006D502685368C16A23F480330B4353603C
:100EC00090F824104A0706D502685368016B23F492
:100ED00080230B43536090F824100A0706D502685C
:100EE0005368416B23F400430B43536090F8241084
:100EF000CA0606D502689368816B23F480530B43BE
:100F0000936090F824108A0606D502689368C16B36
:100F100023F400530B43936090F824104A0610D535
:100F200002685368016C23F480130B435360036C15
:100F3000B3F5801F05D15368416C23F4C0030B4304
:100F4000536090F824100A0606D501684A68806C40
:100F500022F4002202434A607047F8B5044604F1C7
:100F600070050020E8606FF07E47FFF7F5FC06464D
:100F7000206801680A0708D50097334600224FF41D
:100F80000011204600F016F860B9206801684A0791
:100F90000AD50097334600224FF48001204600F026
:100FA00009F808B10320F2BD20206860A860002085
:100FB0002870F2BD2DE9F041069C05460E4690468C
:100FC0001F462868C1693140B1420CBF0120002092
:100FD000404528D114F1010FF3D0FFF7BDFCC01B31
:100FE000844200D34CB92868016821F4D0710160B3
:100FF00000F01CF80021017013E0286801684A071E
:10100000DFD5C1690A05DCD54FF4006101622868AB
:10101000026822F4D0720260002200F007F8C1607A
:101020000270032000E00020BDE8F081286881689C
:1010300049084900816005F170002021416081600C
:10104000704701680A6822F490720A6001688A6831
:10105000520852008A602021816700220266704790
:10106000806A00F1520100220A810A8000F0A7B8CC
:1010700080B53B483B4900F00BF800B118E001BDDA
:1010800080B53948394900F003F800B110E001BDDE
:1010900001604FF4612200230C2142608360C36031
:1010A000036141618361C36103624362FFF702BD73
:1010B000BDE8014000F08AB910B586B00446684624
:1010C000142100F085F92068264C2949A04213D14B
:1010D000486940F480404861486900F4804000F06D
:1010E00024F84FF4C06100F02CF8002200212520E4
:1010F000FFF796FC252014E01C4A904213D1C868E3
:1011000040F40030C860C86800F4003000F00DF80A
:101110000C2100F016F8002200212620FFF780FCA9
:101120002620FFF79BFC06B010BD059005980A68C5
:1011300042F001020A600222096801F001010591F2
:101140007047059800910192012102910322072125
:101150000491039269464FF0904000F03DB90000C1
:1011600010000020003801409000002000440040A2
:101170004C10024038B500F1240100244A78022ABC
:1011800003D004208861012417E00268136823F06B
:101190000E031360026815686D086D00156001226A
:1011A00091F82030CD6903F01C039A406A60012257
:1011B0004A700C70496901B18847204632BD7047BA
:1011C00070477047D3BBD9B1B2F5803F5BD2022ADA
:1011D0001ED98C46B1FBF2F102FB11C31B0443EA9A
:1011E0001043B3FBF2FC02FB1C3380B240EA034322
:1011F000B3FBF2F002FB103240EA0C4000237047D0
:10120000022A05D98446B0FBF2F002FB10C27047F7
:101210004AB105D100F0010249085FEA3000704789
:1012200000220023704700F0ABB90B000200002140
:1012300000207047F7D3002200237047904271EBE3
:10124000030CF2D370B5B1FA81F4B3FA83F52C1B19
:10125000A340C4F1200532FA05F63343A2405FF003
:101260000046E64002E05B085FEA3202841A71EB56
:10127000030524BF204629467641F4D302000B0023
:101280003000002170BD70B5B1FA81F4B2FA82F578
:10129000C4F120046419B4F12006DAD3B2405FF03F
:1012A0000044F440002502E052085FEA3303C61A06
:1012B00071EB020E24BF3046714664416D41F3D399
:1012C00002000B002000290070BD30B4002513E09F
:1012D00050F8042BD30744BFA9F101039A18091F42
:1012E000042942F8045BFAD213468C0744BF1580E8
:1012F0009B1CC90748BF1D7050F8041B0029E7D18B
:1013000030BC704780B500F03DF900F00BF800F0FC
:1013100049F900F069F9FFF7ABFEFFF7B1FE00F005
:1013200089F9FEE718B5ADB0254C05A82146442241
:1013300000F0C4F96846142100F04AF816A804F138
:1013400044015C2200F0BAF900F0C4F91D480168BC
:1013500021F018010160052205924FF4803101222D
:1013600006910792022103220F911092012114226B
:10137000119112920721022213911492159205A83D
:10138000FEF704FF0F20032100900191002202923A
:101390000392049204216846FFF779F900221E9215
:1013A0001F924FF48072084916912C9216A800F0F3
:1013B00099F94FF40070FFF7DBFA2EB010BD000072
:1013C000B81E0008901002400300020070470000A1
:1013D000002200F047BB00002DE9F84F4FF0000855
:1013E000604A0F2304460D4635E05F4EB44214BFF9
:1013F000072604268E4046EA0E064CF82760C743AF
:101400005A490E6807EA060C6E68F60348BF40EAC0
:101410000C0CC1F800C04E6807EA060C6E68B603F3
:1014200048BF40EA0C0CC1F804C08E6807EA060CFD
:101430006E68F60248BF40EA0C0CC1F808C0CE68DE
:1014400007EA060C6F68BE0248BF40EA0C0CC1F800
:101450000CC008F10108296831FA08F000F080801A
:10146000012000FA08FE1EEA0100F2D04FEA480708
:101470000321B9406FEA010C6968012918BF0229EC
:1014800003D0112918BF122910D1A168EE680CEA07
:101490000101BE403143A160616821EA0E0669681E
:1014A000C1F3001101FA08F131436160E168AE68EF
:1014B0000CEA0101BE403143E1604FEA88016E68E9
:1014C000022E18BF122E13D14FEAD80604EB860E57
:1014D00001F01C09DEF82060D5F810B003FA09FA13
:1014E00026EA0A060BFA09F949EA0606CEF8206050
:1014F000266895F804E00EF0030E0CEA06060EFAD4
:1015000007F7374327606F68FE00A2D51768DFF83A
:1015100060C047F00107176001F00C01166806F083
:101520000106009603FA01FE009F4FEA98075CF857
:10153000276026EA0E0EB4F1904F08BF00260ED0A9
:101540000C4EB44208BF012609D00B4EB44208BF6E
:10155000022604D0094EB4427FF447AF032649E780
:10156000BDE8F18F60100240001000480004014007
:10157000080001400004004800080048000C004832
:1015800070470000032010B5FFF73DFA0020FFF779
:10159000C1F90024002814BF012400F07DFA204680
:1015A00010BD00000F4881B0016841F004010160E6
:1015B000026802F0040200920099026842F0800280
:1015C0000260036803F0800300930099026842F010
:1015D00001020260006800F001000090009801B074
:1015E000704700BF4C10024080B50F480F490160A2
:1015F00000227F23FF2142608360C160026142615B
:101600008261C26100F060FA18B1BDE80140FFF7E5
:10161000DDBE01BD00680549884204D10448026866
:1016200042F40042026070475C0100200028004044
:10163000901002403EB5684600210022002380E859
:101640000E004F201A4C1B4DA16060604FF47A725F
:101650008021E260A1612560204600F0E5FA08B132
:10166000FFF7B4FE0021009102912046694600F088
:10167000E9FB08B1FFF7AAFE37BD00680D498842B3
:1016800000D0704780B50C48026842F0100202603A
:101690000022006800F01000009000210098362021
:1016A000FFF7BEF9BDE802403620FFF7D7B90000CA
:1016B0001001002000100040581002404AB1000004
:1016C00011F8013B521E00F8013B1CBF11F8013B11
:1016D000F8E770470248016841F480710160704783
:1016E000007000402DE9FC47054600242868DFF81B
:1016F00058630105A1461BD5686C58B1B0F5000FC1
:1017000003D0B0F5400F09D010E0326842F48032C7
:10171000326004E0002100F010F904463CB9F16F9A
:10172000686C21F440010143F16701E00124A14606
:10173000286881032BD5F06CC1004FF000080AD453
:10174000F06C40F08050F0644FF00108F06C00F055
:10175000805000900098DFF8F472386840F4807090
:101760003860FFF7F9F882463868C10500F1BD809E
:10177000FFF7F2F8A0EB0A000328F5D30324A146F3
:10178000B8F1000F03D0F06C20F08050F06428789E
:10179000C10705D5F26F286A920840EA8202F26713
:1017A0002978880705D5F16F686A21F00C0101439B
:1017B000F1672978480705D5F16FA86A21F0300153
:1017C0000143F1672978880605D5F16FE86A21F4AD
:1017D00040610143F1672968880505D5F16FE86B21
:1017E00021F440210143F1672968480505D5F16FCF
:1017F000286C21F440110143F1672978480605D58A
:10180000F16F286B21F440510143F16729780806F4
:1018100005D5F16F686B21F440410143F1672968F8
:10182000C80505D5F16FA86B21F440310143F1677C
:101830002968080320D5F16FA86C21F040610143AD
:10184000F167A86CB0F1006F0ED1306840F48010E1
:10185000306011E0FFF780F8001B41F289318842C7
:1018600060D34FF003098BE7B0F1806F04D100F033
:1018700063F8010018BF81462868410316D5F26F4E
:10188000E86C22F040620243F267E86CB0F1006F4E
:1018900004D1306840F48010306007E0B0F1806F10
:1018A00004D100F049F8010018BF814628684104BE
:1018B0000FD5F26F286D22F040520243F267296D76
:1018C000B1F1805F05D1022100F037F8010018BFA7
:1018D00081462868010405D5F26F686D22F08042C8
:1018E0000243F2674846BDE8F687002C7FF447AF15
:1018F000DFF85C71386810F440701CBFA96D884235
:101900000BD03868396841F48031396020F4407078
:101910003A6822F480323A603860C00705D5FFF794
:101920001BF804463868810794D53A68A86D22F4FC
:10193000407202433A6023E70121281DFFE72DE9A9
:10194000F0410746434E38680C46F168002511F017
:10195000030F0DD0F16801F00301814237D1B0B31C
:10196000F0687968C0F30210401C884213D02EE062
:10197000012804D02BD3032823D01ED327E03268BC
:10198000910724D5F268796822F073021043491E4A
:1019900040EA0110F060306820F080603060FEF7AF
:1019A000DBFF80463068010134D5FEF7D5FFA0EBA0
:1019B00008000328F6D303253CE031684A05E1D44A
:1019C00005E031688A03DDD431684A03DAD40125A1
:1019D00030E0012C326906D13B691F4800F02DF838
:1019E00041EA435105E07B691C4800F026F841EAD2
:1019F00043613161306840F080603060FEF7ACFFD9
:101A000004463068010111D4FEF7A6FF001B03282D
:101A1000F7D3D0E7B968002CDBD132691048FB68F6
:101A2000024042EA012141EAC361E2E73169B86953
:101A3000014331612846BDE8F08102405B0842EA7B
:101A400001215B1E704700000C1002400070004036
:101A50009010024000100240FF809FFFFF80FFF9BE
:101A6000FF80FF0700B500BF13009646944610396B
:101A700028BFA0E80C50FAD85FEA417C28BF0CC010
:101A800048BF40F8042BC90728BF20F8022B48BFE5
:101A900000F8012B00BD00000A4881B0816841F0C8
:101AA00001018160816801F00101009100990268E3
:101AB00042F080520260006800F080500090009870
:101AC00001B070475810024038B504460120002C80
:101AD00045D094F8210028B9002184F82010204630
:101AE000FFF798FD022184F82110CA202268506275
:101AF000532120684162204600F04BF801002ED1AE
:101B00002168DFF81C018A6802408A6022689368B5
:101B100065682169A0690D4305432B4393602068E4
:101B2000E168016120680169A26841EA024101613E
:101B3000204600F04EF8010011D12168CA6C9208CD
:101B40009200CA642268D36CE56961690D432B4336
:101B5000D364FF2223685A62012184F8211032BD28
:101B600038B504462068C16821F0A001C160FEF7C5
:101B7000F3FE05462068C168880608D4FEF7ECFE2F
:101B8000401B40F2E9318842F4D3032032BD0020EB
:101B900032BD70B5044600252068C1684A0616D4D7
:101BA0004FF0FF31C160FEF7D7FE064609E0FEF7B1
:101BB000D3FE801B40F2E931884224BF032584F81C
:101BC00021502168C868410601D4032DEFD1284671
:101BD00070BD70B5134D0446686820F080006860E1
:101BE00000262968880608D42046FFF7B9FFA0B16F
:101BF000032084F8210003260FE0286820F020004D
:101C000028602046FFF7ACFF18B1032084F82100BC
:101C10000326286840F020002860304670BD000090
:101C2000BFFF8FFF0828004038B5040001D1012014
:101C300032BD00F01FF818B900F018F8FFF71DFDCD
:101C4000FFE702206870211D206800F0C8F801201D
:101C50002873A870E87028716871A871E8712872FB
:101C60006872A872E8726870002032BD0021297085
:101C70002046704704F13C056878704710B504466B
:101C8000206801698A0715D5C1688A0712D56FF0E7
:101C90000201016101222277806910F0030F2046C2
:101CA00002D000F001F903E000F0FFF800F094F832
:101CB00000202077206801694A0715D5C1684A07C6
:101CC00012D56FF00401016102222277806910F4BD
:101CD000407F204602D000F0E7F803E000F0E5F88E
:101CE00000F07AF800202077206801690A0715D5EE
:101CF000C1680A0712D56FF008010161042222773A
:101D0000C06910F0030F204602D000F0CDF803E0C8
:101D100000F0CBF800F060F800202077206801691F
:101D2000CA0615D5C168CA0612D56FF01001016147
:101D300008222277C06910F4407F204602D000F0CC
:101D4000B3F803E000F0B1F800F046F80020207787
:101D500020680169CA0708D5C168CA0705D56FF0B0
:101D600001010161204600F0A1F8206801690A061E
:101D700008D5C1680A0605D56FF0800101612046CB
:101D800000F095F820680169CA0508D5C1680A06FF
:101D900005D56FF480710161204600F089F8206854
:101DA00001694A0608D5C1684A0605D56FF04001A9
:101DB0000161204600F07DF8206801698A060AD595
:101DC000C1688A0607D56FF0200101612046BDE891
:101DD000104000F06FB810BD204600F06CB870B530
:101DE000154E0368154C164DB04218BFB0F1804F28
:101DF00001BF23F070034A681343B04205D0B0F12D
:101E0000804F1CBFA842A04203D1CA6823F440738C
:101E100013434A6923F0800313430360B0428B6885
:101E2000C3621CBFA842A0420A68826201D109694C
:101E300001630122426170BD002C01400044014059
:101E400000400140F0B500F13C042278012A01D1A4
:101E50000220F0BD01222270022363700568DFF8C2
:101E600040C06E68AF68654503D14B6826F47006C4
:101E70001E430A6826F0700616436E6002686245CB
:101E80001EBFB2F1804F0748824204D1886827F014
:101E90008007074397600121617000202070F0BD2A
:101EA000002C014000400140704770477047704768
:101EB0007047704770477047000000000000000046
:101EC0000000000000000000000000000000000012
:101ED0000000000000000000000000000000000002
:101EE00000000000000000000000000000000000F2
:101EF00000000000000000000000000000000000E2
:101F000000000000000000000000000000000000D1
:101F100000000000000000000000000000000000C1
:101F200000000000000000000000000000000000B1
:101F300000000000000000000000000000000000A1
:101F40000000000000000000000000000000000091
:101F500000000000000000000E48016841F470011C
:101F6000016000220C49086840F0010008608A60A6
:101F70004FF480520B68094803400B60CA60002090
:101F80000B68074A23F480230B6088614FF00061DF
:101F90001160704788ED00E000100240FFFFF6EA94
:101FA00008ED00E000000000000000000102030452
:101FB000060708097047FEE7FEE7FEE7FEE7704701
:101FC0007047704700F010B80448FEF7B3BD0448EE
:101FD000FEF7B0BD0348FFF751BE0000100000201F
:101FE00090000020100100200248416802788A1801
:101FF0004260704700000020A0860100400D0300F1
:10200000801A060000350C0040420F0080841E003C
:1020100000093D0000127A000024F40000366E0131
:102020000048E801006CDC0230B450F8041B79B1C0
:102030000268436802440830DC0744BFA9F1010488
:10204000E31852F8045B43F8045B091FF9D1ECE78D
:1020500030BC704710B5074979441831064C7C44B0
:10206000163404E00A68081D114488470146A1425D
:10207000F8D110BD2C0000004C0000004EF6885135
:10208000CEF20001086840F470000860BFF34F8F83
:10209000BFF36F8F4FF00070E1EE100A7047000041
:1020A0002BF2FFFF70010000100000200000000074
:1020B00079FFFFFF10000000640000000000002016
:1020C0000000000000F00DF8002801D0FFF7C2FF6B
:1020D000AFF300800020AFF30080FFF713F900F0AA
:1020E00002F80120704700F001B8000007463846AA
:1020F00000F002F8FBE7000080B5AFF30080024A71
:1021000011001820ABBEFBE7260002000148804703
:1021100001480047591F00082D2100080100000058
:10212000000000001000000000093D00AFF3008037
:10213000FFF7A4FFFFF7C6FF000000000102030441
:10214000FFF7FEBFFFF7FEBFFFF7FEBFFFF7FEBFC3
:10215000FFF7FEBFFFF7FEBFFFF7FEBFFFF7FEBFB3
:10216000FFF7FEBFFFF7FEBFFFF7FEBFFFF7FEBFA3
:10217000FFF7FEBFFFF7FEBFFFF7FEBFFFF7FEBF93
:10218000FFF7FEBFFFF7FEBFFFF7FEBFFFF7FEBF83
:10219000FFF7FEBFFFF7FEBFFFF7FEBFFFF7FEBF73
:1021A000FFF7FEBFFFF7FEBFFFF7FEBFFFF7FEBF63
:1021B000FFF7FEBFFFF7FEBFFFF7FEBFFFF7FEBF53
:1021C000FFF7FEBFFFF7FEBFFFF7FEBFFFF7FEBF43
:1021D000FFF7FEBFFFF7FEBFFFF7FEBFFFF7FEBF33
:1021E000FFF7FEBFFFF7FEBFFFF7FEBFFFF7FEBF23
:1021F000FFF7FEBFFFF7FEBFFFF7FEBFFFF7FEBF13
:10220000FFF7FEBFFFF7FEBFFFF7FEBFFFF7FEBF02
:10221000FFF7FEBFFFF7FEBFFFF7FEBFFFF7FEBFF2
:10222000FFF7FEBFFFF7FEBFFFF7FEBFFFF7FEBFE2
:04223000FFF7FEBFF7
:040000050800212DA1
:00000001FF
